:020000040800F2
:10000000482A002035020008ED1B0008E51B000807
:10001000E91B0008451A00085F32000800000000D4
:100020000000000000000000000000000D2E00088D
:10003000491A000800000000C3020008B92F000898
:100040004F0200084F0200084F0200084F0200084C
:100050004F0200084F0200084F0200084F0200083C
:100060004F0200084F0200084F0200084F0200082C
:100070004F0200084F0200084F0200084F0200081C
:100080004F0200084F0200084F0200084F0200080C
:100090004F0200084F0200084F0200084F020008FC
:1000A0004F0200084F0200084F0200084F020008EC
:1000B0004F0200084F0200084F0200084F020008DC
:1000C0004F0200084F0200084F0200084F020008CC
:1000D0004F0200084F020008353000084F020008A8
:1000E0004F0200084F0200084F02000800F002F81B
:1000F00000F090F80AA090E8000C82448344AAF132
:100100000107DA4501D100F085F8AFF2090EBAE82F
:100110000F0013F0010F18BFFB1A43F0010318473B
:100120002045000040450000103A24BF78C878C13F
:10013000FAD8520724BF30C830C144BF04680C60ED
:10014000704700000023002400250026103A28BF35
:1001500078C1FBD8520728BF30C148BF0B60704739
:100160006E2900F04A83702900F09584662904F016
:100170003F81652904F03C81672904F039816129B8
:10018000AFF3008003681B0A28BF41F08001692992
:1001900000F0E680642900F0E380752900F0E0803B
:1001A0006F2900F02284782900F06184E92900F0A9
:1001B000BD83E42900F0BA83F52900F0B783EF2965
:1001C00000F01F84F82900F060840368DB0928BF71
:1001D00041F08001632900F0F986732900F0FE8662
:1001E000E32900F00987F32900F00E87002070470B
:1001F0001FB500F05BFF04000020002103F08CFF1E
:10020000401C60600020002103F070FFE0601FBD13
:1002100010B510BD00F01CFF1146FFF7E9FF03F019
:1002200075FC00F0F9FF03B4FFF7F2FF03BC03F025
:1002300033F800000948804709480047FEE7FEE719
:10024000FEE7FEE7FEE7FEE7FEE7FEE7FEE7FEE786
:1002500004480549054A064B70470000D52F0008A1
:10026000ED00000848240020482A002048260020ED
:1002700048260020EFF3108072B6704780F3108894
:100280007047204C204D25604FF0000484F309880E
:100290001E4C4FF0010525701D4C4FF08055256018
:1002A00062B6FEE730B41A4C4FF08055256030BC82
:1002B000704730B4164C4FF08055256030BC704705
:1002C00000BF72B6EFF3098028B1203880E8F00F44
:1002D00010490968086000B50F4880475DF804EBD5
:1002E0000E480F490A7802700A480E490A680260EF
:1002F000106890E8F00F203080F309884EF0040E6B
:1003000062B6704720ED00E00000FFFF52000020C1
:1003100004ED00E058000020A12400084700002060
:100320004800002060000020704700007CB51D469A
:1003300016460C00009001D02044401E074B7B4421
:100340002A4669460190304600F071FA05461CB114
:100350000020694600F07EFA28467CBD1D0500009D
:100360002DE9F0410646002410687529314616A58E
:1003700010D000F0AEF9002802DA404213A507E0E1
:1003800031688A0701D512A502E0490704D511A5F5
:10039000012401E000F0A6F900210A2206F1240759
:1003A00009E0B0FBF2FCB0FBF2F302FB1C003030C2
:1003B00078541846491C0028F3D123462A46304673
:1003C000BDE8F04100F0C0B9000000002D000000C1
:1003D0002B000000200000002DE9F05F8946044654
:1003E0004FF0000ADFF874B1FB44C0F820A02046AB
:1003F000E1688847002874D0252806D0D4E9012177
:100400009047206A401C2062F1E700265F462046A4
:10041000E16888472028054607DB312D05D2781989
:1004200010F8200C08B10643F1E7B00701D526F01B
:100430000406C4F81CA00027C4F818A02A2D09D06F
:10044000284602F022FF38B304EB8708303DC8F895
:10045000185019E059F8041B204604EB87029161FB
:10046000E1688847012F054618D1E069002820DAA5
:1004700026F020061DE0D8F8180000EB800005EB00
:1004800040003038C8F818002046E1688847054623
:1004900002F0FBFE0028EED1012F0AD02E2D08D14C
:1004A0002046E16888477F1C0546022F46F020065B
:1004B000C4DBA069002803DA404246F00106A061CF
:1004C000F00701D026F010066C2D0BD0682D09D056
:1004D0004C2D39D06A2D35D0742D35D07A2D33D0AE
:1004E00016E038E0E1682F4620468847B8420546C6
:1004F00009D16C2F26D04FF48060E1680643204676
:100500008847054604E06C2F1AD04FF480700643EC
:100510000DB3A5F14100192802D8203546F4006634
:100520004A462946204626604E46FFF719FE80B10E
:1005300001280BD0F61D26F0070000F1080956E748
:100540004020E4E78020D8E70020D6E706F1040940
:100550004DE7284652E7206ABDE8F09F7C41000045
:10056000032A40F2308010F0030C00F0158011F8DF
:10057000013BBCF1020F624498BF11F801CB00F8B7
:10058000013B38BF11F8013BA2F1040298BF00F80B
:1005900001CB38BF00F8013B11F0030300F0868265
:1005A000083AC0F0088051F8043B083A51F804CBEF
:1005B000A0E80810F5E7121D5CBF51F8043B40F8B5
:1005C000043BAFF30080D20724BF11F8013B11F8C0
:1005D00001CB48BF11F8012B24BF00F8013B00F804
:1005E00001CB48BF00F8012B70474FF000020429EF
:1005F000C0F0128010F0030C00F01B80CCF1040C52
:10060000BCF1020F18BF00F8012BA8BF20F8022B85
:10061000A1EB0C0100F00DB85FEAC17C24BF00F82B
:10062000012B00F8012B48BF00F8012B70474FF059
:10063000000200B5134694469646203922BFA0E832
:100640000C50A0E80C50B1F12001BFF4F7AF09073E
:1006500028BFA0E80C5048BF0CC05DF804EB89002F
:1006600028BF40F8042B08BF704748BF20F8022B72
:1006700011F0804F18BF00F8012B7047704770478A
:100680007047704770B5044685690068C10601D59A
:10069000302600E02026C00707D070BDD4E9012134
:1006A00030469047206A401C20626D1EF6D570BD12
:1006B00070B5044685690078C00707D170BDD4E9DC
:1006C000012120209047206A401C20626D1EF6D533
:1006D00070BD09684A0501D540B27047C905FCD50F
:1006E00000B2704709684A0501D5C0B27047C90514
:1006F000FCD580B2704770B50C460546012A05D07E
:100700002878800600D5EA69002302E0012305E08D
:100710005B1C934202D2E05C0028F9D1A869E6187C
:10072000C01AA861286A184428622846FFF7AAFF61
:1007300004E0D5E9012114F8010B9047B442F8D345
:100740002846FFF7B5FF70BD2DE9F0470D469946E5
:100750009246044600F124080168880604D5E06941
:1007600021F01001216000E00120A84201DD471BBB
:1007700000E00027A1697A1902EB0900081AA061BC
:100780002078C00602D42046FFF77CFF002608E050
:10079000D4E901211AF806009047206A401C761C13
:1007A00020624E45F4DB2078C0060AD52046FFF7CC
:1007B00069FF06E0D4E9012130209047206A401CFF
:1007C0002062381EA7F10107F4DC07E0D4E901211B
:1007D00018F805009047206A401C2062281EA5F1E9
:1007E0000105F3DC2046FFF763FF2078000602D501
:1007F0000220BDE8F0870120FBE711680268006A6B
:10080000530501D508700AE0D30501D5088006E03C
:10081000130603D5C217C1E9000200E008600120F9
:100820007047000001694A1C02610878704700B5F2
:100830008FB0CDE901310021059105497944CDE919
:10084000031011466846FFF7C7FD0FB000BD00005A
:10085000E5FFFFFF0A6802F8010B0A607047D1E963
:1008600000239A4202D2531C0B60107070470000A4
:100870002DE9FF5F15468A460446DFF8AC80F84450
:100880000027D8E900103E46CDE9001010E03AF804
:1008900016106A4602A800F0BBFB411C07D0217865
:1008A000890603D5E269391891420DD80744761CB0
:1008B0002078800602D5E069B84205DDAE42E6DB6D
:1008C0003AF816000028E2D1A069C01BA0612046BA
:1008D000FFF7D8FED8E90010CDE90010002017E09E
:1008E0003AF818106A4602A800F092FBB0F1FF3FF8
:1008F00081460BD000250DF1080B05E0D4E901215C
:100900001BF8050090476D1C4D45F7D308F1010019
:10091000B0428046E4DB206A384420622046FFF77C
:10092000C7FEBDE8FF9F0000FA3C00002DE9F04142
:100930008046D21D22F007020025D2E90002F529E7
:1009400015A614D0011E72F1000106DA0023D0EBC7
:10095000030063EB020211A608E0D8F800108B0731
:1009600001D50FA602E0490701D50EA601251146C3
:10097000002408F1240704E000F0CAF830323A55A8
:10098000641C50EA0102F7D12B463246214640460C
:10099000BDE8F041FFF7D8BE000000002D000000C8
:1009A0002B0000002000000030B4002100F12404DE
:1009B00008E002F00705D208303542EA4372DB084E
:1009C0006554491C52EA0305F3D10468002310A2C0
:1009D000250707D5A40600D421B1C46901230DA2BF
:1009E000641EC46130BCFFF7AFBE10B5044621469B
:1009F0001068FFF777FE02462046BDE8104000234E
:100A0000D2E7D21D22F00701D1E90023CCE7000094
:100A10000000000030000000F0B40D460188090518
:100A200002D5214C7C4402E01F4C7C440E34002152
:100A300000F1240608E002F00F071209E75D42EA20
:100A400003721B097754491C52EA0307F3D1027859
:100A50000023120704D5702D06D009B102231134EA
:100A60002246F0BCFFF770BE01231034F8E770B5E2
:100A700004460D4621461068FFF734FE024629461B
:100A80002046BDE870400023C6E7D21D22F00703D0
:100A9000D3E90023C0E70368126843F02003036032
:100AA0000823C3610023B7E75C3B000010B5203A80
:100AB000C0F00B80B1E81850203AA0E81850B1E817
:100AC0001850A0E81850BFF4F5AF5FEA027C24BFCD
:100AD000B1E81850A0E8185044BF18C918C0BDE8C4
:100AE00010405FEA827C24BF51F8043B40F8043B8D
:100AF00008BF7047D20728BF31F8023B48BF11F842
:100B0000012B28BF20F8023B48BF00F8012B70479B
:100B100030B5B0F10A024FEA900E71F100034EEACF
:100B2000817EB0EB0E0061EB91014FEA101E4EEAA0
:100B3000017E10EB0E0041EB11114FEA102E4EEA30
:100B4000016E10EB0E0041EB11214FEA104E4EEA00
:100B5000014E10EB0E0041EB1141401841F1000134
:100B60004FEAD00040EA41704FEAD10110EB800516
:100B70004FEA810444EA907444EB01046D1944EB9C
:100B80000404521BA3414FF0000348BF0A3200D5B2
:100B900030BD401C41F1000130BD70472DE9FF4FD1
:100BA0000C461E464FF0FF378BB0D2E90001DDF84E
:100BB00060800A908A46C1F30A5505B93D46002176
:100BC00008464FF00000BAF1000F00F4400005DACB
:100BD00000EB80004FF4400101EA50004FEA9059C9
:100BE000B9F1010F00DDB9460A9850EA4A000ED06B
:100BF00044F61050A5F2FF3545432F14B8F1000F0D
:100C00001ED07542291E1EDDC9F100021CE0B8F19C
:100C1000010F4FF0000001D0302103E0F24305E066
:100C20002154401CB042FBDB3046002200212154FD
:100C30000B99C1F80880C1E900200FB0BDE8F08F22
:100C4000BD1B6D1CDEE74A4600DA694206A800F0CB
:100C500071FA06AB93E8070003AB83E80700504640
:100C60000A9900F027FB8DE80700A0F500501F3817
:100C700000900398002D0ADD42F21F014A46084405
:100C8000002303A90390684600F090FD09E0A0F559
:100C900000504A461F38002303A90390684600F01D
:100CA0009AFD8DE807000004000C03D04FF0FF30E0
:100CB000410800E01046B8F1000F03D00022009276
:100CC00015461EE0751E05D4FFF722FF303262552F
:100CD0006D1EF9D5B3460122084302D000227F1CC5
:100CE00004E02078302801D100227F1E002A0997D5
:100CF00084D01DE0112D07DAFFF70AFF303262556C
:100D00006D1C50EA0102F5D1084302D00098C8B129
:100D10000EE00021681E05E0235C625C63542254EF
:100D2000401E491C8142F7DBAB46A81B401E0990C0
:100D3000002004F80B000B98099AC0F80880C0E95D
:100D4000002B7AE711264FF0000857E72DE9F04F06
:100D500088460446D21D22F0070191B0D1E9000176
:100D6000CDE90A0102F07DFA02460B98C00F01D0CE
:100D70002D2007E02068810701D52B2002E02021EB
:100D800001EAC000032A099001D0072A05DB0346C7
:100D90004146204600F08EF90BE12078800601D50F
:100DA000E06900E00620B8F1650F814606D0B8F191
:100DB000660F18D0B8F1670F70D131E00020B9F19B
:100DC000110F009001DB112301E009F101030AAAD0
:100DD00001A90CA8FFF7E2FEDDE90C70002609F17D
:100DE0000105834647E001204B4600904FF0004745
:100DF0000AAA01A90CA8FFF7D1FEDDE90DB00C99F4
:100E00005D46002610B909F101000D18B9EB050087
:100E100003D4C0F1FF3609F10105A5EB09002BE071
:100E2000B9F1010F01DA4FF001090020B9F1110FFA
:100E30000090484601DD112300E003460AAA01A9FB
:100E40000CA8FFF7ABFEDDE90C704D46002683468B
:100E5000207800070AD4AB4500DA5D4601A8012DD1
:100E600004DD411911F8011C302907D04F4502DA81
:100E700017F1040F04DA012082460FE06D1EEEE741
:100E8000002F02DCED1B3E4403E0781CA84200DD8D
:100E90007D1CB81B00F1010A4FF0004720780007C5
:100EA00003D4AA4501DB4FF0FF3A0021B7F1004F10
:100EB0000DF143088DF8431024D002202B23002F7E
:100EC00001DA7F422D230A21021EA0F1010000DC7D
:100ED0005FB197FBF1FC97FBF1F201FB1C7C17461D
:100EE0000CF1300C08F801CDEEE7A8F10100037019
:100EF0002188090501D5452100E06521A0F10108FF
:100F000000F8011C09980FA9A1EB0807FF1D00B10B
:100F10000120411901EBEA70A1693844081A401E0A
:100F2000A0612078C00602D42046FFF7ABFB0998E9
:100F300028B1D4E901219047206A401C2062207822
:100F4000C00622D52046FFF79DFB1EE0002E04DBE5
:100F5000B34502DD01A8805D00E03020D4E9012125
:100F60009047206A401C2062761CAAF101005FEACB
:100F7000000A0AD100F09AF8C0680168405CD4E920
:100F800001219047206A401C2062281EA5F101051E
:100F9000DCDC07E0D4E9012118F8010B9047206A56
:100FA000401C2062381EA7F10107F3DC2046FFF742
:100FB0007FFB032011B041E610B5436913B1AFF3D5
:100FC000008001E0FFF797FB012010BD127800F1CF
:100FD00024010A7000224A700122EDE711684FF0E7
:100FE000FF32E9E710B5436913B1AFF3008001E0C8
:100FF000FFF73EFC012010BD128800F1240182841D
:101000000022C2840122EDE711684FF0FF32E9E7C8
:1010100070B516460C46054600F040F8036893F894
:101020000101012806D0FF2C0FD8185D68B10120FE
:101030002C7070BDD3F807013246214603F2071326
:1010400003442846BDE8704018474FF0FF3070BD9C
:10105000754600F0EBF8AE4605006946534620F0B1
:101060000700854618B020B5FFF7F2F8BDE820402C
:101070004FF000064FF000074FF000084FF0000B54
:1010800021F00701AC46ACE8C009ACE8C009ACE807
:10109000C009ACE8C0098D467047000010B500F0EB
:1010A00005F8001D10BD00BF7130000000487047FA
:1010B000082400202DE9F0411F460446032601685C
:1010C000072A01F4006004DB08B116A505E016A5A7
:1010D00003E008B115A500E015A521F0100020607F
:1010E000A069C01EA0610FB1401EA0612046FFF79D
:1010F000C9FA4FB1D4E9012138469047206A401C13
:101100002062C01C206206E0206AFAE7D4E90121CF
:1011100015F8010B9047761EF8D22046FFF7C8FA63
:10112000BDE8F0814E414E006E616E00494E4600B2
:10113000696E66002DE9F047814616468AB035484B
:1011400078440DC88DE80D0032487844801C03AC0B
:101150000DC884E80D0041F69B300844372190FB10
:10116000F1F290FBF1F5A5F1800501FB12041B3CA7
:1011700002D56442012000E00020DFF898A08046FC
:101180000027FA44AAF1BE0A0EE0E0070AD0324670
:10119000684607EB470101230AEB810100F01BFBC6
:1011A0008DE8070064107F1C002CEED1194F7F449E
:1011B000AE3F19E0E80715D007EB04100DF1180A4F
:1011C00090E80E008AE80E00C068F04201D198193C
:1011D00008903246012306A903A800F0FCFA03ABED
:1011E00083E807006D10641C002DE3D14FF001036C
:1011F00032466946B8F1000F03A802D000F0D6FAD3
:1012000001E000F0E8FAC9E90001C9F808200AB0D5
:10121000BDE8F087E434000010B50446AFF3008069
:101220002046BDE81040FEF7FEBF000000487047B2
:10123000E82300204FF0013C50F8042B51F8043B08
:101240009A4221D1A2EB0C03934313EACC1317D19A
:1012500050F8042B51F8043B9A4215D1A2EB0C0331
:10126000934313EACC130BD150F8042B51F8043BF1
:101270009A4209D1A2EB0C03934313EACC13DBD0BF
:101280004FF00000704700BFD01A01BAB1FA81F1E7
:1012900001F0180122FA01F0CB40C1F12001DBB2CC
:1012A000C0B2C01A2CFA01F3D11A914311EAC3114A
:1012B000E6D170475FEA400C08BF91F0000F4FEA9B
:1012C0008C234FEAC12243EA51514FEA1C5018BF08
:1012D00000F5F0404FEA300018BF41F000415FEAEE
:1012E0006C5C00F02980BCF1FF3F08BF40F08040FB
:1012F0007047130C06BF12044FF0100C4FF0000C97
:10130000130E04BF12020CF1080C130F04BF1201DC
:101310000CF1040C930F04BF92000CF1020CD30FDC
:1013200004BF52000CF1010C11464FF00002A0F175
:101330001F00A0EB0C00704711F0004F08BF704772
:1013400031F000413FF4D5AF0B0C06BF09044FF05C
:10135000100C4FF0000C0B0E04BF09020CF1080C2E
:101360000B0F04BF09010CF1040C8B0F04BF8900A3
:101370000CF1020CCB0F04BF49000CF1010CCCF1B5
:101380002003A0EB0C0022FA03F302FA0CF241EA6C
:10139000030100F10100704720F07F4C80EA030058
:1013A00023F07F47ACEB070303F57C5300F00040CC
:1013B00003F1FF032DE980494FEA154B09B44FEAC9
:1013C000144325EA0B4E24EA03480FF2042606EBE9
:1013D000132749083E785FEA320203FB0667C7F528
:1013E000000707FB06F64FEA54374FEAD64606F1E8
:1013F000020607FB066CCCF1005C4FEA1C472CEAA6
:10140000074C07FB06F40CFB06F504EB15464FEA08
:10141000961634BF00204FF000404FEAD13706FB4C
:1014200007FC4FEA1C4C0CFB0BF7D21B03FB0CF721
:1014300061EB07010CFB0EF7B0EB074072EB1742B4
:101440000CFB08F734BFA2EB0742B2EB074261EB9B
:1014500017414FEA0C444FEA910706FB07FC4FEA9D
:101460001C4C0CFB0BF7B0EBC74072EB573203FB85
:101470000CF734BFA2EBC742B2EBC74261EB573166
:101480000CFB0EF7B0EBC70072EB57720CFB08F7C2
:1014900034BFA2EBC702B2EBC70261EB5771039FE7
:1014A0004FEA816141EA921104EBCC044FEAD13753
:1014B0004FEA826206FB07FC42EA90124FEA806024
:1014C0004FEA1C4C0CFB0BF7D21B03FB0CF761EB38
:1014D00007010CFB0EF7B0EB074072EB17420CFB59
:1014E00008F734BFA2EB0742B2EB074261EB1741AA
:1014F0004FEA8C554FEA910704EB9C2406FB07FC4E
:101500004FEA1C4C0CFB0BF7B0EBC74072EB5732A9
:1015100003FB0CF734BFA2EBC742B2EBC74261EB4F
:1015200057310CFB0EF7B0EBC70072EB57720CFB98
:1015300008F734BFA2EBC702B2EBC70261EB5771E9
:1015400015EB4C254FEA816141EA92114FEA826224
:101550004FEAD13742EA901206FB07FC44F100043F
:101560004FEA80604FEA1C4C0CFB0BF7D21B03FBCD
:101570000CF761EB07010CFB0EF7B0EB074072EBC9
:1015800017420CFB08F734BFA2EB0742B2EB07424D
:1015900061EB174115EB1C154FEA813141EA92418D
:1015A0004FEA823242EA90424FEA80304FEA0C76AC
:1015B00044F1000448EA03434EEA0B484FF0000EA2
:1015C000B2EB080C71EB030724BF624639464EEBC1
:1015D0000E0E4FF0000B0018524149414BEB0B0B24
:1015E000B2EB080C71EB03077BF1000B24BF6246E2
:1015F00039464EEB0E0E4FF0000B00185241494198
:101600004BEB0B0BB2EB080C71EB03077BF1000B00
:1016100024BF624639464EEB0E0E51EA020718BF50
:1016200046F0010616EB0E7655F1000254F100016A
:1016300003D5BDE88901BDE80088BDE88901BDE8A2
:101640000048B619524141EB0101A3F10103704773
:1016500080807F7E7D7C7B7A7978777676757473EF
:10166000727171706F6E6E6D6C6C6B6A6A696868AE
:10167000676666656464636362616160605F5F5E44
:101680005E5D5D5C5C5B5B5A5A59595858575756BA
:10169000565555555454535352525251515050501F
:1016A0004F4F4F4E4E4D4D4D4C4C4C4B4B4B4A4A71
:1016B0004A494949484848474747474646464545B5
:1016C00045444444444343434342424242414141EE
:1016D000002B9C4630D477002BD01CB54FEA37073F
:1016E00003B44FF010004FF01001BAF1000F06D014
:1016F000BCF1000FDCBF40F0080040F008014FF0E3
:1017000000000FBCBDE810400BF1010BBBF1010F55
:1017100008BF5FEA170722BF12F1010211F10101B0
:101720004FF0004143F1000300F0004043EA0000A5
:101730007047F9D35708D0E746EA064613F1400F41
:101740004FEA16461FDD13F1200FDFBF16430A468E
:10175000002120335B42BED0C3F1200746EA064693
:1017600002FA07F74FEA164646EA0706C3F12007D2
:1017700022FA03F201FA07F721FA03F14FF000030E
:1017800042EA0702A7E746EA020646EA06464FEAA9
:10179000164646EA0106BCBF46EA0646360C4FF03E
:1017A00000034FF000024FF0000194E72DE9804C58
:1017B0009A46934670B491E8380007C831EA400C65
:1017C00048BF34EA430C03D5FFF7E6FDFFF780FF7F
:1017D000F0BCBDE8008C2DE9804C9A46934670B46D
:1017E00091E8380007C810F0804F08BF13F0804F11
:1017F00003D100F005F8FFF76BFFF0BCBDE8008CEB
:1018000020F07F4780EA030023F07F4C07EB0C03B6
:10181000A3F57C5300F00040A3F1FE0392F0000F0B
:1018200000F0B38095F0000F00F077802DE90149BA
:101830004FEA11404FEA144621EA004800FB06FC3B
:1018400024EA064708FB06F607FB08F800FB07F743
:1018500018EB06484CEB164C4FEA124B18EB0748B6
:101860004FEA15464CEB174022EA0B4E0BFB06FCE9
:1018700025EA06470EFB06F607FB0EFE0BFB07F7F5
:101880001EEB064E4CEB164C4FF000061EEB074EBF
:101890004CEB174B18EB0B0840F1000018EB0E0B4C
:1018A00058EB000840F100008F1A4FF000013CBFD8
:1018B000C943661B14BFB5EB040C00213CBFC943F0
:1018C000F61B4FEA17444EEA8E0E27EA04454FEA0C
:1018D0001C4704FB07622CEA074C05FB07F70CFBCF
:1018E00005F604FB0CFC16EB074642EB174216EB21
:1018F0000C4642EB1C421BEB060658EB0202414130
:1019000046EA9E0601D5BDE80189B619524141EB70
:101910000101A3F10103BDE801894FEA14454FEA33
:10192000114724EA054621EA074C05FB07F406FBAC
:1019300007F70CFB06F105FB0CFC11EB074144EB30
:1019400017444FEA124711EB0C4144EB1C4422EAC6
:10195000074C05FB07F206FB07F70CFB06F605FB39
:101960000CFC16EB074642EB174216EB0C4642EB1B
:101970001C456A1854F1000148BF7047B61952411E
:1019800041EB0101A3F10103704795F0000F37D03F
:101990004FEA11424FEA144721EA024624EA074C73
:1019A00002FB07F106FB07F70CFB06F402FB0CFC3D
:1019B00014EB074441EB17414FEA154714EB0C4475
:1019C00041EB1C4125EA074C02FB07F506FB07F734
:1019D0000CFB06F602FB0CFC16EB074645EB174525
:1019E00016EB0C4645EB1C42121951F1000148BFA1
:1019F0007047B619524141EB0101A3F10103704751
:101A00004FEA14454FEA114724EA054621EA074CFC
:101A100005FB07F106FB07F70CFB06F24FF000068B
:101A200005FB0CFC12EB074241EB174112EB0C4299
:101A300051EB1C4148BF7047921841EB0101A3F1E3
:101A40000103704700BFFEE770470146B1F8580038
:101A5000B1F85620904201D0012070470020FCE7E9
:101A600070B504460D4611212846FEF7BEFDB4F8B8
:101A70005600B4F85810884201D1002070BDB4F867
:101A8000560000EB0010011911222846FEF768FDF0
:101A9000B4F85600401C052190FBF1F201FB120046
:101AA000A4F856000120E9E72DE9F041024600259F
:101AB0000026002000230024002791F803C00CF02A
:101AC0000F0591F803C00CF0100CBCF1000F03D00F
:101AD00091F802C04CEA050591F800C0BCF1000F76
:101AE00031D0146800202BE04FF0010C0CFA00F309
:101AF000B1F800C00CEA03069E4220D183004FF0EB
:101B00000F0C0CFA03F7BC4305FA03FC4CEA04047F
:101B100091F803C0BCF1280F06D14FF0010C0CFA6C
:101B200000FCC2F814C00AE091F803C0BCF1480FF1
:101B300005D14FF0010C0CFA00FCC2F810C0401C9B
:101B40000828D1D31460B1F800C0BCF1FF0F34DD18
:101B5000546800202EE000F1080C4FF0010808FA4C
:101B60000CF3B1F800C00CEA03069E4221D18300B9
:101B70004FF00F0C0CFA03F7BC4305FA03FC4CEAD8
:101B8000040491F803C0BCF1280F05D100F1080C42
:101B900008FA0CF8C2F8148091F803C0BCF1480FA1
:101BA00007D100F1080C4FF0010808FA0CF8C2F850
:101BB0001080401C0828CED35460BDE8F0814161FC
:101BC00070470161704710B502460B4600210020A6
:101BD00000BF04E0545C0444E0B24C1CA1B2994242
:101BE000F8DB10BD00BFFEE700BFFEE77047000056
:101BF00070B5002100230F22C47804B3154C24686B
:101C000004F4E064C4F5E064210AC1F10403CA40AD
:101C1000447804FA03F184781440214309010E4CFE
:101C20000678A155047804F01F050124AC4005781E
:101C30006D11AD0005F1E025C5F8004109E004781B
:101C400004F01F050124AC40044D0678761145F8D8
:101C5000264070BD0CED00E000E400E080E100E013
:101C600002490143024A1160704700000000FA0572
:101C70000CED00E0174818481848194819481A4848
:101C80001A481B481B481C481C481D481D481E4834
:101C90001E481F481F482048204821482148224804
:101CA00022482348234824482448254825482648D4
:101CB00026482748274828482848294829482A48A4
:101CC0002A482B482B482C482C482D482D482E4874
:101CD00000BF7047F4440008F8440008FE440008C0
:101CE00000450008FC4400080245000804450008BF
:101CF00006450008084500080A4500080C4500088C
:101D00000E4500081045000812450008144500085B
:101D100016450008184500081A4500081C4500082B
:101D20001E450008204500082245000824450008FB
:101D300026450008284500082A4500082C450008CB
:101D40002E4500083045000832450008344500089B
:101D500036450008384500083A4500083C4500086B
:101D60003E4500084045000842450008444500083B
:101D7000464500084A4500084C4500084E45000805
:101D80005045000852450008664500082DE9F0411D
:101D900006460D4600271348007820B11020287011
:101DA0000020BDE8F081FEF765FA07460E4804689A
:101DB00084B1006840680C490860052020702681C5
:101DC0000020606009A0E0603846FEF757FA002066
:101DD000287004E03846FEF751FA72202870204639
:101DE000DFE7000045000020340000203F00000035
:101DF00010B500F015F800F003FD00F02BFD00F029
:101E00004BFD00F0D3FC00F0A5FC00F0DFFD00F07E
:101E100083FD00F0A9FD00F004F8FFF72BFF10BDD3
:101E20007047704706480078012808D105480078B7
:101E3000FF2804D203480078401C0249087070470C
:101E4000520000204500002010B500241A480078F8
:101E5000012830D1FEF70EFA04461848007820B168
:101E600016480078401E1549087014480078F8B9E3
:101E700013480078E0B900F00BFE124812490978C7
:101E800050F82100114908600F480078104909787E
:101E900088420DD00D480068806B401C0B490968D2
:101EA00088630C480068401C0A490860FEF701FA84
:101EB0002046FEF7E3F910BD520000204500002047
:101EC000460000204406002048000020600000205A
:101ED000470000202C00002070B5054600260F4862
:101EE000007808B1002070BDFEF7C4F906460C4822
:101EF0000468006820B10A48006840680849086022
:101F00003046FEF7BBF93CB103202070258100204C
:101F10006060204600F010FC2046E4E74500002009
:101F2000300000202DE9F04105460E4614460027FA
:101F30002878032803D001202070BDE8F0813148C3
:101F4000007810B102202070F7E72F48007810B118
:101F50000D202070F1E7FEF78DF90746288940B182
:101F60002889401E28813846FEF788F90020207015
:101F7000E3E72648006890F8300040F0010023496C
:101F8000096881F8300000202049096881F8310093
:101F90001E480068C662284600F090FB3846FEF7EF
:101FA0006DF900F03BFDFEF765F90746174800683C
:101FB00090F8310020B1012809D0022806D102E0B2
:101FC000002020700BE00E20207008E000BF2946A2
:101FD0000E48006800F05CFB0A20207000BF00BFC4
:101FE00000200A49096881F830000849096881F829
:101FF000310006490968C8613846FEF73FF900BF5D
:102000009BE700004500002046000020580000200B
:1020100070B5044600252078032801D0012070BD4A
:10202000FEF728F90546A07A60B10023012219467F
:10203000204600F0EBFA2846FEF720F900F0EEFC0F
:102040000020ECE720894FF6FF71884207D22089F3
:10205000401C20812846FEF711F90020DFE72846C2
:10206000FEF70CF93320DAE710B50B48007890B989
:1020700000F00EFD09480078094908700948074931
:10208000097850F8210008490860084600680749A7
:102090000860FEF7F6F810BD52000020480000204E
:1020A0004700002044060020600000205800002067
:1020B00010B50024022000F0F5F9FEF7DBF8044625
:1020C00000200B4908602046FEF7D8F8642000F095
:1020D000E9F9FEF7CFF804460548006805490860AD
:1020E0000120054908702046FEF7C8F810BD000021
:1020F000540000203C0000204400002070470000F5
:102100002DE9FE4F06460F4690461C464FF000094B
:10211000FEF7B0F881461F48007828B14846FEF720
:10212000ADF83C20BDE8FE8F1B4850F8240060BB92
:102130000120194941F824004846FEF79FF8002382
:1021400042463946304600F009F9824600200090A8
:1021500001900346024651460290204600F0AEFC34
:10216000054635B90D48007801280CD100F056FC21
:1021700009E0FEF77FF881460020074941F8240076
:102180004846FEF77BF82846CCE74846FEF776F847
:102190002820C7E745000020440600205200002008
:1021A0002DE9F04F85B081468A4693461C46DDE90D
:1021B0000F78129D00200390FEF75CF803902348EF
:1021C000007830B10398FEF759F83C2005B0BDE81F
:1021D000F08F1F4850F8240088BB01201C4941F8AB
:1021E00024000398FEF74AF82A464146384600F094
:1021F00075FD2B465A465146484600F0AFF804900C
:102200001198CDE9008002953A4620460E9B04992C
:1022100000F054FC064636B90E48007801280CD16F
:1022200000F0FCFB09E0FEF725F8039000200849C8
:1022300041F824000398FEF721F83046C6E7FFE78F
:102240000398FEF71BF82820C0E700004500002097
:102250004406002052000020704770472DE9F041ED
:1022600006460F4614464FF000081548007818B18E
:1022700012202070BDE8F081FDF7FCFF8046FF2EA4
:1022800003D11048006890F832600F4850F826508B
:102290002DB94046FDF7F2FF43202070EAE7012DFB
:1022A00005D14046FDF7EAFF43202070E2E7EF64E6
:1022B0004046FDF7E3FF0020207000BFDAE7000092
:1022C0004500002058000020440600207047000010
:1022D0002DE9F04707460D464FF0000A0020286020
:1022E0006860FDF7C7FF8246FF2F03D119480068D9
:1022F00090F83270184850F827402CB95046FDF736
:10230000BDFF4320BDE8F087012C04D15046FDF706
:10231000B5FF4320F6E7207C00F0010020B95046CD
:10232000FDF7ACFF4520EDE70026D4F80C90D4F87B
:1023300008805046FDF7A2FF00E0761C58F8041B09
:102340000029FAD0B0002860A9EB06008000686080
:102350000020D7E7580000204406002070B504464E
:1023600010464FF080750560051F28462C606FF001
:102370000106051F28462E604FF01236051F28461D
:102380002E604FF00336051F28462E604FF00236B0
:10239000051F28462E607610051F28462E60051F53
:1023A000284629604FF01136051F28462E604FF051
:1023B0001036051F28462E604FF00936051F2846A7
:1023C0002E604FF00836051F28462E604FF0073666
:1023D000051F28462E604FF00636051F28462E6042
:1023E0004FF00536051F28462E604FF00436051FB6
:1023F00028462E6070BD00002DE9F04105464FF0E3
:102400000008FDF737FF8046FF2D05D12048006802
:1024100090F83250012608E01D48006890F832001C
:10242000A84201D1012600E000261A4850F82540B4
:102430002CB94046FDF722FF4820BDE8F081012C71
:1024400004D14046FDF71AFF4320F6E794F83470B4
:102450001148C05D94F8351088430F49C8550846A7
:10246000C05D30B994F836100C48007888430B49A9
:10247000087094F8300040F0080084F830004046BE
:10248000FDF7FCFE012E01D100F0C8FA0020D4E7D0
:1024900058000020440600204A0000204900002087
:1024A0007047000070B5054600261748007800B157
:1024B00070BD1648007800B1FAE71DB3FDF7DAFEEB
:1024C00006461348006890F834401248005D1049F1
:1024D000096891F8351088430E4908550846005D93
:1024E00040B90B48006890F836100B4800788843D4
:1024F0000949087006480068C5623046FDF7BEFE0F
:1025000000F08CFA00BFD3E7450000204600002011
:10251000580000204A0000204900002070B5002625
:1025200000F072F8FDF7A6FE064631480068401C30
:102530002F4908603046FDF7A1FE2E48007801289B
:1025400053D12D48007820B1012804D0022809D1A8
:1025500003E001250BE0002509E0012501202649C3
:10256000087004E0012500202349087000BF00BF67
:1025700005B970BD2148046833E0FDF77BFE0646CF
:10258000E06A50B3E06A401EE062E06A28BB94F85B
:10259000300000F0370040B114F8300F00F0C800F0
:1025A000207001206070303C02E0002084F831008F
:1025B00094F8300000F0080078B93434A07810495D
:1025C000097808430E49087020780E49085C617844
:1025D000084314F834190B4A505464693046FDF727
:1025E0004DFE94F832003F28C7D100BFC1E700007C
:1025F00070000020520000206800002064000020CD
:10260000490000204A000020704700002DE9F04FEB
:1026100005460F4690469946A87A19490E5C05F181
:102620000B00805D11F800B00BEBC60000F0FF0A54
:10263000144850F82A4000202034E0602760207CB5
:1026400020EA0800207484F81190207C203C00F0DF
:10265000080068B994F836000B49097808430A491C
:1026600008700A48805D94F835100843074988557A
:102670002946204600F00CF85046BDE8F08F0000D7
:10268000F443000844060020490000204A000020CE
:1026900010B590F8342001F10B039B5C90F83540A5
:1026A000A34301F10B04A35423469B5C23B98B7A0B
:1026B00090F83640A3438B7210BD000010B51B4A42
:1026C0001268D061194A126892F8343000F10B0296
:1026D000D25C164B1B6893F835301A43134B1B68BA
:1026E00093F8344000F10B031A55827A0F4B1B68A4
:1026F00093F836301A4382720C4A126892F83410FA
:102700000B4A525C094B1B6893F835309A43084BCF
:102710005A541A46525C42B9044A126892F836304A
:10272000044A12789A43034B1A7010BD58000020D7
:102730004A00002049000020014600228A72002041
:1027400005E0002301F10B021354421CD0B208280B
:10275000F7D370472DE9F0415021114800F02CF9D2
:1027600000250DE0681C86B20D4800EB051400EB57
:1027700006170020207067600AA0E060681C85B220
:10278000042DEFD3064800EB051400202070606094
:1027900004A0E060024804490860BDE8F081000040
:1027A000F40100203F0000003400002070B5C82173
:1027B000114800F001F900230FE0581C85B203EB2B
:1027C00083000D4901EB800405EB850001EB8006D9
:1027D000002020706660581C83B2092BEDD303EBF8
:1027E0008300054901EB80040020207060600846EA
:1027F0000249086070BD00002C010020300000205C
:1028000000200A4908600A4908700A4908700A4904
:1028100008700A4908700A4908600A4908600A49AC
:1028200008600A4908600A49087070477000002073
:1028300045000020460000205300002052000020E8
:102840002C00002054000020400000203C0000200C
:102850004400002000210A4A1170002004E00021F9
:10286000084A1154411CC8B20828F8D30021064A6E
:102870001170064A1170064A1160064A11607047CD
:10288000490000204A0000204700002048000020A6
:10289000600000205800002070B54FF47C7119488A
:1028A00000F08AF84FF48071174800F085F8002492
:1028B00013E0601CC5B2C4EBC40000EB400011493A
:1028C00001EB8003C5EBC50000EB400001EB800687
:1028D0005E610EA0D864601CC4B20B2CE9D3C4EBBB
:1028E000C40000EB4000074901EB80030020586161
:1028F00006A0D8640020064908600248054908601F
:1029000070BD000044070020440600203F00000086
:10291000640000205C00002000B587B00320002187
:1029200080220A4BCDE90132CDE903104FF6FF704A
:102930003F23074A00900748FFF732FC06AA06A18A
:102940003F20FFF78BFC07B000BD000044040020CF
:1029500040060020F12B000875432F4F532D4949A5
:102960002049646C6500000000B587B00320002199
:1029700080220A4BCDE90132CDE903104FF6FE70FB
:102980003E23074A00900748FFF70AFC06AA06A163
:102990003E20FFF763FC07B000BD000044020020AA
:1029A00040040020192C000875432F4F532D49492E
:1029B000205374617400000004E0002200F8012B31
:1029C0004A1E91B20029F8D1704700002DE9F0416C
:1029D00078211048FFF7F0FF00240DE0601C86B25C
:1029E00004EB44000B4901EBC00506EB460001EB8C
:1029F000C0072F60601C84B2042CEFD304EB4400AA
:102A0000044901EBC005002028600846024908601F
:102A1000BDE8F081340B00206C00002010B50024CC
:102A2000FDF728FC044613480078F8B912480078EE
:102A3000E0B900F02DF811481149097850F821004B
:102A4000104908600E4800780F49097888420DD077
:102A50000C480068806B401C0A49096888630B4871
:102A60000068401C09490860FDF71CFC2046FDF782
:102A700005FC10BD45000020460000204406002053
:102A80004800002060000020470000202C000020AB
:102A90000649074A1278885C0649095C034A515C7A
:102AA00001EBC001044A117070470000F4430008B4
:102AB000490000204A000020480000202DE9F84F7E
:102AC00005460F4690469946DDE90AAB0020009086
:102AD000FDF7D0FB00903F480468002C74D01834F8
:102AE00054F8040C3B4908600098FDF7C7FB44F814
:102AF000187CA576002020766076606144F814BCCE
:102B000044F80CAC44F8108C0C9824F8080C24F809
:102B1000069C0020E077E810207705F00700E076BB
:102B2000217F01208840A077E17E012088406077E6
:102B300000206060E060A0602062A0626062E062ED
:102B4000206325A06063183C002606E0002104F104
:102B5000500040F82610701CC6B2002EF6D0204659
:102B6000FFF7CCFA2046FFF777FBFDF783FB0090D9
:102B70001A4840F825401A48006860610020A061AA
:102B80001748006810B11648006884611448046052
:102B90003434A07813490978084312490870207822
:102BA0001149085C6178084314F834190E4A5054EE
:102BB0000E480078401C0D4908700098FDF75EFB38
:102BC0000020BDE8F88FFFE70098FDF757FB422093
:102BD000F7E700005C0000203F00000044060020F2
:102BE00064000020490000204A000020530000201B
:102BF000002400BF00BFFDF73DFB04460548006808
:102C0000401C044908602046FDF738FBFFF725FB10
:102C1000F1E7000054000020002400BF02E0C820BB
:102C2000FFF740FC194800780028F8D018480068E1
:102C30006421B0FBF1F0164908600846006828B925
:102C4000002014490870FF20FFF7D6FB00BFFDF7F6
:102C500011FB0446104800681049086000200E4926
:102C600008602046FDF70AFB0C480068084909681F
:102C7000B0FBF1F0C0F1640006490870FFF726FBD5
:102C800000F00EF86420FFF70DFCE0E744000020A0
:102C90003C000020380000205400002040000020AC
:102CA0007CB5002514E069462846FFF711FB06466F
:102CB00066B9094850F8254044B1012C06D0D4E942
:102CC000020100EB810060640198A064681CC5B239
:102CD0003F2DE8D97CBD00004406002002F001032E
:102CE00043B102F002032BB102E0491E002308C0E9
:102CF0000029FAD17047000029B1064AD26902437F
:102D0000044BDA6104E0034AD2698243014BDA6181
:102D1000704700000010024029B1064A9269024340
:102D2000044B9A6104E0034A92698243014B9A6121
:102D3000704700000010024030B50021002200243E
:102D400000232D4D6D6805F00C0121B1042905D03B
:102D5000082923D105E0294D056022E0274D0560B3
:102D60001FE0254D6D6805F47012234D6D6805F464
:102D70008034022505EB92421CB9214D5543056074
:102D80000BE01D4D6D6805F400351DB11C4D55431C
:102D9000056002E0194D5543056002E0174D0560DE
:102DA00000BF00BF144D6D6805F0F0010909154D15
:102DB0006B5C0568DD4045600F4D6D6805F4E061B2
:102DC000090A104D6B5C4568DD4085600A4D6D68F1
:102DD00005F46051C90A0B4D6B5C4568DD40C56068
:102DE000054D6D6805F44041890B074D6B5CC56866
:102DF000B5FBF3F5056130BD0010024000127A000A
:102E000000093D0018000020280000207047000045
:102E100070B500250024002620480088801E204927
:102E20000D5C0846067840781E4908741C48807876
:102E3000A1F801001A48C078C87019480079888044
:102E400017484079887116488079C87100BF07E03B
:102E5000E01D1349095C134808300155601CC4B2D9
:102E60001048007CC01FA042F2DC0C480088801E85
:102E70000B490E5C09480088401E0E5C0948007C26
:102E8000C01F084908740846B0F80100122803D191
:102E90000021044801F0A4F870BD00009A00002051
:102EA000582000202021002010B500F001F810BDAE
:102EB0000CB50020019000903348006840F4803049
:102EC0003149086000BF3048006800F400300090CD
:102ED0000198401C0190009818B90198B0F5A06FB6
:102EE000F1D12948006800F4003010B101200090B1
:102EF00001E0002000900098012843D12348006899
:102F000040F01000214908600846006820F00300E6
:102F100008600846006840F0020008601A484068EF
:102F2000194948600846406848600846406840F4CF
:102F3000806048600846406820F47C10486008467D
:102F4000406840F4E81048600846006840F080702F
:102F5000086000BF0C48006800F000700028F9D03D
:102F60000948406820F00300074948600846406867
:102F700040F00200486000BF0348406800F00C00C9
:102F80000828F9D10CBD00000010024000200240CA
:102F9000042808D14FF0E021096941F004014FF005
:102FA000E022116107E04FF0E021096921F00401FE
:102FB0004FF0E0221161704710B5054800780128F4
:102FC00005D1FEF72FFFFFF7A9FAFEF73DFF10BD71
:102FD0005200002010B51348006840F0010011496C
:102FE000086008464068104908400E494860084695
:102FF00000680E4908400B4908600846006820F444
:10300000802008600846406820F4FE0048604FF4C5
:103010001F008860FFF748FF4FF000600449086018
:1030200010BD0000001002400000FFF8FFFFF6FE98
:1030300008ED00E010B5002440F225510B4800F0E7
:103040004AF860B1094800F001F9C4B221460848C5
:1030500000F048FF40F22551044800F014F80348FE
:10306000001D00880148008810BD00000044004099
:10307000A000002001F40072B2F5007F00D100BF73
:10308000CA430280704710B50022002340F66A143C
:10309000A14200D100BF0A1201249440A3B2DC4334
:1030A000048010BD21B1828942F40052828104E083
:1030B00082894DF6FF731A408281704702460020D4
:1030C000B1F5007F00D100BF13880B400BB1012088
:1030D00000E00020704770B5024600240023002560
:1030E000002040F66A16B14200D100BFC1F342157C
:1030F00001F01F03012606FA03F3012D02D1968980
:10310000334006E0022D02D1168A334001E0968A50
:1031100033400C12012606FA04F41688344013B129
:103120000CB1012000E0002070BDF0B50346002482
:1031300000260025002040F66A17B94200D100BFE2
:103140001846C1F3421401F01F06012707FA06F5DD
:10315000012C01D10C3004E0022C01D1103000E030
:1031600014301AB107682F43076002E00768AF43C5
:103170000760F0BD2DE9F04786B005460E460024F5
:10318000A24600BFA1460027B08900B100BF2F466C
:103190002C8A4CF6FF700440F08804432C82AC89E2
:1031A0004EF6F3100440B088318908437189084312
:1031B0000443AC81AC8A4FF6FF400440B08904431D
:1031C000AC8201A8FFF7B8FD1F48874202D1DDF8A5
:1031D00010A001E0DDF80CA0A88900F4004040B187
:1031E0000AEBCA0000EB0A1031684900B0FBF1F8A5
:1031F00007E00AEBCA0000EB0A1031688900B0FB57
:10320000F1F86420B8FBF0F004012009642101FB0F
:103210001089A88900F4004040B1322000EBC900B9
:10322000B0FBF1F000F00700044308E0322000EBAF
:1032300009106421B0FBF1F000F00F0004432C8171
:1032400006B0BDE8F08700000038014001468888DC
:10325000C0F308007047C1F308028280704700BFC6
:10326000FEE7490050EAC12018BF04204A0D18BFEC
:1032700040F0010040F2FF72B2EB515F08BF40F036
:103280000200012808BF0520704730380A2801D203
:10329000012070470020704700BF704708B501212A
:1032A0000520FFF739FD3020ADF8000010208DF823
:1032B000030002208DF8020069460648FEF7F4FB81
:1032C00010210448FEF77DFC20210248FEF779FC1E
:1032D00008BD0000000801400348006880F01000AD
:1032E00001490860704700000C08014010B5044611
:1032F00004EB4402054B03EB8202118904EB440208
:1033000053F82200FEF75BFC10BD0000AC0B002060
:1033100010B5044604EB4402054B03EB820211890D
:1033200004EB440253F82200FEF74BFC10BD0000F2
:10333000AC0B002070B504460D46022C00DB70BDBE
:10334000002D0BDD2046FFF7E3FF0120064901F8C1
:103350002400084600EB8400458003E00020024979
:1033600001F8240000BFEAE77400002010B504460D
:10337000064800880548001D048000BF402103481E
:10338000FFF79CFE0028F9D010BD0000004C004063
:1033900010B50446064800880548001D048000BF9B
:1033A00040210348FFF78AFE0028F9D010BD000035
:1033B0000038014010B50446064800880548001D45
:1033C000048000BF40210348FFF778FE0028F9D0B1
:1033D00010BD00000044004010B5044606480088B7
:1033E0000548001D048000BF40210348FFF766FE2A
:1033F0000028F9D010BD00000048004030B587B06B
:1034000004460D469C48844251D101218803FFF7B0
:1034100083FC01210420FFF77FFC2015ADF8180084
:1034200018208DF81B0003208DF81A0006A9934878
:10343000FEF73AFB6015ADF8180003208DF81A006E
:1034400018208DF81B0006A98C48FEF72DFB2520BF
:103450008DF8040000208DF805008DF8060001208D
:103460008DF8070001A8FEF7C3FB4FF4E13002908E
:103470000020ADF80C00ADF80E00ADF81000ADF86E
:1034800014000C20ADF8120002A92046FFF772FECE
:10349000012240F225512046FFF747FE0121204638
:1034A000FFF700FE40212046FFF7E4FDE2E074480C
:1034B00084424FD101210520FFF72EFC0121480451
:1034C000FFF71AFC0820ADF8180004208DF81B0047
:1034D00003208DF81A0006A96848FEF7E5FA0420D3
:1034E000ADF8180003208DF81A0018208DF81B0085
:1034F00006A96248FEF7D8FA26208DF804000020BD
:103500008DF8050001208DF806008DF8070001A850
:10351000FEF76EFB02950020ADF80C00ADF80E0032
:10352000ADF81000ADF814000C20ADF8120002A99F
:103530002046FFF71FFE012240F225512046FFF7EB
:10354000F4FD01212046FFF7ADFD40212046FFF7A5
:1035500091FD8FE04B4884424CD101210820FFF7B8
:10356000DBFB01218804FFF7C7FBE014ADF818006E
:1035700018208DF81B0006A94348FEF795FA201580
:10358000ADF8180003208DF81A0018208DF81B00E4
:1035900006A93D48FEF788FA27208DF80400002090
:1035A0008DF8050001208DF806008DF8070001A8B0
:1035B000FEF71EFB02950020ADF80C00ADF80E00E2
:1035C000ADF81000ADF814000C20ADF8120002A9FF
:1035D0002046FFF7CFFD012240F225512046FFF79C
:1035E000A4FD01212046FFF75DFD40212046FFF7A5
:1035F00041FD3FE0254884423CD101211020FFF7E6
:103600008BFB0121C804FFF777FB2015ADF81800EC
:1036100018208DF81B0003208DF81A0006A91C48FD
:10362000FEF742FAE014ADF8180003208DF81A00F6
:1036300004208DF81B0006A91548FEF735FA4FF453
:10364000E13002900020ADF80C00ADF80E00ADF8AE
:103650001000ADF814000C20ADF8120002A92046AD
:10366000FFF788FD01212046FFF71CFD4021204681
:10367000FFF700FD07B030BD0038014000080140F1
:103680000044004000480040000C0140004C004055
:103690000010014070B504460D460D48844202D129
:1036A0002846FFF775FE0B48844203D12846FFF7F2
:1036B00081FE0CE00848844203D12846FFF78CFEC7
:1036C00005E00648844202D12846FFF74FFE70BD50
:1036D000003801400044004000480040004C0040D9
:1036E00070B506460C46154605E014F8011B304639
:1036F000FFF7D0FF6D1E002DF7D170BD0022827440
:103700007047000010B515210348FCF76EFF034811
:1037100000210160818010BD432000209000002026
:1037200010B500241048807930B1012809D0022852
:103730000CD0032814D10EE00B4800F055F90446D4
:103740000FE0094800F028F904460AE0064800F0B6
:1037500048F9044605E0044800F0E9F8044600E0B2
:1037600000BF00BF204610BD4320002070B50446B6
:1037700000250026267A16B1012E13D111E0002073
:10378000FFF7B4FD0120FFF7B1FD607A20B164219D
:103790000020FFF7CFFD03E064210120FFF7CAFD01
:1037A00001E000E000BF00BF284670BD02460020D7
:1037B000002131B1012905D0022904D0032904D107
:1037C00002E003E002E001E000E000BF00BF70475C
:1037D0002DE9F0410446002500BF00BF00BF677A15
:1037E0004FF4964107FB01F000F0EAFD8046267A8F
:1037F00016B1012E02D100E001E000E000BF00BFE1
:103800002846BDE8F081000008B50024FFF77AFFE4
:1038100015E06A4600210A480068FEF783FB094864
:10382000807C01280BD10748B0F80100122806D18E
:10383000FFF776FF044621460248FFF75FFFE8E7FF
:1038400084000020432000200146002000220A7A44
:1038500012B1012A02D100E001E000E000BF00BF88
:10386000704702460020002131B1012905D002290C
:1038700004D0032904D102E003E002E001E000E00B
:1038800000BF00BF704700002DE9FC5F04464FF009
:10389000000900BFCB4600BF00BF94F809B04FF449
:1038A00096410BFB01F000F08BFD0090E17AA07ACD
:1038B00001EB00200190019800F071FC07460C4AD2
:1038C0000C4B00F07FFC054600F03CFC019094F8A6
:1038D00008A0BAF1000F03D0BAF1010F02D100E045
:1038E00001E000E000BF00BF4846BDE8FC9F0000CB
:1038F0009A999999999909402DE9F0410446002532
:1039000000BF00BF00BF677A4FF4964107FB01F08C
:1039100000F056FD8046267A16B1012E02D100E055
:1039200001E000E000BF00BF2846BDE8F08170B5AF
:10393000044600250026E679F01E072828D2DFE895
:1039400000F004090E13181D22002046FFF72EFF79
:1039500005461EE02046FFF73BFF054619E02046DE
:10396000FFF77FFF054614E02046FFF78DFF054671
:103970000FE02046FFF7C0FF05460AE02046FFF7AC
:1039800063FF054605E02046FFF7F0FE054600E030
:1039900000BF00BF284670BD7CB504460026002548
:1039A000002000900190257A15B1012D15D113E06A
:1039B0008DF8005001208DF8010000208DF80200E4
:1039C0008DF8030015208DF80400E17905236A467F
:1039D000002000F09FFA01E000E000BF00BF304689
:1039E0007CBD014600207047014600207047000062
:1039F0000FB438B5002405A8009080210748009B2B
:103A0000049AFCF793FC04461CB12146034800F0DD
:103A100007F80020009038BC5DF814FBAC000020D3
:103A200070B504460D460CE014F8011B0648FFF77C
:103A300012FC6D1E00BF40210348FFF73FFB00282A
:103A4000F9D0002DF0D170BD0038014070B50546A9
:103A500000242C46FA2C11D11948007870B90120A5
:103A60001749087000201749088008460188008817
:103A7000401C144A1080144844541FE01048007839
:103A800001281BD10F480088012801D10F4804806C
:103A90000C4801880088401C0A4A10800A48445497
:103AA0001046018809480088801C814206D1FFF732
:103AB000AFF90020034908800149087070BD00007B
:103AC000980000209A000020582000209C00002030
:103AD00008B50020009007E06946064800F0EAF9C2
:103AE0009DF80000FFF7B2FF024800F005F800283B
:103AF000F2D108BDA0000020014608884A88904203
:103B000001D1002070470120FCE7000010B500F053
:103B1000A9F900F0A7F8FEF76BF90323044A002186
:103B20000448FEF7EDFAFEF79FFA002010BD0000F2
:103B3000D41F00204140000870B500F03DF81A483D
:103B4000FFF7FAF8184840684FF47A72B0FBF2F1C8
:103B5000B1F1807F00D31DE021F07F40401E4FF087
:103B6000E022506150170F22002807DA13071D0EBC
:103B70000E4B00F00F04241F1D5503E013071C0E0D
:103B80000B4B1C5400BF00204FF0E0229061072037
:103B9000106100BF00F094F8FFF780FB4FF4E131B3
:103BA0000448FFF72BFC70BDC40B002018ED00E0AB
:103BB00000E400E00044004010B500F001F810BD42
:103BC00000B585B001210520FFF7A6F80121880383
:103BD000FFF7A2F84FF48060ADF8100004208DF8D4
:103BE000130003208DF8120004A91C48FDF75CFFA8
:103BF0004FF40070ADF8100003208DF8120018206B
:103C00008DF8130004A91548FDF74EFF4FF4E1307D
:103C100000900020ADF80400ADF80600ADF80800F3
:103C2000ADF80C000C20ADF80A0069460C48FFF70F
:103C3000A1FA012240F225510948FFF776FA012145
:103C40000748FFF72FFA40210548FFF713FA202114
:103C50000348FFF70FFA05B000BD0000000801405F
:103C60000038014010B56FF00400FFF791F91048DB
:103C700000681049B0FBF1F00F4908700C4800686B
:103C80000C49B0FBF1F44FF47A70444301200B4926
:103C900008804FF0E020006940F002004FF0E02182
:103CA000086108464461006940F00100086110BDE8
:103CB0000400002000127A00000000200200002012
:103CC0001CB500BF00BF1DA0FFF792FE00BF00BFE4
:103CD00000BF00BF24A0FFF78BFE00BF00BF00BFE6
:103CE00000BF24A0FFF784FE00BF00BF00BF00BFDD
:103CF0002CA0152100231A46CDE9001001212CA08B
:103D0000FFF776FE00BF00BF00BF00BF0023052203
:103D1000032131A0FFF76CFE00BF00BF00BF00BF52
:103D200039A0FFF765FE00BF00BF00BF00BF41A084
:103D3000FFF75EFE00BF00BF1CBD00002D2D2D2D26
:103D40002D2D2D2D2D2D2D2D2D2D2D2D2D2D2D2DA3
:103D50002D2D2D2D2D2D2D2D2D2D2D2D2D2D2D2D93
:103D60002D2D2D2D2D0000000D0A205C207C202FF4
:103D7000200D0A002D2056443032202D20202020F6
:103D8000553120447269766520426F617264206209
:103D9000792053544D333246313033564554362012
:103DA0000D0A00004170722020332032303234007E
:103DB000202F207C205C2020202020205625642ECF
:103DC00025642E25642E256420206275696C64208C
:103DD0002573200D0A000000202020202020202014
:103DE00020202020537464506572697068205665E5
:103DF0007273696F6E203A205625642E25642E2535
:103E000064200D0A000000002032303139202D20BE
:103E10003230323820436F7079726967687420627B
:103E2000792067656E727569207465616D200D0A71
:103E3000000000002D2D2D2D2D2D2D2D2D2D2D2D66
:103E40002D2D2D2D2D2D2D2D2D2D2D2D2D2D2D2DA2
:103E50002D2D2D2D2D2D2D2D2D2D2D2D2D200D0AE2
:103E60000000000010B54FF4A060FDF7F9FE10BD92
:103E700000240CE00120FEF715FB00F031F9601C76
:103E800084B2B4F5FA7F02D10024FFF725FAF1E7F6
:103E900010B50648FDF7D9FD30B105490348FDF7D7
:103EA000DFFD034800F05EF810BD0000D81F0020C1
:103EB0003220002010B5024610885388984201D164
:103EC000002010BD53889068C05C08705088401C6A
:103ED00050805088938890FBF3F403FB14005080CB
:103EE0000120EEE710B502461088401C5388984226
:103EF00001D1002010BD13889068C1541088401C67
:103F000010801088938890FBF3F403FB140010805A
:103F10000120EFE72DE9F04186B006460F469046B6
:103F20001D46142101A8FCF782FB0024ADF80560B2
:103F30001220ADF8080001208DF80A008DF80B70F2
:103F40008DF8145000BF05E018F8041003A80155BF
:103F5000601CC4B2AC42F7DB01A800F003F806B065
:103F6000BDE8F0812DE9F041044600260025002738
:103F7000A846FA2018490870207CC01D4870607857
:103F80008870E078C87020790871A0794871E0796C
:103F9000887100BF07E004F10800415DE81D0E4A8A
:103FA0001154681CC5B2207CA842F4DC207CC11DE1
:103FB0000948FDF708FE217CC91D074A5054FB2122
:103FC000207C08301154207C00F10902024903488A
:103FD000FFF786FBBDE8F081BC20002000440040D4
:103FE00070B504460D4600261248807C10B1262686
:103FF000012070BDB4F80100122802D0272601204C
:10400000F7E715210B48FCF7F0FA11222146094881
:10401000FCF7A6FA0120074988740846057506488A
:1040200000210160818005480068FDF7F1FF3046FE
:10403000DFE70000432000209000002084000020E3
:1040400030B587B00446002500BFFCF713F90546DC
:10405000FFF772FD0020FDF73FFF1949086006A930
:104060000020FDF793FE17490860FEF721F80320B2
:1040700000214FF40072144BCDE90132CDE9031059
:1040800005200823114A00901148FEF789F8032003
:1040900000214FF480720F4BCDE90132CDE90310BE
:1040A000062009230C4A00900C48FEF779F80320FB
:1040B000FEF7A2F92846FCF7E1F807B030BD000092
:1040C000840000208C000020D80B0020D413002096
:1040D00009380008D8130020D4170020713E0008CA
:1040E00010B5FFF7F5FCFFF7D3FE10BD10B50029A2
:1040F0000AD00878002807D005487844FDF79AF8D8
:10410000002801D0002010BD0248784410BD0000F6
:10411000660500005E05000010B500290AD0087889
:10412000002807D005487844FDF784F8002801D01E
:10413000002010BD0248784410BD00005605000064
:104140004E0500004FEA1153A3F58063D3F11E031F
:10415000A8BFD3F1200C08DB4FF0004242EAC12295
:1041600052EA505232FA03F0704709420BD4102B36
:10417000C4BF0020704703F5787CBCF1FF3F05D039
:104180004FF0FF3070474FF00000704770B500F0FF
:10419000C3F800BF4992248000207047F0E7B0FACE
:1041A00080F310FA03F10AD0C3F11D0303F5806315
:1041B0004FEA41504FEA035202EBD12170474FF0D2
:1041C00000007047DFF848C170B51CEA111E1EBF21
:1041D0001CEA13159EEA0C0F95EA0C0F00F06F8095
:1041E00081EA030423EA4C134EEAD47E21EA4C11FF
:1041F00041F4801143F48013AE44A1FB024CA0FBB8
:104200000365AEF17F7E361955EB0C05A1FB034C1F
:104210004CF10003A0FB021C16EB0C06654153F1A8
:104220000003094218BF46F0010613F4007F0BD1CA
:104230004FEA03314FEA0530340341EA155140EAB1
:1042400016506FF003020AE04FEAC3214FEAC5207F
:10425000F40241EA555140EA56506FF0020202EB77
:104260002E4201EB025585EACE710AD05FEA440C7A
:1042700018BF24F0004450F1000041F1000120EA91
:10428000D47040F2FE7C624500D270BDA84214BFDB
:104290004FF080444FF04044002E08BF0024BEF190
:1042A000806FA8BFA1F1C041BDE8704080F282805C
:1042B0004FF0000001F1C04101F0004170479EEA5B
:1042C0000C0F0CEA131518BF95EA0C0F06D04FF02F
:1042D000000081EA030E0EF0004170BD00F01CF8F2
:1042E0008900013E00F007B800F009B84FEA430C1E
:1042F0005FEA5C5C08D081EA030100F05BB84FEA3A
:10430000410C5FEA5C5CF6D14FF000000149704758
:104310000000FF070000F87F0EF1020E2EF0030EE2
:104320005EF8046B364205D4012A43EB030515F50C
:10433000001F12D8012841EB010C1CF5001F0CD8FE
:104340000ED14FEAD17C15F5001F0CEB4C0C0CF193
:10435000020C08BF4CEBD37C04E04FF0080C01E0EA
:104360004FEAD37C0CEB4C0526FA05F606F007065F
:10437000B6F1040C06D20EEB860CBDE870404CF092
:10438000010C6047DFE80CF0090B02024FF000411E
:104390004FF00000A1F5002170BD1946104601281C
:1043A00051EB010418BFD4F5001484BF002001F0C4
:1043B000004170BD0808A0F500114FEA31017047B7
:1043C00010F0004148BF4042B0FA80F310FA03F207
:1043D000C3F19D030BD051EAC35101EB12205306E8
:1043E00038BF704700F1010008BF20F0010070479E
:1043F000FCF7ACBC0000010002000100030001005A
:10440000020001000400010002000100030001009D
:10441000020001000500010002000100030001008C
:10442000020001000400010002000100030001007D
:10443000020001000600010002000100030001006B
:10444000020001000400010002000100030001005D
:10445000020001000500010002000100030001004C
:10446000020001000400010002000100030001003D
:10447000020001000700010002000100030001002A
:10448000020001000400010002000100030001001D
:10449000020001000500010002000100030001000C
:1044A00002000100040001000200010003000100FD
:1044B00002000100060001000200010003000100EB
:1044C00002000100040001000200010003000100DD
:1044D00002000100050001000200010003000100CC
:1044E00002000100040001000200010003000100BD
:1044F00002000100010000007856341201000A0099
:1045000000001400C80000000100100014000200A8
:10451000050001003F000100010000000100000053
:10452000000001000400010005001800080001005F
:104530000400010001000100800001000C000100E6
:104540000100800001000100010040005400E80368
:104550000100230100001000010008000A00000013
:10456000000000000000C20A040000080000000073
:104570000000000200010000100000000000000028
:10458000000000003031323334353637383941429B
:1045900043444546403058003031323334353637A5
:1045A000383961626364656640307800024000001B
:1045B000000000A00000000005400000000000C84E
:1045C000000000000C4000000000409C00000000C3
:1045D000194000000020BCBE000000003440000074
:1045E000BFC91B8E00000004B5400000504BCFD067
:1045F0006607E2CF010000006C4100003E8251AA34
:10460000DFEEA73401000000D9420000DCB5A0E2D3
:104610003A301F97FFFFFFFFB4450000FD25A0C8FB
:10462000E9A3C14FFFFFFFFFFF3F00000000008034
:1046300000000000FF3F00000000008000000000BC
:104640008C47000800000020AC0000002801000892
:1046500038480008AC0000209C29000044010008F4
:104660001C00000043000000F8FFFFFF0C000000EA
:104670000E0000000F0000002E00000010010000DE
:1046800043000000F8FFFFFF004040404040404032
:104690004040414141414140404040404040404015
:1046A00040404040404040404005020202020202B9
:1046B0000202020202020202022020202020202008
:1046C000202020020202020202029090909090901C
:1046D00010101010101010101010101010101010DA
:1046E000101010100202020202028888888888884E
:1046F000080808080808080808080808080808083A
:104700000808080802020202400000000000000041
:104710000000000000000000000000000000000099
:104720000000000000000000000000000000000089
:104730000000000000000000000000000000000079
:104740000000000000000000000000000000000069
:104750000000000000000000000000000000000059
:104760000000000000000000000000000000000049
:104770000000000000000000000000000000000039
:104780000000000000000000000000000000000029
:1047900000A24A040000000000000000010203041F
:1047A00006070809000000000102030401020304D7
:1047B00006070809020406080000000000000000C7
:1047C00000000000000000000000000000000000E9
:1047D00000000000000000000000000000000000D9
:1047E00000000000000000000000000000000000C9
:1047F00000000000000000000000000000000000B9
:1048000000000000000000000000000000000000A8
:104810000000000000000000000000000000000098
:104820000000000000000000000000000000000088
:0848300000020000E621002057
:04000005080000ED02
:00000001FF
