:020000040800F2
:10000000B8940020CD060008B5060008B706000821
:10001000BB060008BF060008C30600080000000079
:10002000000000000000000000000000C7060008FB
:10003000C90600080000000097550008F1020008FA
:10004000E7060008E7060008E7060008E7060008DC
:10005000E7060008E7060008E7060008E7060008CC
:10006000E7060008E7060008E7060008E7060008BC
:10007000E7060008E7060008E7060008E7060008AC
:10008000E7060008E7060008E7060008E70600089C
:1000900061600008E70600084F600008E7060008F6
:1000A000E7060008E7060008E7060008E70600087C
:1000B0000F720008257200083B720008E70600086E
:1000C000E7060008E7060008E7060008E70600085C
:1000D000E7060008E7060008E7060008E70600084C
:1000E000E7060008E7060008E7060008E70600083C
:1000F000E7060008E7060008E7060008E70600082C
:10010000E7060008E706000851720008E706000845
:10011000E7060008E7060008E7060008E70600080B
:10012000E7060008E7060008E7060008E7060008FB
:1001300000F002F800F090F80AA090E8000C824469
:100140008344AAF10107DA4501D100F085F8AFF246
:10015000090EBAE80F0013F0010F18BFFB1A43F0A5
:100160000103184778DA000098DA0000103A24BF3B
:1001700078C878C1FAD8520724BF30C830C144BF0C
:1001800004680C607047000000230024002500264E
:10019000103A28BF78C1FBD8520728BF30C148BFEA
:1001A0000B6070476E290BF0D88770290CF03581F1
:1001B00066290DF0EB8365290DF0E88367290DF0C2
:1001C000E5836129AFF3008003681B0A28BF41F073
:1001D000800169290BF0968564290BF093857529B8
:1001E0000BF090856F290CF0C28078290CF001810A
:1001F000E9290CF05D80E4290CF05A80F5290CF017
:100200005780EF290CF0BF80F8290CF000810368BB
:10021000DB0928BF41F0800163290CF09983732921
:100220000CF09E83E3290CF0A983F3290CF0AE8334
:10023000002070471FB50CF0FFFB040000200021D8
:100240000DF0F8F8401C6060002000210DF0DCF893
:10025000E0601FBD10B510BD0CF0C0FB1146FFF7EC
:10026000E9FF09F0DEFE0CF09DFC03B4FFF7F2FF9E
:1002700003BC00F0C7F8000010B54FF4A06000F018
:1002800039FB10BD11480078012808D110480078CA
:10029000FF2804D20E480078401C0D4908707047B2
:1002A00010B500240948007801280DD105F04CF95B
:1002B00004460748007820B105480078401E0449EC
:1002C0000870204605F044F910BD000056000020DB
:1002D0004900002010B503F023F810BD10B503F05D
:1002E00064F810BD10B50446204604F071FF10BD3F
:1002F00010B53E480078012805D102F0BEFF03F09A
:1003000002F902F0D5FF10BD10B56FF0040000F047
:1003100040FB374800683749B0FBF1F036490870B8
:10032000334800683349B0FBF1F44FF47A7044432A
:100330000120324908804FF0E020006940F00200BF
:100340004FF0E021086108464461006940F0010077
:10035000086110BD2DE9F047074600264FF0E02068
:10036000D0F814902448007807FB00F800BFFFF78E
:10037000B1FF4FF0E020856911E04FF0E020846983
:10038000AC420CD0AC4202D2281B064403E0A9EBDD
:100390000400284406442546464500D300E0ECE727
:1003A00000BFFFF79BFFBDE8F08770B504460F481C
:1003B0000078A0B11248007888B9104800888442BB
:1003C00006DB0E48008894FBF0F52846FFF78AFF0D
:1003D0000A48008894FBF0F100FB114084B24FF40E
:1003E0007A7104FB01F0FFF7B5FF70BD56000020E5
:1003F0000800002000127A00000000200200002007
:100400004900002000BF704700BF5D4A128802F01B
:100410004002002AF9D0C2B2594B1B1D1A80704706
:1004200000B585B0012144F2040000F0F1FF4FF463
:100430008060ADF8100004208DF8130004A9514825
:1004400000F026FB4FF40070ADF8100003208DF88B
:10045000120018208DF8130004A94A4800F018FB78
:100460004FF4E13000900020ADF80400ADF8060034
:10047000ADF80800ADF80C000C20ADF80A00694694
:100480003F4800F096FC01213D4800F01EFD402150
:100490003B4800F002FE05B000BD10B5FFF7C0FFFD
:1004A00010BD70B504460D4613E000BF402134482E
:1004B00000F0E6FD0028F9D014F8011B304800F0E8
:1004C00071FD6D1E00BF40212D4800F0D9FD0028B0
:1004D000F9D0002DE9D170BD0FB438B5002405A8BE
:1004E000009080212848009B049A0BF0E5FB04460D
:1004F0001CB121462448FFF7D4FF0020009038BCEF
:100500005DF814FB1CB500BF00BF20A0FFF7E4FF9F
:1005100000BF00BF00BF00BF27A0FFF7DDFF00BF87
:1005200000BF00BF00BF27A0FFF7D6FF00BF00BF7E
:1005300000BF00BF2FA0142103230022CDE900102B
:1005400001212FA0FFF7C8FF00BF00BF00BF00BF01
:1005500000230522032134A0FFF7BEFF00BF00BF28
:1005600000BF00BF3CA0FFF7B7FF00BF00BF00BF48
:1005700000BF44A0FFF7B0FF00BF00BF1CBD0000DC
:100580000038014000080140940000202D2D2D2D41
:100590002D2D2D2D2D2D2D2D2D2D2D2D2D2D2D2D8B
:1005A0002D2D2D2D2D2D2D2D2D2D2D2D2D2D2D2D7B
:1005B0002D2D2D2D2D0000000D0A205C207C202FDC
:1005C000200D0A002D204D543032202D20202020D7
:1005D000553120447269766520426F6172642062F1
:1005E000792053544D3332463130335645543620FA
:1005F0000D0A00004D61722020332032303230006D
:10060000202F207C205C2020202020205625642EB6
:1006100025642E25642E256420206275696C642073
:100620002573200D0A0000002020202020202020FB
:1006300020202020537464506572697068205665CC
:100640007273696F6E203A205625642E25642E251C
:1006500064200D0A000000002032303139202D20A6
:100660003230323820436F70797269676874206263
:10067000792067656E727569207465616D200D0A59
:10068000000000002D2D2D2D2D2D2D2D2D2D2D2D4E
:100690002D2D2D2D2D2D2D2D2D2D2D2D2D2D2D2D8A
:1006A0002D2D2D2D2D2D2D2D2D2D2D2D2D200D0ACA
:1006B00000000000704700BFFEE700BFFEE700BF7C
:1006C000FEE700BFFEE7704770470000094880471B
:1006D00009480047FEE7FEE7FEE7FEE7FEE7FEE724
:1006E000FEE7FEE7FEE7FEE704480549054A064B3C
:1006F00070470000EB07000831010008B88A0020AD
:10070000B8940020B88C0020B88C00200CB50020D4
:10071000019000906C48006840F480306A4908609D
:1007200000BF6948006800F4003000900198401C48
:100730000190009818B90198B0F5A06FF1D1624806
:10074000006800F4003010B10120009001E00020AA
:1007500000900098012843D15C48006840F01000E8
:100760005A4908600846006820F0030008600846FF
:10077000006840F0020008605348406852494860F1
:100780000846406848600846406840F48060486019
:100790000846406820F47C1048600846406840F4F1
:1007A000881048600846006840F08070086000BF0C
:1007B0004548006800F000700028F9D042484068C1
:1007C00020F00300404948600846406840F00200BD
:1007D000486000BF3C48406800F00C000828F9D190
:1007E0000CBD10B5FFF792FF10BD10B5364800687C
:1007F00040F0010034490860084640683449084028
:100800003149486008460068324908402E4908606E
:100810000846006820F4802008600846406820F4FC
:10082000FE0048604FF41F008860FFF7DAFF4FF0CA
:1008300000602949086010BD10B500210020002289
:10084000214B5B6803F00C0121B1042906D0082973
:1008500028D107E0214B224C236027E0214B204C7C
:10086000236023E0184B5B6803F47010164B5B6841
:1008700003F48032022303EB904022B91A4B434326
:10088000174C23600DE0104B5B6803F4003323B179
:10089000164B4343124C236003E0124B4343104C6E
:1008A000236003E00D4B0E4C236000BF00BF064BDE
:1008B0005B68C3F303130E4CE15C094B1B68CB4030
:1008C000074C236010BD00000010024000200240D1
:1008D0000000FFF8FFFFF6FE08ED00E000127A00CE
:1008E00008000020001BB70000093D00808D5B0060
:1008F0000C00002031490143314A1160704770B546
:10090000002100230F22C47804B32D4C246804F482
:10091000E064C4F5E064210AC1F10403CA404478EC
:1009200004FA03F18478144021430901254C067828
:10093000A155047804F01F050124AC4005786D1121
:10094000AD0005F1E025C5F8004109E0047804F0A8
:100950001F050124AC401C4D0678761145F8264051
:1009600070BD1A4A0A400243154B1B1F1A6070479C
:1009700039B1134A121D12680243114B1B1D1A6034
:1009800006E00F4A121D126882430D4B1B1D1A60B0
:100990007047042808D14FF0E021096941F00401B3
:1009A0004FF0E022116107E04FF0E021096921F0EA
:1009B00004014FF0E0221161704700000000FA05C9
:1009C0000CED00E000E400E080E100E080FFFF1FAC
:1009D00010B50446CC48844208D10121042000F01F
:1009E00031FD0021042000F02DFD46E0C74884427F
:1009F00008D10121082000F025FD0021082000F089
:100A000021FD3AE0C248844208D10121102000F0C3
:100A100019FD0021102000F015FD2EE0BD48844294
:100A200008D10121202000F00DFD0021202000F040
:100A300009FD22E0B848844208D10121402000F09D
:100A400001FD0021402000F0FDFC16E0B348844287
:100A500008D10121802000F0F5FC0021802000F069
:100A6000F1FC0AE0AE48844207D10121801500F074
:100A7000E9FC0021A01500F0E5FC10BD10B5012136
:100A8000084600F0DFFC0021012000F0DBFC10BD77
:100A90002DE9F04102460025002600200023002415
:100AA000002791F803C00CF00F0591F803C00CF07B
:100AB000100CBCF1000F03D091F802C04CEA050500
:100AC00091F800C0BCF1000F31D0146800202BE079
:100AD0004FF0010C0CFA00F3B1F800C00CEA030669
:100AE0009E4220D183004FF00F0C0CFA03F7BC4359
:100AF00005FA03FC4CEA040491F803C0BCF1280F8A
:100B000006D14FF0010C0CFA00FCC2F814C00AE048
:100B100091F803C0BCF1480F05D14FF0010C0CFA5D
:100B200000FCC2F810C0401C0828D1D31460B1F8F2
:100B300000C0BCF1FF0F34DD546800202EE000F14E
:100B4000080C4FF0010808FA0CF3B1F800C00CEAE9
:100B500003069E4221D183004FF00F0C0CFA03F7DD
:100B6000BC4305FA03FC4CEA040491F803C0BCF151
:100B7000280F05D100F1080C08FA0CF8C2F814800F
:100B800091F803C0BCF1480F07D100F1080C4FF0F9
:100B9000010808FA0CF8C2F81080401C0828CED3CF
:100BA0005460BDE8F0814FF6FF7101800221817031
:100BB0000421C17070470246002093680B400BB1BE
:100BC000012000E0002070470146886880B270472D
:100BD00002460020D3680B400BB1012000E000204A
:100BE00070470146C86880B2704701617047416133
:100BF00070470AB1016100E041617047C160704710
:100C00004FF480320A438261816182618269826924
:100C1000704702460020434B18684FF68073184017
:100C200040EA021008433F4B186070473E49C861D4
:100C30007047F0B50A46002300240021002500F08B
:100C40000046B6F1004F02D1364EF16901E0354E53
:100C50007168C0F3034583B200F44016B6F5401F37
:100C600008D121F070612F4E766826F070662D4F06
:100C70007E6012E000F48016B6F5801F06D10326D0
:100C800006FA05F4A14341F0706106E0460D360115
:100C900003FA06F6B14341F0706122B1460D360108
:100CA00003FA06F6314300F00046B6F1004F02D1D8
:100CB0001C4EF16101E01B4E7160F0BD30B50022A9
:100CC0008B071C0F0F2303FA04F2164B08338C100A
:100CD00053F824309343134C08348D1044F82530D6
:100CE00023468C1053F824308C07240F00FA04F4A8
:100CF00023430C4C08348D1044F8253030BD0A498C
:100D0000DC3108607047000000080140000C014021
:100D1000001001400014014000180140001C014077
:100D200000200140000001400000204210B50446B0
:100D3000FB48844209D10121880300F083FB002194
:100D40004FF4804000F07EFB32E0F648844209D147
:100D50000121480400F083FB00214FF4003000F033
:100D60007EFB25E0F048844209D10121880400F08F
:100D700076FB00214FF4802000F071FB18E0EB4877
:100D8000844209D10121C80400F069FB00214FF41D
:100D9000002000F064FB0BE0E548844208D101210B
:100DA000080500F05CFB00214FF4801000F057FBB9
:100DB00010BD2DE9F04786B005460E460024A24638
:100DC00000BFA1460027B08900B100BF2F462C8A82
:100DD0004CF6FF700440F08804432C82AC894EF638
:100DE000F3100440B08831890843718908430443F3
:100DF000AC81AC8A4FF6FF400440B0890443AC821A
:100E000001A800F098FAC648874202D1DDF810A088
:100E100001E0DDF80CA0A88900F4004040B10AEB25
:100E2000CA0000EB0A1031684900B0FBF1F807E096
:100E30000AEBCA0000EB0A1031688900B0FBF1F838
:100E40006420B8FBF0F004012009642101FB108943
:100E5000A88900F4004040B1322000EBC900B0FB8B
:100E6000F1F000F00700044308E0322000EB091025
:100E70006421B0FBF1F000F00F0004432C8106B0B8
:100E8000BDE8F0874FF41651016000218180C180D8
:100E900001810C21418100218181704710B50246FA
:100EA0000020108A4FF2FF0318400B884C88234320
:100EB0008C882343CC8823431843108210BD002123
:100EC000018041808180C180704721B1828942F4D4
:100ED0000052828104E082894DF6FF731A408281BC
:100EE0007047F0B50346002400260025002040F698
:100EF0006A17B94200D100BF1846C1F3421401F08D
:100F00001F06012707FA06F5012C01D10C3004E079
:100F1000022C01D1103000E014301AB107682F43C1
:100F2000076002E00768AF430760F0BD1AB1838A2B
:100F30000B43838202E0838A8B4383827047028A59
:100F40004FF6F0731A400282028A0A430282704707
:100F500082894FF2FF731A40828182890A4382811B
:100F6000704721B1828942F00202828104E08289C5
:100F70004FF6FD731A4082817047028A4FF6DF7385
:100F80001A400282028A0A430282704721B1028A11
:100F900042F48042028204E0028A4BF6FF731A4058
:100FA00002827047C1F30802828070470146888838
:100FB000C0F308007047818941F0010181817047C9
:100FC000028BD2B20283028B42EA01220283704773
:100FD000028B02F47F420283028B0A430283704732
:100FE00021B1828A42F02002828204E0828A4FF696
:100FF000DF731A408282704721B1828A42F0100268
:10100000828204E0828A4FF6EF731A408282704730
:1010100021B1828A42F00802828204E0828A4FF67D
:10102000F7731A408282704721B1828942F40042EC
:10103000828103E08289C2F30E028281704721B16E
:10104000828A42F40062828204E0828A4FF2FF7355
:101050001A4082827047828A4FF6FB731A4082825E
:10106000828A0A438282704721B1828A42F0020258
:10107000828204E0828A4FF6FD731A4082827047B2
:1010800002460020B1F5007F00D100BF13880B405D
:101090000BB1012000E00020704701F40072B2F5AE
:1010A000007F00D100BFCA430280704770B502467E
:1010B000002400230025002040F66A16B14200D12A
:1010C00000BFC1F3421501F01F03012606FA03F326
:1010D000012D02D19689334006E0022D02D1168AF5
:1010E000334001E0968A33400C12012606FA04F4DC
:1010F0001688344013B10CB1012000E0002070BD0F
:1011000010B50022002340F66A14A14200D100BFAE
:101110000A1201249440A3B2DC43048010BD0000F5
:10112000003801400044004000480040004C0040AE
:1011300000500040DF48006840F00100DD490860D1
:1011400008464068DC490840DA49486008460068BB
:10115000DA490840D74908600846006820F4802032
:1011600008600846406820F4FE0048604FF41F0005
:1011700088607047CF49096821F48031CD4A1160F9
:101180001146096821F480211160B0F5803F03D039
:10119000B0F5802F0ED106E0C649096841F48031D0
:1011A000C44A116007E0C349096841F4A021C14A5B
:1011B000116000E000BF00BF704710B5014600227B
:1011C000002300204A11012A02D1BA4C236806E00C
:1011D000022A02D1B74C236A01E0B64C636A01F0DF
:1011E0001F02012494401C400CB1012000E00020AB
:1011F00010BD38B5002000900024002500BF31202C
:10120000FFF7DBFF05460098401C00900098B0F502
:10121000A06F01D0002DF2D03120FFF7CEFF08B132
:10122000012400E00024204638BD01460020A14AE8
:10123000106820F0F80040EAC10010607047A04933
:1012400008607047024600209A4B586820F47C10D2
:1012500042EA01031843974B586070479849086663
:10126000704701460020934A506820F0030008436D
:10127000506070478F48406800F00C00704701468E
:1012800000208C4A506820F0F000084350607047FE
:1012900001460020874A506820F4E060084350600F
:1012A000704701460020834A506820F4605040EAAD
:1012B000C1005060704729B17E4A527A02437D4B8B
:1012C0005A7204E07B4A527A82437A4B5A727047D0
:1012D0007B49D8310860704701460020754A506844
:1012E00020F440400843506070470021714A20328A
:1012F0001170704A82F82010012802D004280AD107
:1013000004E001216B4A2032117005E00521694A91
:101310002032117000E000BF00BF704769490860CB
:1013200070476449096A0143624A1162704765491E
:1013300044390860704730B50021002200240023A2
:101340005C4D6D6805F00C0121B1042905D0082918
:1013500023D105E05C4D056022E05C4D05601FE097
:10136000544D6D6805F47012524D6D6805F480346B
:10137000022505EB92421CB9554D554305600BE023
:101380004C4D6D6805F400351DB1524D5543056057
:1013900002E04E4D5543056002E04B4D056000BF35
:1013A00000BF444D6D6805F0F00109094A4D6B5CC2
:1013B0000568DD4045603F4D6D6805F4E061090A50
:1013C000454D6B5C4568DD4085603A4D6D6805F4C0
:1013D0006051C90A404D6B5C4568DD40C560354DC4
:1013E0006D6805F44041890B3C4D6B5CC568B5FBED
:1013F000F3F5056130BD29B12E4A526902432D4BE8
:101400005A6104E02B4A526982432A4B5A61704761
:1014100029B1284A92690243264B9A6104E0254A81
:1014200092698243234B9A61704729B1214AD2695C
:101430000243204BDA6104E01E4AD26982431D4B0D
:10144000DA61704729B11B4AD2680243194BDA604E
:1014500004E0184AD2688243164BDA60704729B11B
:10146000144A12690243134B1A6104E0114A1269CB
:101470008243104B1A617047124940390860704727
:101480000F49C86470470B49C87170470948406AE2
:1014900040F0807007494862704701460020054AC5
:1014A00092680A400AB1012000E00020704701491B
:1014B00088727047001002400000FFF8FFFFF6FE40
:1014C000000042428004424200127A00001BB70032
:1014D00000093D00808D5B001C0000202C000020D6
:1014E00010B50446FE48844209D101214806FFF7A1
:1014F000B6FF00214FF00070FFF7B1FF08E00121B7
:101500008806FFF7ACFF00214FF08060FFF7A7FFD0
:1015100010BD30B5024600200023146824F00204F8
:101520001460146844F00104146000E05B1C54680B
:1015300004F001041CB94FF6FF74A342F6D15468BD
:1015400004F001040CB900206CE08C79012C04D16A
:10155000146844F08004146003E0146824F08004EC
:101560001460CC79012C04D1146844F04004146058
:1015700003E0146824F0400414600C7A012C04D1B8
:10158000146844F02004146003E0146824F020047C
:1015900014604C7A012C04D1146844F010041460D7
:1015A00003E0146824F0100414608C7A012C04D138
:1015B000146844F00804146003E0146824F008047C
:1015C0001460CC7A012C04D1146844F00404146033
:1015D00003E0146824F0040414608C78A407CD7828
:1015E00044EA05640D7944EA05444D7944EA05541A
:1015F0000D886D1E2C43D461146824F0010414601E
:10160000002300E05B1C546804F001041CB14FF699
:10161000FF74A342F6D1546804F001040CB1002019
:1016200000E0012030BD10B50021837A012202FACA
:1016300003F1AC4A126842F00102AA4B1A60A94AAF
:101640001C3212688A43A74B1C331A60027BCAB94A
:10165000A44A0C3212688A43A24B0C331A604288A7
:10166000C38842EA03439F4A4032847A42F83430C6
:101670000288838842EA03439A4A4032847A02EB22
:10168000C4025360027B012A19D1964A0C321268B7
:101690000A43944B0C331A604288038842EA03439E
:1016A000904A4032847A42F83430C288838842EAD1
:1016B00003438C4A4032847A02EBC4025360C27AFC
:1016C0003AB9884A121D12688A43864B1B1D1A605C
:1016D00006E0844A121D12680A43824B1B1D1A60E1
:1016E000028932B97F4A143212688A437D4B14331F
:1016F0001A600289012A06D17A4A143212680A4312
:10170000784B14331A60427B012A06D1754A1C3289
:1017100012680A43734B1C331A60724A126822F033
:101720000102704B1A6010BD00218171C1710172FC
:1017300041728172C1728170C170032101710221F5
:1017400041710121018070476649096841F001013A
:10175000644A11601146096843F60E729143614A6A
:1017600011601146096841EA0021116011460968BB
:1017700021F001011160704721B1026842F480320A
:10178000026003E0026822F4803202607047E1B137
:10179000026842F0800202604FF4C272125842F4B2
:1017A00080734FF4C27213504FF4CA72125842F44D
:1017B00080734FF4CA7213504FF4D272125842F42D
:1017C00080734FF4D27213501BE0026822F0800243
:1017D00002604FF4C272125822F480734FF4C27246
:1017E00013504FF4CA72125822F480734FF4CA7225
:1017F00013504FF4D272125822F480734FF4D27205
:101800001350704710B502460020936803F08063C0
:10181000B3F1806F00D110E0936803F00063B3F17F
:10182000006F01D1012008E0936803F08053B3F109
:10183000805F01D1022000E00420042879D002F565
:10184000C07303EB00131B6803F0010402F5C073BF
:1018500003EB00131C600B7A7BB94B7A0C8843EACC
:10186000445302F5C07404EB00142468234302F5CA
:10187000C07404EB0014236010E00B7A4C6843EA58
:10188000C4034C7A234302F5C07404EB00142468AB
:10189000234302F5C07404EB001423608B7A03F039
:1018A0000F038B7202F5C07303EB00135B6823F028
:1018B0000F0402F5C07303EB00135C6002F5C07304
:1018C00003EB00135B688C7A234302F5C07404EBCE
:1018D000001463608B7B1C064B7B44EA034403E0EB
:1018E00000640040006600400B7B44EA0323CC7A8E
:1018F000234302F5C07404EB0014A3608B7C1C0628
:101900004B7C44EA03440B7C44EA0323CC7B234313
:1019100002F5C07404EB0014E36002F5C07303EB3E
:1019200000131B6843F0010402F5C07303EB0013BE
:101930001C6010BD10B50246002321B1012907D05B
:1019400002290FD109E09068F94C00EA04030BE08A
:101950009068F84C00EA040306E09068F64C00EA50
:10196000040301E0002300BF00BFF44C181BA34296
:1019700016D007DC83B16FF08060184470B1022884
:1019800018D111E0B0F5007F10D0ED4C204448B1E3
:10199000B0F5003F0ED10BE002230DE000230BE079
:1019A000002309E0002307E0012305E0012303E011
:1019B000012301E0002300BF00BFD8B210BD21B158
:1019C000012907D002290FD109E0826842F0800284
:1019D00082600AE0826842F40042826005E0826828
:1019E00042F40002826000E000BF00BF704710B503
:1019F00000F5D87303EB01131B6803F004031372A3
:101A0000137A53B900F5D87303EB01131B6840F246
:101A1000FF7404EA5353136009E000F5D87303EB35
:101A200001131B686FF0604404EAD303536000F5B0
:101A3000D87303EB01131B6803F00203537200F524
:101A4000D87303EB01135B6803F00F03937200F587
:101A5000D87303EB01135B681B0AD37400F5D873CA
:101A600003EB01139B68D37200F5D87303EB0113EA
:101A70009B681C0A147300F5D87303EB01139B6871
:101A80001C0C547300F5D87303EB01139B681B0EF9
:101A9000937300F5D87303EB0113DB68D37300F580
:101AA000D87303EB0113DB681C0A147400F5D873B8
:101AB00003EB0113DB681C0C547400F5D87303EBC3
:101AC0000113DB681B0E937421B9C36843F0200334
:101AD000C36003E0036943F02003036110BD21B933
:101AE000C26842F02002C26003E0026942F02002B4
:101AF000026170470246002019B9D36803F0030061
:101B000006E0012903D1136903F0030000E000207F
:101B1000704710B502460B4600204FF6FF71BBB967
:101B2000146824F0020444F00104146000E0491E2B
:101B3000546804F00304012C01D00029F7D1546843
:101B400004F00304012C01D0002032E0012030E039
:101B5000012B13D1146824F00304146000E0491E23
:101B6000546804F003040CB10029F8D1546804F05F
:101B700003040CB100201CE001201AE0022B17D155
:101B8000146824F0010444F00204146000E0491ECB
:101B9000546804F00304022C01D00029F7D15468E2
:101BA00004F00304022C01D0002002E0012000E038
:101BB000002010BD014600200A6822F0010242F018
:101BC00002020A604A6802F00302022A00D10120E0
:101BD000704701464FF6FF7200200B6823F00203A6
:101BE0000B6000E0521E4B6803F00203022B01D190
:101BF000002AF7D14B6803F00203022B00D001202A
:101C00007047014600208A6902F070007047014663
:101C100000208A69100E7047014600208A69C2F3CD
:101C2000074070471AB143690B43436102E04369BF
:101C30008B434361704710B50246002001F47003E6
:101C400043B19369C1F3130423400BB101202DE08C
:101C500000202BE001F0807343B15368C1F31304FB
:101C600023400BB1012021E000201FE001F00063C0
:101C700043B19368C1F3130423400BB1012015E075
:101C8000002013E001F0007343B1D368C1F31304E3
:101C900023400BB1012009E0002007E01369C1F3E4
:101CA000130423400BB1012000E0002010BD0022EE
:101CB000244B994202D10023836111E0C1F3130246
:101CC00001F000730BB1C2600AE001F080630BB158
:101CD000026105E001F000630BB1826000E0426048
:101CE00070470246002002EA01030BB1012000E028
:101CF0000020704770B504460D46002660692840F4
:101D0000002872D0B5F5807F69D01DDC082D42D047
:101D100006DC012D2DD0022D31D0042D7FD134E0F1
:101D2000102D3ED0202D42D0402D78D145E000002E
:101D30000300000400030008000003100001000875
:101D40000001FFF77000F030B5F5004F61D009DCFD
:101D5000B5F5007F4AD0B5F5806F4DD0B5F5006F71
:101D60005DD150E0B5F5803F2DD0B5F5003F56D19F
:101D70002FE0A0685549FFF7B4FF064651E0E06840
:101D80000321FFF7AEFF06464BE0E0680821FFF7AE
:101D9000A8FF064645E0E0681021FFF7A2FF0646CF
:101DA0003FE020690321FFF79CFF064639E02069E8
:101DB0000821FFF796FF064633E020691021FFF760
:101DC00090FF06462DE060680821FFF78AFF06466F
:101DD00027E060681021FFF784FF064621E0A06934
:101DE0000121FFF77EFF06461BE01BE0A0690221F0
:101DF000FFF777FF064614E0A0690421FFF771FFA3
:101E000006460EE00BE0A0697021FFF76AFF064668
:101E100007E060680421FFF764FF064601E0002642
:101E200000BF00E00026304670BDB1F5007F3AD01B
:101E30000FDC202928D006DC01291CD004291DD064
:101E4000082940D11DE0402921D0B1F5807F3AD149
:101E500026E0B1F5004F31D006DCB1F5806F25D01A
:101E6000B1F5006F2FD124E0B1F5803F12D0B1F56C
:101E7000003F28D111E0154A826025E00822C260A7
:101E800022E01022C2601FE0082202611CE0102242
:101E9000026119E00822426016E01022426013E05D
:101EA0000422426010E0042242600DE004224260FD
:101EB0000AE0002282610422426005E00022826181
:101EC0000422426000E000BF00BF70470101010032
:101ED00010B50446BE48844208D101218014FFF7A2
:101EE000B1FA0021A014FFF7ADFA16E0B948844218
:101EF00008D101210014FFF7B2FA00212014FFF7E6
:101F0000AEFA0AE0B448844207D10121C013FFF7BA
:101F1000A6FA0021E013FFF7A2FA10BD10B50022C7
:101F2000028802F441520B884C8823438C88234357
:101F3000CC8823430C8923434C8923438C89234336
:101F4000CC8923431A430280838B4FF2FF742340D2
:101F500083830B8A038210BD2DE9F04F85B00546BF
:101F60000C464FF0000902274FF000084FF0010B1C
:101F70000026B246A88B4FF240010840A8830220F9
:101F80002884B5F81C90A068022801D100BF38E071
:101F9000A08810B94FF0010B01E04FF0020B8D4803
:101FA000854200D100E000BF6846FFF7C4F9DDF8C4
:101FB00000A0E088B0F5007F0AD14FEA1A2000EBBC
:101FC00080004000A168B0FBF1F0401D86B20BE03C
:101FD0004FEA4B10BAFBF0F000EB80004000A16824
:101FE000B0FBF1F0401D86B20A20B6FBF0F606F019
:101FF0000108A6EB0800C0F34F074FF6FF7000EA98
:102000000828022F01DBFF2F02DD02274FF0000816
:10201000E08840EA080038432884A088A189084362
:10202000618808432188084340F4006040EA0909B8
:10203000A5F81C9005B0BDE8F08F0021018041801B
:102040008180C180018141818181C181072101821B
:1020500070470021018041808180C1800221816020
:1020600000218181704721B1028842F04002028044
:1020700004E002884FF6BF731A400280704721B116
:10208000828B42F48062828304E0828B4FF6FF33BE
:102090001A408283704730B5002400230C110125BB
:1020A000A540ABB21AB185881D43858002E08588C2
:1020B0009D43858030BD1AB183880B43838002E045
:1020C00083888B438380704781817047014688896C
:1020D00070474FF6FF62914204D0028842F480724A
:1020E000028004E002884FF6FF631A4002807047C6
:1020F00021B1828842F00402828004E082884FF697
:10210000FB731A408280704702884FF2FF731A40B7
:10211000028002880A4302807047018841F480519E
:102120000180704721B1028842F40052028004E02D
:1021300002884DF6FF731A40028070470246002065
:10214000012901D0108B00E0908A70470146088A6F
:102150007047B1F5804F04D1028842F4804202807A
:1021600004E002884BF6FF731A4002807047024673
:10217000002013890B400BB1012000E000207047C4
:10218000CA4302817047F0B50246002000240023B4
:10219000002501F00F070126BE40B4B20B11012645
:1021A0009E40B3B2968806EA03051689264016B10A
:1021B0000DB1012000E00020F0BD10B5002201F0BB
:1021C0000F040123A3409AB2D343038110BD000042
:1021D0000030014000380040003C004010B504468B
:1021E000FE48844208D10121C014FFF72BF90021D9
:1021F000E014FFF727F9C4E0B4F1804F08D10121C2
:102200000846FFF72CF900210120FFF728F9B8E074
:10221000F348844208D101210220FFF720F9002170
:102220000220FFF71CF9ACE0EE48844208D10121FE
:102230000420FFF714F900210420FFF710F9A0E0B3
:10224000E948844208D101210820FFF708F900215C
:102250000820FFF704F994E0E448844208D1012102
:102260001020FFF7FCF800211020FFF7F8F888E0B5
:10227000DF48844208D101212020FFF7F0F8002137
:102280002020FFF7ECF87CE0DA48844208D10121F5
:102290004014FFF7D7F800216014FFF7D3F870E07F
:1022A000D548844209D10121C804FFF7CBF80021A9
:1022B0004FF40020FFF7C6F863E0D048844209D10C
:1022C00001210805FFF7BEF800214FF48010FFF749
:1022D000B9F856E0CA48844209D101214805FFF700
:1022E000B1F800214FF40010FFF7ACF849E0C54801
:1022F000844208D101214020FFF7B1F8002140209D
:10230000FFF7ADF83DE0C048844208D101218020AC
:10231000FFF7A5F800218020FFF7A1F831E0BB48C6
:10232000844208D101218015FFF799F80021A015FA
:10233000FFF795F825E0B648844209D10121080449
:10234000FFF780F800214FF48030FFF77BF818E0AA
:10235000B048844209D101214804FFF773F80021F5
:102360004FF40030FFF76EF80BE0AB48844208D121
:1023700001218804FFF766F800214FF48020FFF761
:1023800061F810BD00220288944B98420ED0994B00
:1023900098420BD0B0F1804F08D0914B984205D0B5
:1023A000904B984202D0904B984204D14FF68F73D5
:1023B0001A404B881A438D4B984207D08C4B984259
:1023C00004D04FF6FF431A40CB881A4302808B8813
:1023D00083850B880385814B98420BD0854B9842AF
:1023E00008D08B4B984205D08A4B984202D08A4B3A
:1023F000984201D10B7A038601238382704770B51E
:10240000002400220023058C4FF6FE76354005841B
:10241000028C8388048B4FF68F752C40B51E2C40A0
:102420000D882C43751E2A400D892A434D882A4366
:102430006A4DA8420BD06F4DA84208D0744DA842F7
:1024400005D0744DA84202D0734DA84213D14FF667
:10245000F7752A404D892A434FF6FB752A408D882F
:102460002A434FF6FF652B404FF6FF552B408D89D1
:102470002B43CD892B4383800483CD8885860284BA
:1024800070BD70B5002400220023058C4FF6EF7656
:1024900035400584028C8388048B48F6FF752C40F8
:1024A0004FF6FF452C400D884FF6FF7606EA0525CE
:1024B0002C434FF6DF752A400D8906EA05152A439D
:1024C0004D8806EA05152A43444DA84202D0494DDD
:1024D000A8421DD14FF67F752A404D894FF6FF76F1
:1024E00006EA05152A434FF6BF752A408D8806EA8D
:1024F00005152A434FF6FF352B404FF2FF752B4051
:102500008D8906EA85052B43CD8906EA85052B438F
:1025100083800483CD880587028470BD70B5002454
:1025200000220023058C4FF6FF6635400584028C9F
:102530008388848B4FF68F752C404FF6FC752C40AA
:102540000D882C434FF6FF552A400D894FF6FF7634
:1025500006EA05252A434D8806EA05252A431F4D2C
:10256000A84202D0234DA8421DD14FF2FF752A4048
:102570004D894FF6FF7606EA05252A434FF6FF35CB
:102580002A408D8806EA05252A434EF6FF752B4022
:102590004DF6FF752B408D8906EA05152B43CD8935
:1025A00006EA05152B4383808483CD8885870284C2
:1025B00070BD70B5002200230024058C4EF6FF7616
:1025C00035400584038C8488828B48F6FF752A4049
:1025D0004FF6FF452A400D8820E00000002C014006
:1025E0000004004000080040000C004000100040C3
:1025F0000014004000340140004C014000500140F4
:102600000054014000180040001C00400020004021
:102610000040014000440140004801404FF6FF7671
:1026200006EA05252A434DF6FF752B400D8906EA7B
:1026300005352B434D8806EA05352B43FA4DA84254
:1026400002D0FA4DA84208D14BF6FF752C408D8977
:102650004FF6FF7606EA85152C4384808283CD8869
:10266000A0F84050038470BD828B4FF2FF331A40B4
:102670008283828B4FF6FF7303EA01231A4382831E
:102680007047F0B50C461546002200210026078C45
:102690004EF6FF7C07EA0C070784828B018C4FF60D
:1026A000FF7707EA043640F6FF473A404FF6FF77D8
:1026B00007EA05273A434FF6FF7707EA03373A431D
:1026C000D94FB8420ED0D94FB8420BD0B0F1804F9D
:1026D00008D0D74FB84205D0D64FB84202D0D64F17
:1026E000B84206D14DF6FF77394046F4805739435A
:1026F00005E047F6FF57394044F480573943828359
:102700000184F0BD828B4FF6F3731A408283828B73
:102710000A4382837047F0B50C461546002200211B
:102720000026078C4FF6FF6C07EA0C070784828BA4
:10273000018C4FF6FF7707EA04264FF60C773A40F4
:102740004FF6FF7707EA03172F433A43B64FB842D5
:102750000ED0B64FB8420BD0B0F1804F08D0B44F76
:10276000B84205D0B34FB84202D0B34FB84206D1F9
:102770004FF6FF57394046F48077394305E04FF272
:10278000FF57394044F48077394382830184F0BD98
:10279000028B4FF2FF331A400283028B4FF6FF7316
:1027A00003EA01231A4302837047F0B50C4615462D
:1027B000002200210026078C4FF6EF7C07EA0C0769
:1027C0000784028B018C4FF6FF7707EA041640F668
:1027D000FF473A404FF6FF7707EA03373A434FF691
:1027E000FF7707EA05273A438F4FB8420ED08F4F45
:1027F000B8420BD0B0F1804F08D08D4FB84205D011
:102800008C4FB84202D08C4FB84206D14FF6DF77DA
:10281000394046F01007394305E04FF65F773940FD
:1028200044F01007394302830184F0BD028B4FF658
:10283000F3731A400283028B0A4302837047F0B598
:102840000C46154600220021068C4FF6FE773E40CE
:102850000684028B018C4FF60C7632407E1C06EA11
:1028600003162E433243704EB0420ED06F4EB0422C
:102870000BD0B0F1804F08D06D4EB04205D06D4EF8
:10288000B04202D06C4EB04206D14FF6FD763140D8
:1028900044F00106314305E04FF6F576314044F04F
:1028A0000106314302830184F0BD70B505460C4634
:1028B0005D4885420ED05D4885420BD0B5F1804F12
:1028C00008D05B48854205D05A48854202D05A4814
:1028D000854200D100E000BF208850B92389A2883A
:1028E00061882846FFF7ABFFE1882846FFF79EFF87
:1028F00025E0208804280AD12389A28861882846F7
:10290000FFF753FFE1882846FFF742FF17E02088D2
:1029100008280AD12389A28861882846FFF7FBFE90
:10292000E1882846FFF7EEFE09E02389A288618846
:102930002846FFF7A6FEE1882846FFF795FE70BD02
:102940002DE9F04105460C4600260127608808B9AC
:10295000022600E00026A088012801D1022700E01D
:1029600001272088A0B92389A28861882846FFF71B
:1029700066FFE1882846FFF759FF23893A4631462A
:102980002846FFF712FFE1882846FFF701FF13E012
:102990002389A28861882846FFF707FFE188284637
:1029A000FFF7F6FE23893A4631462846FFF747FFF0
:1029B000E1882846FFF73AFFBDE8F0810A884B8896
:1029C0001A438B881A43CB881A430B891A434B89C5
:1029D0001A438B891A43A0F8442070474FF6FF71C1
:1029E000818000210180C1804180017270470021F7
:1029F000018041808180C180018141818181C181CB
:102A00007047002101804180012181800021C18027
:102A1000018170470021018041808180C180018156
:102A20004181818170470000002C01400034014049
:102A30000004004000080040000C004021B1028862
:102A400042F00102028004E002884FF6FE731A4051
:102A50000280704731B1B0F8442042F40042A0F83F
:102A6000442005E0B0F84420C2F30E02A0F8442050
:102A700070471AB183890B43838102E083898B43BA
:102A8000838170478182704741EA0203A0F8483091
:102A900070471AB183890B43838102E083898B439A
:102AA0008381704701894FF6F872114001817047A8
:102AB0000A46002101894FF68F73194011430181A5
:102AC000704730B504460D4629462046FFF7F0FF13
:102AD000208940F00700208130BD2DE9F0410446F7
:102AE0000D4616461F46602D06D13B460122314653
:102AF0002046FFF75AFE05E03B46012231462046BC
:102B0000FFF79DFE29462046FFF7D2FF208940F0BF
:102B100007002081BDE8F08130B50C460021018915
:102B2000C9B24FF6FF7505EA03251543254329432E
:102B3000018130BD2DE9F04105460E461746984605
:102B4000002443463A4631462846FFF7E5FF2C89E4
:102B50004FF6F870044044F007044FF68F700440BD
:102B600044F070042C81BDE8F081F0B504460D46B8
:102B700016461F463B46324629462046FFF7CCFF05
:102B8000208940F480402081F0BD01858282704719
:102B90000A46002101884FF68F73194011430180C6
:102BA0007047F0B50C4615461E4600210022002352
:102BB0000189028B038C4FF6F877394021434FF699
:102BC000FC473A4040F201173A434FF6DD773B406D
:102BD0004FF6FF7707EA06172F433B430181028335
:102BE0000384F0BD0A460021018B4FF68F73194014
:102BF0001143018370470A460021018B48F6FF7399
:102C000019404FF6FF7303EA02231943018370470B
:102C10000A460021818B4FF68F731940114381833F
:102C200070470A460021818B48F6FF7319404FF622
:102C3000FF7303EA022319438183704721B102889D
:102C400042F08002028004E002884FF67F731A404F
:102C50000280704721B1828842F00402828004E041
:102C600082884FF6FB731A408280704721B18288B8
:102C700042F00802828004E082884FF6F7731A401F
:102C80008280704721B1828842F00102828004E094
:102C900082884FF6FE731A40828070470A460021F0
:102CA000018B4FF6F77319401143018370470A46B1
:102CB0000021018B4FF2FF7319404FF6FF7303EAB7
:102CC00002231943018370470A460021818B4FF686
:102CD000F77319401143818370470A460021818BA5
:102CE0004FF2FF7319404FF6FF7303EA02231943B3
:102CF000818370470A460021018B4FF6FB73194010
:102D00001143018370470A460021018B4FF6FF33C0
:102D100019404FF6FF7303EA0223194301837047FA
:102D20000A460021818B4FF6FB73194011438183C2
:102D300070470A460021818B4FF6FF3319404FF64A
:102D4000FF7303EA02231943818370470A46002177
:102D5000018B4FF67F7319401143018370470A4678
:102D60000021018BC1F30E014FF6FF7303EA02232A
:102D70001943018370470A460021818B4FF67F7308
:102D800019401143818370470A460021818BC1F3AA
:102D90000E014FF6FF7303EA022319438183704744
:102DA0000A460021018C4FF6FD731940114301843E
:102DB00070470A460021018C4FF6F7731940114302
:102DC000018470470A460021018C4FF6DF731940D9
:102DD0004FF6FF7303EA02131943018470470A4652
:102DE0000021018C4FF67F7319404FF6FF7303EA01
:102DF00002131943018470470A460021018C4FF6E3
:102E0000FF5319404FF6FF7303EA0223194301846D
:102E100070470A460021018C4FF2FF7319404FF6AC
:102E2000FF7303EA02231943018470470A46002115
:102E3000018C4DF6FF7319404FF6FF7303EA02331E
:102E400019430184704730B5002301248C40A3B29C
:102E5000048C9C430484048C02FA01F5ADB22C432B
:102E6000048430BD30B5002304248C40A3B2048C0C
:102E70009C430484048C02FA01F5ADB22C43048413
:102E800030BD70B5034600200024184618300125D7
:102E90008D40ACB21D8CA5431D8409B1082909D110
:102EA00000EB6100056825F07005056005681543B5
:102EB00005600EE00D1FC5F34E052844056825F496
:102EC000E045056005684FF6FF7606EA02263543C1
:102ED000056070BD21B1028842F00202028004E068
:102EE00002884FF6FD731A400280704721B10288B4
:102EF00042F00402028004E002884FF6FB731A409D
:102F00000280704721B1828842F08002828004E012
:102F100082884FF67F731A408280704702884FF68E
:102F2000F7731A40028002880A4302807047828841
:102F30004FF68F731A40828082880A4382807047DE
:102F400002894FF6F8731A40028102890A4302810E
:102F5000704702894FF67F731A40028102890A4343
:102F600002817047818470478185704781867047F0
:102F70000187704781877047A0F84010704702882A
:102F80004FF6FF431A40028002880A4302807047CE
:102F90000146888E70470146088F70470146888F2A
:102FA00070470146B1F8400070470146888C704771
:102FB0000146088D704702460020138A0B400BB172
:102FC000012000E000207047CA430282704730B5FC
:102FD0000246002000230024158A05EA0103958992
:102FE00005EA010413B10CB1012000E0002030BD5E
:102FF000CA430282704700007CB5002514E0694690
:10300000284601F0DBFF064666B9F84850F825402F
:1030100044B1012C06D0D4E9020100EB81006064C8
:103020000198A064681CC5B23F2DE8D97CBD00247E
:1030300000BF02E0C82002F0CBF8ED48007800287D
:10304000F8D0EC4800686421B0FBF1F0E949086071
:103050000846006828B90020E7490870FF2001F001
:10306000EFFF00BF02F070FA0446E4480068E4494C
:1030700008600020E1490860204602F069FAE04853
:103080000068DC490968B0FBF1F0C0F16400DA497E
:10309000087002F07AF9FFF7AFFF642002F098F8A9
:1030A000E0E700B587B0032000218022D54BCDE9B1
:1030B0000132CDE903104FF6FE703E23D24A009054
:1030C000AFF2950001F093FD06AAD0A13E2001F0D9
:1030D000F7FE07B000BD002400BF00BF02F034FAC5
:1030E0000446C6480068401CC4490860204602F0F7
:1030F0002FFA02F049F9F1E700B587B0032000216B
:103100008022C64BCDE90132CDE903104FF6FF70A6
:103110003F23C34A0090AFF2410001F068FD06AAC8
:10312000C0A13F2001F0CCFE07B000BD04E00022AA
:1031300000F8012B4A1E91B20029F8D1704770B5F2
:10314000C821BC48FFF7F2FF00230FE0581C85B2EE
:1031500003EB8300B74901EB800405EB850001EB2D
:103160008006002020706660581C83B2092BEDD3C6
:1031700003EB8300AF4901EB800400202070606006
:103180000846AD49086070BD70B54FF47C71AB481E
:10319000FFF7CCFF4FF480719448FFF7C7FF00247E
:1031A00013E0601CC5B2C4EBC40000EB4000A349AF
:1031B00001EB8003C5EBC50000EB400001EB80068E
:1031C0005E619FA0D864601CC4B20B2CE9D3C4EB31
:1031D000C40000EB4000994901EB800300205861D6
:1031E00097A0D864002097490860944896490860E1
:1031F00070BD0021954A1170002004E00021944A1E
:103200001154411CC8B20828F8D30021914A11700A
:10321000914A1170914A1160914A116070470020E3
:10322000904908609049087090490870904908706A
:1032300090490870904908607049086070490860BA
:103240006C4908606A490870704710B502F098F838
:10325000FFF7E5FFFFF7CDFFFFF796FFFFF76FFFE3
:1032600000F0ECFE01F0E3F9FFF746FFFFF719FF6E
:1032700002F087F802F0DCF810BD7E4800780128E3
:1032800008D179480078FF2804D277480078401C9C
:1032900075490870704779496C4A1278885C6C49A6
:1032A000095C764A515C01EBC0016B4A11707047B2
:1032B00010B500246F480078012830D102F044F99D
:1032C00004466948007820B167480078401E664986
:1032D000087065480078F8B964480078E0B9FFF7ED
:1032E000DAFF42485C49097850F821005B490860E0
:1032F000594800785749097888420DD057480068E6
:10330000806B401C5549096888635B480068401C15
:103310005949086002F037F9204602F019F910BD4A
:1033200010B5002453480078012811D102F00CF99F
:1033300004464D48007840B94C480078FF2804D234
:103340004A480078401C49490870204602F000F9BC
:1033500010BD10B5002402F0F7F80446424800788A
:10336000F8B942480078E0B9FFF795FF1F483A499D
:10337000097850F821003949086037480078354904
:10338000097888420DD035480068806B401C33496D
:103390000968886338480068401C3749086002F0B3
:1033A000EBF8204602F0D4F810BD10B500243148E7
:1033B000007801286FD102F0C7F804462B48007846
:1033C00080B12A480078401E2849087008460078D5
:1033D00048B92548007838B9204602F0B9F8FFF717
:1033E000B8FF58E054E04FE04AE000002C0600200F
:1033F00048000020400000203C0000205800002031
:10340000440000202C0200202804002075432F4F88
:10341000532D494920537461740000002C0400208E
:103420002806002075432F4F532D49492049646CCD
:103430006500000014010020340000202C0700204B
:103440003F00000068000020600000204D000020C8
:103450004E0000204B0000204C00002064000020A3
:103460005C00002074000020490000204A00002079
:1034700057000020560000203000002090D900089E
:10348000204602F065F806E0204602F061F802E00E
:10349000204602F05DF810BD10B5EB48007890B9F9
:1034A000FFF7F9FEE9480078E9490870E948E7497B
:1034B000097850F82100E849086008460068E749A3
:1034C000086002F048F810BD10B50024022001F099
:1034D0007FFE02F039F804460020E14908602046EA
:1034E00002F036F8642001F073FE02F02DF8044675
:1034F000DB480068DB4908600120DB490870204692
:1035000002F026F810BD70B5002601F08EFF02F023
:103510001BF80646D5480068401CD4490860304670
:1035200002F016F8C8480078012853D1D048007836
:1035300020B1012804D0022809D103E001250BE0C5
:10354000002509E001250120C949087004E0012592
:103550000020C749087000BF00BF05B970BDC5484D
:10356000046833E001F0F0FF0646E06A50B3E06A19
:10357000401EE062E06A28BB94F8300000F037009B
:1035800040B114F8300F00F0C800207001206070C6
:10359000303C02E0002084F8310094F8300000F064
:1035A000080078B93434A078B34909780843B2499F
:1035B00008702078B149085C6178084314F8341920
:1035C000AE4A50546469304601F0C2FF94F83200AC
:1035D0003F28C7D100BFC1E740F2231070477047B2
:1035E00010B590F8342001F10B039B5C90F8354046
:1035F000A34301F10B04A35423469B5C23B98B7AAC
:1036000090F83640A3438B7210BD2DE9F04F05466C
:103610000F4690469946A87A99490E5C05F10B0031
:10362000805D11F800B00BEBC60000F0FF0A89487E
:1036300050F82A4000202034E0602760207C20EAF7
:103640000800207484F81190207C203C00F00800D1
:1036500068B994F8360088490978084386490870A3
:103660008648805D94F8351008438449885529467A
:103670002046FFF7B5FF5046BDE8F08F10B5774AFA
:103680001268D061754A126892F8343000F10B026A
:10369000D25C724B1B6893F835301A436F4B1B6832
:1036A00093F8344000F10B031A55827A6B4B1B6878
:1036B00093F836301A438272684A126892F83410CE
:1036C0006E4A525C654B1B6893F835309A436B4BDE
:1036D0005A541A46525C42B9604A126892F836301F
:1036E000654A12789A43644B1A7010BD0146002255
:1036F0008A72002005E0002301F10B021354421CE2
:10370000D0B20828F7D3704705E011F8013B00F864
:10371000013B531E9AB2002AF7D1704701460020A0
:1037200002E0491C421CD0B20A78002AF9D1704745
:103730002DE9F84F05460F4690469946DDE90AAB5C
:103740000020009001F000FF00904E480468002C1B
:1037500075D0183454F8040C4A490860009801F0F8
:10376000F7FE44F8187CA57600202076607660612C
:1037700044F814BC44F80CAC44F8108C0C9824F8B1
:10378000080C24F8069C0020E077E810207705F06C
:103790000700E076217F01208840A077E17E0120AC
:1037A0008840607700206060E060A0602062A062D6
:1037B0006062E0622063AFF278306063183C0026FC
:1037C00006E0002104F1500040F82610701CC6B23B
:1037D000002EF6D0204601F027FE204601F0D2FD53
:1037E00001F0B2FE00901B4840F8254021480068D7
:1037F00060610020A0611F48006810B11D4800688A
:1038000084611C4804603434A0781B49097808435B
:103810001949087020781949085C6178084314F840
:103820003419164A505418480078401C164908703C
:10383000009801F08DFE0020BDE8F88FFFE70098AA
:1038400001F086FE4220F7E7560000204C000020E1
:103850004B0000202C060020640000205C000020AB
:103860005800002040000020480000207400002084
:103870006C000020680000204D0000204E00002059
:1038800090D9000860000020570000202DE9F05F6B
:1038900004460F4691461E464FF0000B207805283F
:1038A00004D0012030700020BDE8F09F09F0800AAC
:1038B000BAF1000F04D029F080094FF0010801E0AF
:1038C0004FF000080020307001F03EFE8346B9F151
:1038D000000F2CD0B9F1010F3BD0B9F1020F03D08A
:1038E000B9F1030F46D111E0208900EA0705BD4276
:1038F00006D1B8F1010F05D12089A843208101E04C
:1039000070203070584601F023FE3AE0208900EA2A
:10391000070535B1B8F1010F05D12089A8432081F1
:1039200001E070203070584601F012FE29E0208935
:1039300027EA0005BD4206D1B8F1010F05D1208963
:103940002843208101E070203070584601F000FECD
:1039500017E0208927EA000535B1B8F1010F05D13C
:1039600020892843208101E070203070584601F002
:10397000EFFD06E0584601F0EBFD00256F203070AA
:1039800000BF00BF28468FE72DE9F04106460D46EF
:103990000027FA48007820B1102028700020BDE8E8
:1039A000F08101F0D1FD0746F548046884B1006854
:1039B0004068F3490860052020702681002060607F
:1039C000F0A0E060384601F0C3FD0020287004E05C
:1039D000384601F0BDFD722028702046DFE730B583
:1039E00001464A6808682AB9CC68606028B1002599
:1039F000456002E0106000B142608B6800255D62A6
:103A000030BDF0B506460F46B4680020283460602B
:103A10002780207A00F0DF00207200206072207A78
:103A2000283C88B93434A078D74909780843D64966
:103A300008702078D549085C6178084314F8341977
:103A4000D24A5054012500E000253046FFF7C7FF59
:103A50002846F0BD2DE9F0470446894615464FF04B
:103A6000000AC648007820B10F2028702046BDE823
:103A7000F0872078052803D0012028702046F6E73B
:103A800001F062FD8246606808B1012700E000276E
:103A9000B9F1000F03D0B9F1010F3CD119E08FB992
:103AA000B8A0E06000202070B54800686060002089
:103AB0002081B3480460504601F04AFD0020287080
:103AC000002605E0504601F043FD492028702646B7
:103AD00028E0D4F8048005E000214046FFF791FF7C
:103AE000D8F80080B8F1000FF6D1A6A0E060002061
:103AF0002070A3480068606000202081A048046016
:103B0000504601F025FD012F01D1FFF722FC0020D6
:103B10002870002606E0504601F01AFD07202870A4
:103B2000264600BF00BF3046A1E72DE9F04105461B
:103B30000E46144600279148007820B111202070CD
:103B40000020BDE8F08101F0FFFC07462878052839
:103B500006D0384601F0FCFC012020700020F0E780
:103B6000E86830603068FFF7D9FD8046384601F0DC
:103B7000EFFC002020704046E3E72DE9F0410546C8
:103B80000E46144600277D48007818B11220207098
:103B9000BDE8F08101F0D8FC07462878052805D05B
:103BA000384601F0D5FC01202070F1E7EE60384680
:103BB00001F0CEFC0020207000BFE9E7F0B514460C
:103BC000059E734F3F6897F8307047F02007DFF885
:103BD000C0C1DCF800C08CF830700027DFF8B0C13D
:103BE000DCF800C08CF83170694F3F68FE62684FA6
:103BF0003F6879620C828B74654F3F688F604768BD
:103C00000F6000274F60C860456805B1696041607A
:103C10005F4F3F6897F834205C4FBF5CDFF870C19E
:103C2000DCF800C09CF835C027EA0C07DFF85CC15F
:103C30000CF802706746BF5C5FB9554F3F6897F854
:103C400036C0514F3F7827EA0C07DFF83CC18CF8AB
:103C50000070F0BD2DE9F04F89B005460F46914642
:103C60009A46129E002002904448007828B1022013
:103C70003070002009B0BDE8F08F4648007818B1D8
:103C80000D2030700020F5E72878052803D00120AA
:103C900030700020EEE709F0800BBBF1000F04D07C
:103CA00009F07F094FF0010801E04FF0000801F032
:103CB0004BFC0290B9F1000F4AD0B9F1010F78D056
:103CC000B9F1020F03D0B9F1030F71D120E02889B7
:103CD00000EA0704BC420FD1B8F1010F02D12889D4
:103CE000A04328812A4800680485029801F030FC2E
:103CF000002030702046BDE74B463A4604A92846CE
:103D0000CDF800A0FFF75AFF029801F021FC78E0FF
:103D1000288900EA07047CB1B8F1010F02D1288993
:103D2000A04328811A4800680485029801F010FC1D
:103D30000020307020469DE74B463A4604A92846AD
:103D4000CDF800A0FFF73AFF029801F001FC58E01F
:103D5000288927EA0004BC421ED1B8F1010F02D124
:103D60002889204328810A4800680485029801F0C8
:103D7000EFFB0020307020467CE71AE0490000206D
:103D8000380000203F0000004D0000204E000020C1
:103D90005C0000204A0000204B463A4604A9284611
:103DA000CDF800A0FFF70AFF029801F0D1FB28E050
:103DB0001FE0288927EA00047CB1B8F1010F02D185
:103DC000288920432881B14800680485029801F0C1
:103DD000BFFB0020307020464CE74B463A4604A912
:103DE0002846CDF800A0FFF7E9FE029801F0B0FBED
:103DF00007E0029801F0ACFB00246F2030702046F1
:103E000038E700BFFFF7A5FA01F09EFB02909F483C
:103E1000006890F8310020B39C48006890F83100A9
:103E2000039000209949096881F8310004A8FFF740
:103E3000D6FD00209549096881F83000029801F00C
:103E400087FB00240398012805D0022802D10E2008
:103E5000307003E000BF0A20307000BF00BF204672
:103E600008E78A480068048DB8F1010F1ED1B9F146
:103E7000000F0ED0B9F1010F0CD0B9F1020F03D031
:103E8000B9F1030F0AD100E000BF2889A0432881BF
:103E90000BE000BF28892043288106E0029801F04A
:103EA00057FB6F2030700020E4E600BF029801F05D
:103EB0004FFB002030702046DCE670B5002501F095
:103EC00043FB054671480068048D284601F040FB1D
:103ED000204670BD2DE9FC5F0446894692461E4689
:103EE000002000902078052804D0012030700020A8
:103EF000BDE8FC9F01F028FB0090BAF1000F03D051
:103F0000BAF1010F0AD104E0208920EA09002081DA
:103F10000BE0208940EA0900208106E0009801F0CA
:103F200017FB712030700020E2E700BF4FF0000B5C
:103F3000656855E0A87C40B3012838D0022802D03B
:103F4000032844D111E02089298A00EA0107288A40
:103F5000B84209D139462846FFF753FD8046B8F1EB
:103F6000010F01D14FF0010B38E02089298A00EAC6
:103F700001074FB139462846FFF743FD8046B8F1A7
:103F8000010F01D14FF0010B28E0288A218920EA96
:103F90000107288AB84209D139462846FFF731FD82
:103FA0008046B8F1010F01D14FF0010B16E0288ACD
:103FB000218920EA01074FB139462846FFF721FD44
:103FC0008046B8F1010F01D14FF0010B06E00098D7
:103FD00001F0BEFA6F203070002089E700BF2D6825
:103FE000002DA7D1009801F0B3FABBF1010F01D168
:103FF000FFF7AFF901F0A8FA00902089019000982E
:1040000001F0A6FA00203070019871E72DE9F04127
:1040100004460D4600272078052804D0012028708A
:104020000020BDE8F08101F08FFA07462689384666
:1040300001F08EFA002028703046F2E72DE9F041B9
:1040400050211348FFF772F800250EE0681C86B275
:104050000F4800EB051400EB061700202070676086
:10406000AFF2E020E060681C85B2042DEED3084872
:1040700000EB0514002020706060AFF2F820E060D3
:10408000034804490860BDE8F08100005C0000209E
:10409000DC010020380000202DE9F04106460D46E5
:1040A0004FF000083078022804D00120287000204A
:1040B000BDE8F08101F048FA80467468E08A78B182
:1040C0002169081D20610F68E08A401EE082A16816
:1040D0002069884201D1606820610020287002E0D8
:1040E0001F2028700027404601F032FA3846DFE7EB
:1040F0002DE9F04106460F464FF00008F7480078DA
:1041000010B10020BDE8F08101F01EFA8046F448AD
:104110000568006820B1F24800684068F04908600E
:10412000404601F015FA3DB301F00EFA8046ED4825
:104130000468C4B100680068EA490860404601F0BC
:1041400007FA666006EB8700A060E6602661A7823A
:104150000020E08202202870002028816C60284620
:10416000FFF7C4FA08E0DE4800686860DC480560D4
:10417000404601F0EDF900252846C3E72DE9F04758
:104180000446894615464FF0000A2078022804D0DC
:10419000012028702046BDE8F087D048007818B18B
:1041A0000F2028702046F6E701F0CEF98246A07A6B
:1041B00010B14FF0010801E04FF00008B9F1000F15
:1041C00003D0B9F1010F45D11FE0B8F1000F15D1AF
:1041D0006668C44800683060C248066000202070ED
:1041E000BF480068606000202081BD4804605046E0
:1041F00001F0AEF900202870002705E0504601F0DC
:10420000A7F94920287027462BE005E00023042267
:1042100019462046FFF7F9F9A07A0028F6D166681A
:10422000B04800683060AF48066000202070AC489D
:104230000068606000202081A9480460504601F0B9
:1042400087F9B8F1010F01D1FFF783F8002028703A
:10425000002706E0504601F07BF90720287027462A
:1042600000BF00BF384696E770B50546002601F04E
:104270006BF906466C686068E06060682061002049
:10428000E082304601F064F9002070BD2DE9F0476E
:104290000746884615464FF000093878022804D0B2
:1042A000012028700020BDE8F0878C48007818B104
:1042B000022028700020F6E78B48007818B10D2006
:1042C00028700020EFE701F03FF981467C68E08A22
:1042D00098B12169081D20610E68E08A401EE082C5
:1042E000A1682069884201D160682061484601F0D8
:1042F0002FF9002028703046D5E77C48006890F8F8
:10430000300040F004007949096881F8300000204D
:104310007649096881F8310074480068C0F82C803B
:104320003846FFF7ABF9484601F012F9FFF711F8EC
:1043300001F00AF981466D48006890F8310020B11B
:1043400001280DD002280AD105E068480068066AF5
:10435000002028700DE000260E20287009E000BF24
:10436000394662480068FFF73BF900260A202870AA
:1043700000BF00BF00205D49096881F830005B493B
:10438000096881F8310059490968C86157490968C5
:104390000862484601F0DCF8304684E72DE9F04138
:1043A00004460F4615464FF000082078022804D036
:1043B000012028700020BDE8F08101F0C5F880469A
:1043C000A07A20B300267FB1012F0CD107E0022391
:1043D000042200212046FFF718F9701CC6B2A07A0B
:1043E0000028F4D109E000BF022304220021204666
:1043F000FFF70BF9701CC6B200BF00BF404601F0CA
:10440000A7F8FEF7A6FF0E2028703046D3E74046F7
:1044100001F09EF80020287000BFCCE72DE9F041A4
:1044200005460E4600272878022802D00120BDE864
:10443000F08101F089F80746A87A60B100230422D0
:1044400031462846FFF7E1F8384601F081F8FEF7DB
:1044500080FF0020EBE76C68E08AA18A884204DBD9
:10446000384601F075F81E20E1E7E168081DE060BC
:104470000E60E08A401CE082D4E90210884201D13B
:104480006068E060384601F063F80020CFE72DE96E
:10449000F04105460E4600272878022802D0012068
:1044A000BDE8F08101F050F80746A87A60B100231A
:1044B000042231462846FFF7A8F8384601F048F8AC
:1044C000FEF747FF0020EBE76C68E08AA18A88428C
:1044D0000EDB384601F03CF81E20E1E749000020E1
:1044E00034000020700000204A0000205C00002002
:1044F00061682069884201D1A06820612069001F9D
:10450000206120690660E08A401CE082384601F0A4
:104510001FF80020C4E72DE9F04105460F46164676
:104520004FF000082878022802D00120BDE8F08171
:1045300001F00AF88046A87AE8B106F0010050B10F
:1045400005E00023042239462846FFF75EF8A87AE2
:104550000028F6D105E00023042239462846FFF75B
:1045600054F8404600F0F4FF06F0040008B9FEF7E6
:10457000F0FE0020DAE76C68E08AA18A884204DB5A
:10458000404600F0E5FF1E20D0E706F0020058B1DB
:1045900061682069884201D1A06820612069001FFC
:1045A00020612069076009E0E168081DE0600F6094
:1045B000D4E90210884201D16068E060E08A401CC2
:1045C000E082404600F0C4FF0020AFE72DE9F0474D
:1045D00005460C464FF0000A2878022802D0012038
:1045E000BDE8F08700F0B0FF8246A87A207405F19C
:1045F0000B0804F10809002705E018F8010B09F879
:10460000010B781CC7B2082FF7D36E68F08A18B177
:1046100030690068206001E000202060F08AA080FE
:10462000B08AE080504600F093FF0020D8E72DE9E3
:10463000F04178211048FEF779FD00240DE0601C60
:1046400086B204EB44000C4901EBC00506EB4600C2
:1046500001EBC0072F60601C84B2042CEFD304EB85
:104660004400054901EBC0050020286008460349C5
:104670000860BDE8F08100001C0B002070000020E5
:1046800070B5044600262078032801D0002070BDB4
:1046900000F05AFF0646258915B12089401E208169
:1046A000304600F055FF2846F1E770B50546002674
:1046B000D248007808B1002070BD00F045FF0646E2
:1046C000CF480468006820B1CD4800684068CC49F4
:1046D0000860304600F03CFF3CB10320207025818B
:1046E000002060602046FFF701F82046E4E72DE94E
:1046F000F0470446884615464FF000092078032805
:1047000004D0012028702046BDE8F087BB4800781F
:1047100018B10F2028702046F6E700F015FF8146FB
:10472000A07A08B1012700E00027B8F1000F03D0FC
:10473000B8F1010F35D117E07FB900202070B048E3
:104740000068606000202081AD480460484600F0A9
:10475000FFFE00202870002605E0484600F0F8FE25
:1047600049202870264623E005E00023012219464F
:104770002046FEF74AFFA07A0028F6D12070A04814
:1047800000686060002020819D480460484600F079
:10479000DFFE012F01D1FEF7DCFD0020287000268E
:1047A00006E0484600F0D4FE07202870264600BFE9
:1047B00000BF3046A8E72DE9F04105460E461446F5
:1047C00000272878032803D001202070BDE8F0815D
:1047D0008A48007810B102202070F7E789480078F5
:1047E00010B10D202070F1E700F0AEFE07462889D9
:1047F00040B12889401E2881384600F0A9FE0020DB
:104800002070E3E78048006890F8300040F0010035
:104810007D49096881F8300000207B49096881F8EA
:10482000310079480068C6622846FEF727FF3846FF
:1048300000F08EFEFEF78DFD00F086FE0746724802
:10484000006890F8310020B1012809D0022806D173
:1048500002E0002020700BE00E20207008E000BF76
:10486000294669480068FEF7BBFE0A20207000BF99
:1048700000BF00206449096881F830006249096876
:1048800081F8310060490968C861384600F060FE6F
:1048900000BF9BE72DE9F04104460F4615464FF057
:1048A00000082078032804D0012028700020BDE8EB
:1048B000F08100F049FE8046A07A20B300267FB147
:1048C000012F0CD107E00223012200212046FEF730
:1048D0009CFE701CC6B2A07A0028F4D109E000BF8B
:1048E0000223012200212046FEF78FFE701CC6B273
:1048F00000BF00BF404600F02BFEFEF72AFD0E2051
:1049000028703046D3E7404600F022FE0020287091
:1049100000BFCCE770B5044600252078032801D0FD
:10492000012070BD00F010FE0546A07A60B10023A2
:10493000012219462046FEF768FE284600F008FED0
:10494000FEF707FD0020ECE720894FF6FF71884253
:1049500007D22089401C2081284600F0F9FD002064
:10496000DFE7284600F0F4FD3320DAE72DE9F047D1
:1049700004460D464FF000092078032802D001209C
:10498000BDE8F08700F0E0FD8146A07AA87204F14E
:104990000B0705F10208002605E017F8010B08F8DF
:1049A000010B701CC6B2082EF7D320892880484618
:1049B00000F0CEFD0020E3E72DE9F04104460E466D
:1049C000154600272078032803D001202870BDE871
:1049D000F08100F0B9FD074600202870208908B159
:1049E000268105E0A07A08B9268101E049202870D7
:1049F000384600F0ADFD00BFE9E7000049000020A7
:104A0000340000204A0000205C0000202DE9FF5FF8
:104A1000814688460020009000F096FD0090F948FD
:104A200050F8280030B1009800F092FD282004B022
:104A3000BDE8F09FB9F1FF0F03D1F348006890F88B
:104A40003290F04850F8294024B9009800F080FDD9
:104A50002920ECE7012C04D1009800F079FD4320D7
:104A6000E5E74FEAE80708F0070003900120B840A7
:104A700000F0FF0A01210398814001F0FF0B0020A4
:104A8000E04941F82900084640F8284014F8346FFE
:104A9000A07802906078343C0190DC48815D0198F8
:104AA0000140D1B1D948805D01998843D7498855E3
:104AB0000846805D28B9D648007802998843D449D1
:104AC0000870D348007840EA0A00D1490870CF48FE
:104AD000C05D40EA0B00CD49C855E569D5B105F187
:104AE0000B00805D0199884305F10B01885508464C
:104AF000805D18B9A87A02998843A872A87A40EA1A
:104B00000A00A87205F10B00C05D40EA0B0005F138
:104B10000B01C85584F8328084F83470039884F807
:104B2000330084F836A084F835B0009800F010FD0A
:104B3000B8480078012801D1FEF70BFC002076E789
:104B40002DE9FE4F06460F4690461C464FF00009E1
:104B500000F0FAFC8146B048007828B1484600F0E1
:104B6000F7FC3C20BDE8FE8FA64850F8240060BB4F
:104B70000120A44941F82400484600F0E9FC002344
:104B800042463946304600F001FC82460020009043
:104B9000019003460246514602902046FEF7C8FDAA
:104BA000054635B99B48007801280CD1FEF7D1FBAA
:104BB00009E000F0C9FC81460020924941F8240038
:104BC000484600F0C5FC2846CCE7484600F0C0FC4B
:104BD0002820C7E702F0010343B102F002032BB122
:104BE00002E0491E002308C00029FAD170472DE9D0
:104BF000F04F85B081468A4693461C46DDE90F7822
:104C0000129D0020039000F09FFC039082480078E2
:104C100030B1039800F09CFC3C2005B0BDE8F08F5B
:104C2000784850F8240088BB0120764941F82400D8
:104C3000039800F08DFC2A4641463846FFF7CAFF2C
:104C40002B465A465146484600F0A0FB0490119866
:104C5000CDE9008002953A4620460E9B0499FEF766
:104C600067FD064636B96B48007801280CD1FEF77F
:104C700070FB09E000F068FC03900020614941F8F6
:104C80002400039800F064FC3046C6E7FFE7039871
:104C900000F05EFC2820C0E72DE9F0410546002722
:104CA0005D48007810B14020BDE8F0813F2D01D172
:104CB0003E20F9E700F048FC0746FF2D03D152489B
:104CC000006890F832504F4850F8254024B93846D3
:104CD00000F03EFC4320E7E7012C04D1384600F009
:104CE00037FC3D20E0E714F8340F4849085C617850
:104CF00088432178454A505414F834091146085C19
:104D000030B994F83610424800788843404908701A
:104D1000E06918B12046E169FEF762FC666A16B1E7
:104D20003046FEF75CFE0020E06284F8300084F834
:104D300031003A480078FF2804D238480078401CF7
:104D400036490870384600F003FCFEF748FC00F0D6
:104D5000FBFB07463148007820B130480078401E00
:104D60002E490870204600F00EFB2D480078401EAA
:104D70002B4908700020234941F82500A06930B96B
:104D800000206169886127496069086005E0D4E90D
:104D900005014861D4E90510886123480068606115
:104DA0002148046021A0E064384600F0D1FB194896
:104DB0000078012801D1FEF7CCFA002074E72DE934
:104DC000F041044600273F2C02D13E20BDE8F0818F
:104DD000FF2C0BD100F0B8FB07460B48006890F899
:104DE0003760384600F0B4FB3046EFE700F0ACFB2C
:104DF0000746044850F82450D5B9384600F0A8FBBF
:104E00004320E3E72C0600205C0000204E00002039
:104E10004D00002056000020490000204A000020DC
:104E20005700002068000020600000203F000000C4
:104E3000012D04D1384600F08BFB3D20C6E73F2012
:104E400085F83700384600F083FB0020BEE72DE9E7
:104E5000F04706460F4614464FF00008D648007843
:104E600020B1112020700020BDE8F08700F06CFB1D
:104E70008046FF2E03D1D148006890F83260D048B8
:104E800050F8265035B9404600F062FB43202070B0
:104E90000020E9E7012D06D1404600F059FB4320F0
:104EA00020700020E0E7E86C38603868FEF736FCD8
:104EB0008146404600F04CFB002020704846D3E776
:104EC0002DE9F04106460F4614464FF00008BA4857
:104ED000007818B112202070BDE8F08100F034FB9A
:104EE0008046FF2E03D1B548006890F83260B44880
:104EF00050F826502DB9404600F02AFB4320207080
:104F0000EAE7012D05D1404600F022FB4320207046
:104F1000E2E7EF64404600F01BFB0020207000BF7A
:104F2000DAE770B50546002600F00EFB0646A448F9
:104F300050F8254024B9304600F00AFB462070BDE9
:104F4000012C04D1304600F003FB4320F7E794F82E
:104F5000300000F0080060B314F8300F00F0F700E4
:104F6000207014F83009F8B9E06AC8B93434A07870
:104F70009449097808439349087020789249085C5D
:104F80006178084314F834198F4A5054304600F0C1
:104F9000DFFA8E480078012809D1FEF7DAF906E039
:104FA000304600F0D5FA02E0304600F0D1FA002099
:104FB000C5E7304600F0CCFA4420C0E72DE9F047C1
:104FC00007460D464FF0000A00202860686000F098
:104FD000BBFA8246FF2F03D17848006890F8327000
:104FE000774850F827402CB9504600F0B1FA4320DA
:104FF000BDE8F087012C04D1504600F0A9FA432007
:10500000F6E7207C00F0010020B9504600F0A0FA3D
:105010004520EDE70026D4F80C90D4F808805046DF
:1050200000F096FA00E0761C58F8041B0029FAD02C
:10503000B0002860A9EB0600800068600020D7E778
:105040002DE9F04105464FF0000800F07DFA80465A
:10505000FF2D05D15948006890F83250012608E02C
:105060005648006890F83200A84201D1012600E0BD
:105070000026534850F825402CB9404600F068FA05
:105080004820BDE8F081012C04D1404600F060FAD0
:105090004320F6E794F834704B48C05D94F835101F
:1050A00088434949C8550846C05D30B994F8361060
:1050B0004448007888434349087094F8300040F031
:1050C000080084F83000404600F042FA012E01D179
:1050D000FEF73FF90020D4E72DE9F04105460E46E2
:1050E000002700F031FA0746FF2D03D1334800684E
:1050F00090F83250324850F825402CB9384600F02C
:1051000027FA2920BDE8F081012C04D1384600F0AF
:105110001FFA4320F6E7542221463046FEF7F4FA00
:10512000384600F015FA0020ECE72DE9F047044678
:105130000E4617464FF0000900F006FA8146FF2C94
:1051400002D11E48056802E01D4850F8245005F1C0
:10515000500050F82680484600F0FAF900203870D8
:105160004046BDE8F0872DE9F04704460E46174655
:1051700098464FF0000900F0E7F98146FF2C02D174
:105180000E48056802E00E4850F8245005F1500022
:1051900040F82670484600F0DBF9002088F800004F
:1051A000BDE8F08710B50548006800F03FF9FF2022
:1051B000FFF772FD10BD0000490000205C000020D8
:1051C0002C0600204D0000204E000020560000203C
:1051D00070B5054600266348007800B170BD62488E
:1051E000007800B1FAE71DB300F0AEF906465F485B
:1051F000006890F834405E48005D5C49096891F8A9
:10520000351088435A4908550846005D40B957484B
:10521000006890F836105748007888435549087060
:1052200052480068C562304600F092F9FEF791F8E6
:1052300000BFD3E72DE9F04105460E4617461C4650
:105240004848007810B15520BDE8F0814648007804
:1052500008B13220F8E74FF47A7060434FF47A7166
:10526000B0FBF1F14FF461606843C6EB061200EB4E
:105270008200384400EB4002C2EBC01001EBC008D2
:105280004046FFF7A5FF0020DEE770B50546002683
:105290003F2D01D32A2070BD00F056F9064636484E
:1052A00050F8254024B9304600F052F94320F2E787
:1052B000012C04D1304600F04BF94320EBE7E06AC3
:1052C00020B9304600F044F95020E4E70020E062C5
:1052D00094F8300000F0370040B114F8300F20F09F
:1052E0003700207001206070303C02E0002084F81C
:1052F000310094F8300000F00800A8B93434A078E8
:105300001C49097808431B49087020781849085C33
:105310006178084314F83419154A5054304600F0A7
:1053200017F9FEF716F802E0304600F011F90020F8
:10533000B1E770B5002500F007F905460F4804688D
:10534000284600F005F9204670BD70B504460025DA
:1053500000F0FAF8054609480460284600F0F8F81D
:1053600070BD0000490000204A0000205C000020C1
:105370004E0000204D0000202C060020740000206C
:1053800070477047704770477047704770B5044664
:1053900010464FF080750560051F28462C606FF0A1
:1053A0000106051F28462E604FF01236051F2846BD
:1053B0002E604FF00336051F28462E604FF0023650
:1053C000051F28462E607610051F28462E60051FF3
:1053D000284629604FF01136051F28462E604FF0F1
:1053E0001036051F28462E604FF00936051F284647
:1053F0002E604FF00836051F28462E604FF0073606
:10540000051F28462E604FF00636051F28462E60E1
:105410004FF00536051F28462E604FF00436051F55
:1054200028462E6070BD7047704770477047000077
:10543000174818481848194819481A481A481B4864
:105440001B481C481C481D481D481E481E481F4834
:105450001F48204820482148214822482248234804
:1054600023482448244825482548264826482748D4
:10547000274828482848294829482A482A482B48A4
:105480002B482C482C482D482D482E4800BF7047EB
:1054900090DA000894DA00089ADA00089CDA00082A
:1054A00098DA00089EDA0008A0DA0008A2DA0008FC
:1054B000A4DA0008A6DA0008A8DA0008AADA0008C8
:1054C000ACDA0008AEDA0008B0DA0008B2DA000898
:1054D000B4DA0008B6DA0008B8DA0008BADA000868
:1054E000BCDA0008BEDA0008C0DA0008C2DA000838
:1054F000C4DA0008C6DA0008C8DA0008CADA000808
:10550000CCDA0008CEDA0008D0DA0008D2DA0008D7
:10551000D4DA0008D6DA0008D8DA0008DADA0008A7
:10552000DCDA0008DEDA0008E0DA0008E2DA000877
:10553000E6DA0008E8DA0008EADA0008ECDA00083F
:10554000EEDA000802DB0008EFF3108072B6704755
:1055500080F310887047204C204D25604FF00004E8
:1055600084F309881E4C4FF0010525701D4C4FF047
:105570008055256062B6FEE730B41A4C4FF0805576
:10558000256030BC704730B4164C4FF08055256014
:1055900030BC704700BF72B6EFF3098028B12038E5
:1055A00080E8F00F10490968086000B50F4880478F
:1055B0005DF804EB0E480F490A7802700A480E495C
:1055C0000A680260106890E8F00F203080F30988C4
:1055D0004EF0040E62B6704720ED00E00000FFFFC1
:1055E0005600002004ED00E05C0000202754000875
:1055F0004B0000204C0000206400002008B5012171
:105600001020FBF705FF0420ADF8000010208DF8F6
:10561000030003208DF8020069460448FBF738FABE
:1056200004210248FBF7E3FA08BD00000010014026
:1056300000BF38B9F24900EB4002F24B03EB021213
:10564000116008E0012806D1EF4900EB4002ED4B64
:1056500003EB0212116000BF00BF40B94FF480514C
:1056600000EB4002E74B03EB0212516008E0012817
:1056700006D1810300EB4002E24B03EB02125160C2
:1056800000BF00BF38B9042100EB4002DD4B03EB43
:105690000212116108E0012806D1042100EB40024A
:1056A000D84B03EB0212116100BF00BF38B9D749D4
:1056B00000EB4002D34B03EB0212916008E001289B
:1056C00006D1D24900EB4002CE4B03EB02129160AF
:1056D00000BF00BF38B9202100EB4002C94B03EBEB
:1056E0000212918108E0012806D1202100EB40023E
:1056F000C44B03EB0212918100BF00BF38B90421F3
:1057000000EB4002BF4B03EB0212D16108E001281D
:1057100006D1042100EB4002BA4B03EB0212D16127
:1057200000BF00BF38B9B94900EB4002B54B03EBED
:105730000212516108E0012806D1B44900EB400291
:10574000B04B03EB0212516100BF00BF38B94021DA
:1057500000EB4002AB4B03EB0212118308E001287F
:1057600006D1402100EB4002A64B03EB021211834D
:1057700000BF00BF38B9042100EB4002A14B03EB8E
:105780000212916208E0012806D1042100EB4002D8
:105790009C4B03EB0212916200BF00BF38B99B49DA
:1057A00000EB4002974B03EB0212116208E0012864
:1057B00006D1964900EB4002924B03EB02121162B4
:1057C00000BF00BF38B9802100EB40028D4B03EBD6
:1057D0000212918408E0012806D1802100EB4002EA
:1057E000884B03EB0212918400BF00BF38B9282117
:1057F00000EB4002834B03EB0212918508E0012885
:1058000006D1382100EB40027E4B03EB021291855A
:1058100000BF704710B50246002302EB4200794CEE
:1058200004EB00100068818105E0581CC3B2C82B4E
:1058300001DD002010BD02EB4200724C04EB0010B1
:105840000068008900F001000028EED002EB420061
:1058500004EB001000688089C0B2EBE710B586B099
:1058600004462046FFF7E4FE04EB4400654901EBE3
:10587000001000686249884209D104EB4401614A82
:1058800002EB011148680121FBF7C2FD08E004EBBF
:1058900044015C4A02EB011148680121FBF7C5FD98
:1058A00004EB4401574A02EB0111096904EB44027D
:1058B000544B03EB0212D269114304EB440203EB95
:1058C0000212926A41EA02000121FBF7A1FD04EBFA
:1058D00044004C4901EB00108089ADF814001820F9
:1058E0008DF8170003208DF8160004EB4401454A9B
:1058F00002EB0111886805A9FBF7CAF804EB440222
:10590000404B03EB0212918904EB440203EB0212B9
:105910009068FBF76AF904EB44003A4901EB001088
:10592000008BADF8140004EB4401364A02EB011180
:10593000486905A9FBF7ACF804EB4402314B03EBD3
:105940000212118B04EB440203EB02125069FBF7C5
:105950004CF904EB44002B4901EB0010808CADF8AE
:10596000140004EB4401274A02EB0111086A05A95F
:10597000FBF78EF804EB4402224B03EB0212918CEE
:1059800004EB440203EB0212106AFBF72EF900202D
:10599000ADF800004FF48270ADF802000020ADF8C1
:1059A00004000220ADF806000120ADF80800400216
:1059B000ADF80A0004EB4400124901EB0010808DA1
:1059C000ADF80C000020ADF80E000720ADF8100077
:1059D00004EB44010B4A02EB011108686946FCF72D
:1059E0009DFA04EB4401074A02EB0111086801210A
:1059F000FCF739FBFF212046FFF70CFF06B010BD76
:105A000000300140940B00200038004000080140A5
:105A100000B589B001210420FBF7FAFC01214806FA
:105A2000FBF703FD4FF48050ADF8200003208DF804
:105A3000220018208DF8230008A9FE48FBF728F85B
:105A40004FF40060ADF8200004208DF8230008A971
:105A5000F848FBF71DF800208DF81A0001208DF89A
:105A60001B0000208DF81C008DF81D0001208DF812
:105A70001E008DF81F0000208DF8160001208DF803
:105A8000170008208DF8180007208DF81900042051
:105A9000ADF8140005A9E848FBF73BFD0120FBF732
:105AA00053FE00208DF80E008DF80F0001208DF8B8
:105AB00010002020ADF804000020ADF806004FF6DD
:105AC000E070ADF808000020ADF80A00ADF80C0059
:105AD00001208DF8110001A8FBF7A5FD0122114658
:105AE000D548FCF79FF813208DF8000000208DF8B2
:105AF000010001208DF802008DF803006846FAF7D6
:105B0000FEFE01220221CC48FCF78CF80122042180
:105B1000C948FCF787F801220821C748FCF782F83A
:105B200014208DF8000000208DF801008DF802008F
:105B300001208DF803006846FAF7E1FE0122110208
:105B4000BD48FCF76FF801225102BB48FCF76AF828
:105B500001229102B848FCF765F80122D102B6484B
:105B6000FCF760F80122D103B348FCF75BF816207C
:105B70008DF8000000208DF8010002208DF8020051
:105B800001208DF803006846FAF7B9FE002009B03D
:105B900000BD10B50121A848FCF747F9002010BD51
:105BA0000020704710B50121A348FCF7A3F808B105
:105BB000012010BD0020FCE710B502219E48FCF733
:105BC00099F808B1012010BD0020FCE79A48083080
:105BD000006800F08060B0F1806F11D09648083006
:105BE000006800F00060B0F1006F09D09248083002
:105BF000006800F08050B0F1805F01D00120704754
:105C00000020FCE710B5012211468B48FCF70AF88A
:105C1000002010BD10B5012202218748FCF702F8D0
:105C2000012204218448FBF7FDFF0122082182485C
:105C3000FBF7F8FF002010BD10B5002201217E48BF
:105C4000FBF7F0FF002010BD10B5002202217A48BA
:105C5000FBF7E8FF002204217748FBF7E3FF00226F
:105C600008217548FBF7DEFF002010BD10B586B097
:105C7000044601200090019000208DF808008DF866
:105C80000900A0798DF80A00002005900DE0E01DC4
:105C90009DF81410415C0DF10B009DF81420815407
:105CA0009DF81400401CC0B205909DF8140008280F
:105CB000EDDB69466048FBF7A5FD0590002006B0C6
:105CC00010BD10B586B004466A4600215A48FBF75D
:105CD0008EFE019820609DF80A00A0719DF81300C7
:105CE000E073002005900DE00DF10B009DF81410FD
:105CF000415CE01D9DF8142081549DF81400401C67
:105D0000C0B205909DF814000828EDDB002006B015
:105D100010BD10B508214848FBF7ECFF012803D15E
:105D200008214548FCF781F804214348FBF7E2FFCE
:105D3000012803D104214048FCF777F8002010BD6A
:105D400010B53EA005F0D2FF3B48FBF75AFF041107
:105D500021463BA005F0CAFF3748FBF758FF044631
:105D600021463BA005F0C2FF3348FBF755FF044630
:105D700021463BA005F0BAFF30A005F0B7FF4FF475
:105D800080312D48FBF7B6FF012809D101042A48CC
:105D9000FCF74BF83648007810B136A005F0A6FFA6
:105DA0004FF400312448FBF7A5FF012809D1410435
:105DB0002148FCF73AF82E48007810B130A005F0E1
:105DC00095FF4FF480711C48FBF794FF012809D11F
:105DD00001021948FCF729F82548007810B12BA0DA
:105DE00005F084FF4FF400711348FBF783FF01288F
:105DF00009D141021048FCF718F81D48007810B18D
:105E000025A005F073FF4FF480610B48FBF772FF8C
:105E1000012809D181020848FCF707F814480078E6
:105E200010B120A005F062FF4FF400610248FBF7BB
:105E300061FF3DE000080140006400400D0A0000E1
:105E40002D2D2D4C45433A25642D2D2D0D0A000096
:105E50002D2D2D5245433A25642D2D2D0D0A000080
:105E60002D2D2D5445433A25642D2D2D0D0A00006E
:105E700089000020494E542D574B550D0A00000053
:105E8000494E542D534C4B0D0A000000494E542DE1
:105E90004557470D0A000000494E542D4550560DF8
:105EA0000A000000494E542D424F460D0A000000E2
:105EB000012809D1C1026E48FBF7B7FF6D48007891
:105EC00010B16DA005F012FF4FF400416848FBF7D8
:105ED00011FF012809D1C1036548FBF7A6FF6548FA
:105EE000007810B167A005F001FF002010BDAFF2EF
:105EF000DF4067490860AFF23F304860AFF25B3087
:105F00008860AFF23730C860AFF26B300861AFF233
:105F10007D304861AFF2CF208861AFF20730C861B1
:105F2000AFF2EB200862AFF223304862AFF21D20DF
:105F30008862AFF2F310C862AFF279200863AFF263
:105F4000D320486353488863704710B5FFF7CFFFED
:105F50004F49086880474E49886B4FF4807104F0C0
:105F6000AAF8002010BD00B587B00020069005906B
:105F70004749886A804718E045490869804744498D
:105F8000886980474248016B01A888479DF80A202C
:105F90003F49886B0DF10B0104F02BF9C0B206905C
:105FA0009DF818003A49C8698047394948688047D0
:105FB0000128E1D03848007830B90120364908700E
:105FC00036480068FEF7A6FC07B000BD70B588B083
:105FD00005460C46002007900690059004902E463A
:105FE0002B49086A8047002006902CE0002004908E
:105FF00010E016F8010B07909DF81C209DF810008A
:10600000411CC9B204910DF107010A54601E84B20B
:1060100004B903E09DF810000828EADB00BF9DF8F2
:10602000100080B1012000909DF810008DF806004E
:1060300000BF1749C86880470028FAD11448416B4F
:10604000684688470590002CD0D108B070BD10B5C7
:10605000FAF718F90E49C86A8047FAF721F910BD16
:1060600010B5FAF70FF9FFF77EFFFAF719F910BD2F
:106070000064004089000020494E542D4C45430DDA
:106080000A000000494E542D4552520D0A000000EE
:10609000C40B0020A48600208A0000207C00002081
:1060A00008B501210420FBF7B3F91020ADF800007A
:1060B0008DF8030003208DF8020069467348FAF753
:1060C000E7FC10217148FAF790FD0020FFF7C6FBAE
:1060D00008BD10B510216D48FAF789FD0521002093
:1060E000FFF798FB044600210846FFF793FB0446A0
:1060F00010216648FAF779FD204610BD70B50024DE
:10610000FF2500BFFFF7E5FF0546601CC4B205F0A0
:10611000010008B1FE2CF5DBFE2C01DB012070BD77
:106120000020FCE710B510215848FAF760FD062161
:106130000020FFF76FFB10215448FAF756FD10BD01
:1061400010B5FFF7EFFF10215048FAF750FD01217D
:106150000020FFF75FFB00210846FFF75BFB1021E3
:106160004A48FAF742FDFFF7C9FF10BD70B5044673
:1061700010214648FAF73BFD03210020FFF74AFBB8
:10618000210A0020FFF746FBE1B20020FFF742FBA7
:10619000054600210846FFF73DFB054610213B4818
:1061A000FAF723FD284670BD2DE9F04104460E465E
:1061B00017464FF00008002510213448FAF717FD64
:1061C00003210020FFF726FB210A0020FFF722FB16
:1061D000E1B20020FFF71EFB00BF06E000210846E9
:1061E000FFF718FB7055681C85B2BD42F6DB102125
:1061F0002648FAF7FAFC4046BDE8F08170B504463F
:106200000D46FFF78FFF10212048FAF7F0FC02211E
:106210000020FFF7FFFA210A0020FFF7FBFAE1B2A6
:106220000020FFF7F7FA29460020FFF7F3FA1021C4
:106230001648FAF7DAFC284670BD2DE9F04104460D
:106240000E4617460025FFF76DFF10210F48FAF79D
:10625000CEFC02210020FFF7DDFA210A0020FFF723
:10626000D9FAE1B20020FFF7D5FA00BF05E0715D71
:106270000020FFF7CFFA681C85B2BD42F7DB102182
:106280000248FAF7B2FCBDE8F081000000080140C6
:1062900000BF40B94FF4807100EB4002BD4B03EBEF
:1062A000820211813CE0012807D1410200EB40024B
:1062B000B84B03EB8202118132E0022807D1410280
:1062C00000EB4002B34B03EB8202118128E003286C
:1062D00008D14FF4805100EB4002AE4B03EB820239
:1062E00011811DE0042807D1410200EB4002A94BB7
:1062F00003EB8202118113E0052807D1202100EB76
:106300004002A44B03EB8202118109E0062807D169
:106310004FF4806100EB40029E4B03EB820211813F
:1063200000BF00BF30B99C4900EB4002994B43F8D5
:10633000221034E0012806D1974900EB4002954B2A
:1063400043F822102BE0022806D1934900EB4002CB
:10635000904B43F8221022E0032806D18E4900EB2F
:1063600040028C4B43F8221019E0042806D18A49D8
:1063700000EB4002874B43F8221010E0052806D1BD
:10638000864900EB4002834B43F8221007E00628C1
:1063900005D1824900EB40027E4B43F8221000BF3A
:1063A00000BF38B9102100EB40027A4B03EB8202A8
:1063B00051603AE0012807D1102100EB4002754BF3
:1063C00003EB8202516030E0022807D1102100EB7C
:1063D0004002704B03EB8202516026E0032807D194
:1063E000102100EB40026B4B03EB820251601CE07A
:1063F000042807D1102100EB4002664B03EB820218
:10640000516012E0052807D1202100EB4002614BCA
:1064100003EB8202516008E0062806D1202100EB40
:1064200040025C4B03EB8202516000BF704738B5FD
:1064300004462046FFF72CFF04EB4401554A02EBCB
:10644000810148680121FAF7E3FF04EB4400514958
:1064500001EB80000089ADF80000052C05D0062C6A
:1064600003D010208DF8030002E048208DF80300CF
:1064700003208DF8020004EB4401464A52F8210043
:106480006946FAF705FB052C0DD0062C0BD004EB62
:106490004402404B03EB8202118904EB440253F89F
:1064A0002200FAF7A4FB38BD10B5002400BF04E0B9
:1064B0002046FFF7BCFF601CC4B2072CF8DB10BD00
:1064C00010B5044604EB4402324B03EB82021189FF
:1064D00004EB440253F82200FAF787FB10BD10B515
:1064E000044604EB44022B4B03EB8202118904EBBC
:1064F000440253F82200FAF77AFB10BD014601EB83
:106500004100244A52F82000806801EB4102214BEF
:1065100003EB82021289104008B10020704701206D
:10652000FCE7072800DB7047002908DD01221C4B2F
:1065300003F820201A4602EB8002518003E000227B
:10654000174B03F8202000BFEDE710B5002400BF73
:106550001DE0134810F82400012816D1104800EB64
:1065600084004088002809DD0D4800EB8400408845
:10657000401E0B4901EB8401488006E000200849D9
:1065800001F824002046FFF7AAFF601CC4B2072CC4
:10659000DFDB10BD000D00200010014000140140A1
:1065A000540D002000BF38B9012100EB8002FE4BE2
:1065B00003EBC20211811CE0012807D1042100EB8A
:1065C0008002F94B03EBC202118112E0022807D1CD
:1065D000082100EB8002F44B03EBC202118108E0BA
:1065E000032806D1102100EB8002EF4B03EBC2021F
:1065F000118100BF00BF30B9EC4900EB8002EA4BCB
:1066000043F8321019E0012806D1E84900EB800276
:10661000E54B43F8321010E0022806D1E34900EBC5
:106620008002E14B43F8321007E0032805D1DF492F
:1066300000EB8002DC4B43F8321000BF00BF38B9DA
:10664000202100EB8002D84B03EBC20251601CE01A
:10665000012807D1202100EB8002D34B03EBC202BB
:10666000516012E0022807D1202100EB8002CE4BBE
:1066700003EBC202516008E0032806D1202100EBA1
:106680008002C94B03EBC202516000BF00BF38B9A2
:10669000002100EB8002C44B03EBC20251811CE0DD
:1066A000012807D1C10200EB8002BF4B03EBC202FD
:1066B000518112E0022807D1002100EB8002BA4B81
:1066C00003EBC202518108E0032806D1202100EB30
:1066D0008002B54B03EBC202518100BF00BF38B945
:1066E000002100EB8002B04B03EBC20211611CE001
:1066F000012807D1AD4900EB8002AB4B03EBC2028E
:10670000116112E0022807D1002100EB8002A64BA4
:1067100003EBC202116108E0032806D1A34900EB94
:106720008002A14B03EBC202116100BF00BF38B968
:10673000002100EB80029C4B03EBC202D1601CE005
:10674000012807D1202100EB8002974B03EBC20206
:10675000D16012E0022807D1002100EB8002924BA9
:1067600003EBC202D16008E0032806D1202100EB30
:1067700080028D4B03EBC202D16000BF00BF38B96D
:10678000002100EB8002884B03EBC20291831CE0E6
:10679000012807D1002100EB8002834B03EBC202EA
:1067A000918312E0022807D1002100EB80027E4B8A
:1067B00003EBC202918308E0032806D1002100EB1D
:1067C0008002794B03EBC202918300BF00BF38B94E
:1067D000002100EB8002744B03EBC20251611CE00C
:1067E000012807D1002100EB80026F4B03EBC202AE
:1067F000516112E0022807D1002100EB80026A4BB0
:1068000003EBC202516108E0032806D1002100EB2E
:106810008002654B03EBC202516100BF00BF38B973
:10682000002100EB8002604B03EBC20291611CE08F
:10683000012807D1002100EB80025B4B03EBC20271
:10684000916112E0022807D1002100EB8002564B33
:1068500003EBC202916108E0032806D1002100EB9E
:106860008002514B03EBC202916100BF00BF38B9F7
:10687000022100EB80024C4B03EBC202D1831CE0EF
:10688000012807D1010300EB8002474B03EBC20252
:10689000D18312E0022807D1002100EB8002424B95
:1068A00003EBC202D18308E0032806D1002100EBEC
:1068B00080023D4B03EBC202D18300BF00BF38B959
:1068C0003A4900EB8002384B03EBC20251621CE0F4
:1068D000012807D1354900EB8002334B03EBC2029C
:1068E000516212E0022807D1002100EB80022E4BFA
:1068F00003EBC202516208E0032806D1002100EB3D
:106900008002294B03EBC202516200BF00BF38B9BD
:10691000202100EB8002244B03EBC20211621CE039
:10692000012807D1202100EB80021F4B03EBC2029C
:10693000116212E0022807D1002100EB80021A4BFD
:1069400003EBC202116208E0032806D1002100EB2C
:106950008002154B03EBC202116200BF704738B5CD
:1069600004462046FFF71EFE04EB84010E4A02EBAC
:10697000C10148680121FAF74BFD04EB84000A4984
:1069800001EBC0000089ADF8000004208DF8030081
:1069900004EB8401044A52F831006946FAF778F8AA
:1069A000C4EBC40004E00000700D0020001401409E
:1069B00000EB4000624901EB8000808B00F0020098
:1069C000E0B104EB84015F4A02EBC101C868012118
:1069D000FAF71EFD04EB84005A4901EBC000408920
:1069E000ADF8000004208DF8030004EB8401554A43
:1069F00002EBC10108696946FAF74AF8C4EBC40022
:106A000000EB40004E4901EB8000808B00F0040059
:106A1000E0B104EB84014B4A02EBC101886901211A
:106A2000FAF7F6FC04EB8400464901EBC000808BCA
:106A3000ADF8000004208DF8030004EB8401414A06
:106A400002EBC10148696946FAF722F8C4EBC400B9
:106A500000EB40003A4901EB8000808B00F0080019
:106A6000E0B104EB8401374A02EBC101086A01215D
:106A7000FAF7CEFC04EB8400324901EBC000C08B76
:106A8000ADF8000004208DF8030004EB84012D4ACA
:106A900002EBC101486A6946F9F7FAFF002038BDE8
:106AA000014601EB8100274A52F83000806801EB73
:106AB0008102244B03EBC2021289104008B101206D
:106AC00070470020FCE7014601EB81001D4A02EB04
:106AD000C0000069806801EB81021A4B03EBC2021F
:106AE0005289104008B1012070470020FCE70146A0
:106AF00001EB8100134A02EBC0004069806801EBA2
:106B00008102104B03EBC202928B104008B10120AE
:106B100070470020FCE7014601EB8100094A02EBC7
:106B2000C000406A806801EB8102064B03EBC202A1
:106B3000D28B104008B1012070470020FCE7000014
:106B4000780E0020700D002000BF28B94021FE4AB9
:106B500002EB4012118116E0012805D10421FA4A06
:106B600002EB401211810EE0022805D10121F64A04
:106B700002EB4012118106E0032804D14021F24AC1
:106B800002EB4012118100BF00BF28B9EF49EE4A65
:106B900002EB4012116016E0012805D1EC49EA4AE7
:106BA00002EB401211600EE0022805D1E749E64AE7
:106BB00002EB4012116006E0032804D1E349E24AE7
:106BC00002EB4012116000BF00BF28B90821DE4A65
:106BD00002EB4012516016E0012805D10421DA4A87
:106BE00002EB401251600EE0022805D10821D64A7E
:106BF00002EB4012516006E0032804D10821D24A7A
:106C000002EB4012516000BF00BF30B94FF4804129
:106C1000CD4A02EB4012918317E0012805D1810291
:106C2000C94A02EB401291830FE0022805D1C1024C
:106C3000C54A02EB4012918307E0032805D14FF4C7
:106C40008041C14A02EB4012918300BF00BF28B9C6
:106C5000C049BD4A02EB4012516116E0012805D13E
:106C6000BC49B94A02EB401251610EE0022805D13D
:106C7000B849B54A02EB4012516106E0032804D13D
:106C8000B449B14A02EB4012516100BF00BF28B9BC
:106C90004021AD4A02EB4012916116E0012805D176
:106CA0004021A94A02EB401291610EE0022805D171
:106CB0004021A54A02EB4012916106E0032804D16D
:106CC0004021A14A02EB4012916100BF00BF30B9E0
:106CD0004FF400419C4A02EB4012518117E0012819
:106CE00005D1C102984A02EB401251810FE00228FF
:106CF00005D10103944A02EB4012518107E00328B9
:106D000005D14FF40041904A02EB4012518100BF7F
:106D100000BF28B98F498C4A02EB4012116116E07E
:106D2000012805D18B49884A02EB401211610EE01F
:106D3000022805D18749844A02EB4012116106E01E
:106D4000032804D18349804A02EB4012116100BF3D
:106D500000BF28B940217C4A02EB4012D16016E006
:106D6000012805D14021784A02EB4012D1600EE0A3
:106D7000022805D14021744A02EB4012D16006E09E
:106D8000032804D14021704A02EB4012D16000BFB9
:106D9000704701466C4800EB4110808B6A4A02EB59
:106DA000411252695061002070470146664800EB6D
:106DB00041100089644A02EB4112126850610020C0
:106DC000704738B504462046FFF7BEFE5E4901EB2A
:106DD000441148680121FAF71BFB5B4901EB4411A0
:106DE0008969594A02EB4412D26841EA0200012142
:106DF000FAF70EFB03208DF80200534800EB441015
:106E00000089ADF8000010208DF803004E4901EB19
:106E1000441108686946F9F73BFE4B4A02EB4412FD
:106E20001189494A02EB44121068F9F7DEFE204648
:106E3000FFF7BBFF03208DF80200434800EB44102E
:106E40004089ADF8000010208DF803003E4901EBA9
:106E5000441108696946F9F71BFE3B4A02EB4412EC
:106E60005189394A02EB44121069F9F7BEFE03203A
:106E70008DF80200344800EB4410808BADF8000020
:106E800010208DF80300304901EB44114869694630
:106E9000F9F7FEFD2046FFF77CFF002038BD0146D4
:106EA000294800EB41100089274A02EB4112126881
:106EB0001061002070470146234800EB4110808B91
:106EC000214A02EB411252691061002070470146CD
:106ED000002001EBC102204B03EBC20282F8440008
:106EE000C1EBC10000EB40001C4A02EB800090F8AF
:106EF0004E0048B9144800EB41104089124A02EB99
:106F000041121269506108E00F4800EB41104089BE
:106F10000D4A02EB411212691061002070470146D0
:106F2000012001EBC1020C4B03EBC20282F84400CA
:106F3000C1EBC10000EB4000084A02EB800090F872
:106F40004E00B0B900480BE0E80D0020000C0140F5
:106F5000000801400018014070100020780E002049
:106F600000EB41104089084A02EB4112126910619E
:106F700008E0054800EB41104089034A02EB41124A
:106F80001269506100207047E80D002000BF28B949
:106F9000B549B64A02EB0012116016E0012805D18E
:106FA000B349B24A02EB001211600EE0022805D18B
:106FB000B049AE4A02EB0012116006E0032804D18A
:106FC000A949AA4A02EB0012116000BF00BF28B90C
:106FD0000421A64A02EB0012516016E0012805D1F7
:106FE0000821A24A02EB001251600EE0022805D1EE
:106FF00002219E4A02EB0012516006E0032804D1F0
:1070000004219A4A02EB0012516000BF00BF28B968
:107010001E21964A02EB0012118116E0012805D1CB
:107020003221924A02EB001211810EE0022805D1B2
:107030001D218E4A02EB0012118106E0032804D1C3
:107040001E218A4A02EB0012118100BF874901EB21
:1070500000110968B1F1804F02D1874908701CE026
:10706000824901EB00110968824A914202D18349A9
:10707000087012E07D4901EB001109687A4A9142DB
:1070800002D17F49087008E0784901EB00110968D6
:10709000774A914201D17B490870704710B58AB098
:1070A00004462046FFF772FF704901EB041108689F
:1070B000FBF794F86D4901EB041148680121FAF7D8
:1070C000B4F940F6B830ADF820000720ADF81C0048
:1070D0000020ADF822001020ADF81E00634901EB3E
:1070E0000411086807A9FBF74DF9604800EB04108C
:1070F000007A8DF8180001208DF819008DF81A40DB
:107100008DF81B0006A8F9F7FAFB584901EB0411AA
:1071100008680121FBF792FD544901EB041108684E
:107120000121FBF751FF514901EB041101220868CD
:107130001146FBF79EFC4D4901EB04110868002144
:10714000FBF77CFC01A8FAF7F6F84F48406800F41A
:107150007060C0B103984100BDF81C00401CB1FB39
:10716000F0F0424901EB0411C8604848007850B182
:107170003E4800EB0410C16845A004F0B7FD49A0EB
:10718000039904F0B3FD00200AB010BD10B5044609
:10719000364901EB0411012208681146FBF769FC2E
:1071A000002010BD10B50446304901EB0411002247
:1071B00008680121FBF75DFC002010BD10B50446F6
:1071C0002A4901EB041108680121FBF711FF002097
:1071D00010BD10B50446254901EB041108680121D2
:1071E000FBF72CFC002010BD10B504461F4901EB35
:1071F000041108680021FBF721FC002010BD0246A5
:107200001A4800EB0210006881850020704710B515
:1072100001218807FBF7DBFE18B11748007800F062
:10722000EEFD10BD10B501211248FBF7D0FE18B1DC
:107230001248007800F0E3FD10BD10B501210A48A6
:10724000FBF7C5FE18B10E48007800F0D8FD10BD60
:1072500010B501210648FBF7BAFE18B109480078BD
:1072600000F0CDFD10BD000000080040480E0020D9
:10727000000C00400004004078000020790000204D
:107280007A0000207B0000200010024089000020CE
:107290004D74782046726571656E742025640D0A00
:1072A0000000000050434C4B315F467265717565BC
:1072B0006E63792025640D0A0000000010B50446B5
:1072C000002004EB4401FC4A02F8210004EBC40056
:1072D000FA4901EBC00090F82D0088B9182004EBA2
:1072E000C401F64A02EBC10181F83E0000BF00BFB5
:1072F000611CF3A0F9F7F0F800BF00BF012010BD3A
:1073000004EBC400ED4951F83000C4EBC40101EBBB
:107310004101F74A02EB81014968884221D304EB1D
:10732000C400E64901EBC00090F82C00012818D0F9
:1073300004EBC40001EBC00090F84400012810D118
:107340000C2004EBC401DD4A02EBC10181F83E00D0
:10735000002004EBC40102EBC10181F82D000120E3
:10736000CDE704EBC400D54951F83000F8B904EB7F
:10737000C40001EBC00090F82C00012817D004EBEA
:10738000C40001EBC00090F8440080B90C2004EB6D
:10739000C401CA4A02EBC10181F83E00002004EB9F
:1073A000C40102EBC10181F82D000120A7E70020F4
:1073B000A5E770B50446022004EBC401BF4A02EB06
:1073C000C10181F84500002004EBC40102EBC101BA
:1073D0004860C4EBC40000EB4000C54931F8200010
:1073E000800204EBC40102EBC1010862002004EB3F
:1073F000C40102EBC101C86004EBC40102EBC1018E
:107400008883C4EBC40000EB4000BA4A02EB800062
:10741000C16B2046884704EB4401A74A02EB810177
:10742000487004EBC400A54901EBC00090F82C00A3
:10743000012805D1002004EBC401A04A42F8310024
:10744000C4EBC40000EB4000A94901EB8000808B35
:1074500000F00400A8B1C4EBC40000EB4000A54A52
:1074600002EB8000416C2046884704EB4401924ABD
:1074700002EB81018870002004EB440102EB8101E2
:107480008880C4EBC40000EB4000994901EB800008
:10749000808B00F00200002833D004EBC400874941
:1074A00001EBC00090F84400012823D1C4EBC400D4
:1074B00000EB40008F4A02EB8000016C20468847B9
:1074C000C0B1192004EBC4017C4A02EBC10181F870
:1074D0003E00002004EBC40102EBC10181F82D0045
:1074E00000BF00BF611C84A0F8F7F6FF00BF00BF1B
:1074F000012070BD002004EB44016F4A02EB8101C2
:107500000881C4EBC40000EB4000794901EB800026
:10751000808B00F0080098B304EBC400674901EBCE
:10752000C00090F84400012823D1C4EBC40000EB54
:107530004000704A02EB8000816C20468847C0B949
:107540001A2004EBC4015D4A02EBC10181F83E0040
:10755000002004EBC40102EBC10181F82D0000BF43
:1075600000BF611C70A0F8F7B7FF00BF00BF01208B
:10757000BFE7002004EB44014F4A02EB8101488140
:10758000C4EBC40000EB4000594B03EB8000006CDF
:1075900004EBC403494D05EBC3039B8B30F8131078
:1075A000C4EBC40000EB4000524B03EB8000426B85
:1075B0002046904700209CE7014601EBC1003F4A6E
:1075C00002EBC000406801EBC1023C4B03EBC2027E
:1075D000128D90422ED201EBC1001A4602EBC00080
:1075E000806801EBC10203EBC202128D904221D9E7
:1075F000C1EBC10000EB40003D4A02EB8000006C93
:1076000001EBC10203EBC202928B30F8120001EBD6
:10761000C10203EBC202106201EBC1001A4602EB89
:10762000C000808B401C01EBC10203EBC2029083BF
:1076300001207047032001EBC102204B03EBC20283
:1076400082F84500002001EBC10203EBC2029083E7
:1076500000BFEEE7014601EBC100184A02EBC00093
:10766000806801EBC102154B03EBC2025268801A1D
:1076700001EBC10203EBC202528D90420CD901EB27
:10768000C1001A4602EBC000006A01EBC10203EB25
:10769000C202106201207047042001EBC102074BB7
:1076A00003EBC20282F84500002001EBC10203EBAC
:1076B000C202908300BFEEE7481100207010002046
:1076C0004D742564206D52756E466C6167203D3D9A
:1076D0002030205B4552525F4D4F544F525F464C15
:1076E00041475F53544154455D200D0A000000009E
:1076F000780E0020740F00204D742564206D7441B5
:10770000727269766552656164205B4552525F4DC5
:107710004F544F525F4152524956455F5354415462
:10772000455D200D0A0000004D742564206D7443F2
:107730007261736852656164205B4552525F4D4FC0
:10774000544F525F43524153485F53544154455D37
:10775000200D0A00014601EBC100FE4A02EBC00009
:10776000806801EBC102FB4B03EBC2025268801A36
:1077700068D0F948007802282ED0C1EBC10000EB98
:107780004000F64A02EB8000806C01EBC10203EB83
:10779000C202928B30F8120001EBC10203EBC2026D
:1077A000106201EBC1001A4602EBC000828B01EBB4
:1077B000C10003EBC000808F801E824240DA01EBE3
:1077C000C1001A4602EBC000808B401C01EBC102D5
:1077D00003EBC202908333E001EBC100DD4A02EB10
:1077E000C000808B002816DDC1EBC10000EB40001B
:1077F000DA4A02EB8000826C01EBC100D54B03EB4F
:10780000C000808B401E32F8100001EBC10203EB78
:10781000C202106214E0C1EBC10000EB4000CF4A8D
:1078200002EB8000806C01EBC102CA4B03EBC20289
:10783000928B30F8120001EBC10203EBC20210621E
:1078400001207047052001EBC102C24B03EBC202CD
:1078500082F84500002001EBC10203EBC2029083D5
:1078600000BFEEE738B5044604EBC400B94901EBAC
:10787000C00090F82C00012814D104EBC40001EBE7
:10788000C000C06870B904EBC40001EBC00090F800
:107890003E0038B90F2004EBC401AE4A02EBC1012F
:1078A00081F83E00C4EBC40000EB4000AC4A02EBA0
:1078B0008000816920468847C4EBC40000EB40008B
:1078C000A74901EB80000121C26C204690470020AF
:1078D00004EBC4019F4A02EBC10181F8450001207D
:1078E000A04081B26B4601229E480068FCF7F2FA84
:1078F000012038BD10B5044604EBC400954901EBE6
:10790000C00090F82D0000287BD0C4EBC40000EB31
:107910004000934A02EB800041692046884704EB0F
:10792000C4008C4B03EBC000006A81B2C4EBC400FE
:1079300000EB40008A4B03EB8000426B20469047EF
:1079400004EBC400834901EBC0004068401C04EB19
:10795000C401804A02EBC101486004EBC400114637
:1079600001EBC00090F82C00012873D004EBC40098
:1079700001EBC00090F84400012843D104EBC4009F
:1079800051F83000401C04EBC40142F8310004EB14
:10799000C400114651F83000C4EBC40101EB4101B1
:1079A0006E4A02EB8101496888420ED30C2004EB39
:1079B000C401684A02EBC10181F83E00002004EBDB
:1079C000C40102EBC10181F82D0004EBC400614940
:1079D00051F8300004EBC4015E4A02EBC10148617A
:1079E0005D48007850B31046C06DB0F5487F31D97E
:1079F0005A48B0F8700040F002015848A0F87010E2
:107A000028E0EFE104EBC400524901EBC00090F81C
:107A1000440098B904EBC40051F8300078B90C2048
:107A200004EBC4014B4A02EBC10181F83E00002087
:107A300004EBC40102EBC10181F82D000AE004EB64
:107A4000C400444951F83000401E04EBC401414ACF
:107A500042F83100C4EBC40000EB4000404A02EBA6
:107A60008000C16B2046884704EB44013E4A02EB8C
:107A70008101497888420DD004EBC400354901EBFF
:107A8000C000C068401C04EBC401324A02EBC101D3
:107A9000C86025E004EBC4002E4901EBC000C068BB
:107AA000052816D9C4EBC40000EB40002B4901EBBC
:107AB0008000C08BA0B104EBC400264901EBC000DC
:107AC000C068401C04EBC401224A02EBC101C8603B
:107AD00006E0002004EBC4011E4A02EBC101C860AD
:107AE00004EBC4001B4901EBC00090F82C000128F6
:107AF00018D104EBC40001EBC000C068052811D107
:107B000004EBC40001EBC000406804EBC401114A5F
:107B100002EBC10109690844401F04EBC40102EBF8
:107B2000C1018860C4EBC40000EB40000B4901EBCD
:107B30008000808B00F00200E8B304EBC40005492C
:107B400001EBC00090F84400012850D1C4EBC40000
:107B50000CE000007010002091000020780E002042
:107B6000740F0020840000204811002000EB40002A
:107B7000FE4A02EB8000016C2046884778B304EB94
:107B80004400FB4901EB80000089401C04EB4401E8
:107B9000F74A02EB8101088104EB4400114601EB36
:107BA00080000089012822D104EBC400F14901EBD7
:107BB000C000406800E01AE0C4EBC40101EB4101E1
:107BC000ED4A02EB81018989084404EBC401E94ACA
:107BD00002EBC10188600220E849087007E0FFE776
:107BE000002004EB4401E24A02EB81010881C4EB6E
:107BF000C40000EB4000E04901EB8000808B00F006
:107C0000040000287DD0C4EBC40000EB4000D74A3C
:107C100002EB8000416C2046884704EB4401D44AC3
:107C200002EB81018978884252D004EB440011466E
:107C300001EB80008088401C04EB440102EB8101D1
:107C4000888004EB4400114601EB8000C088401C92
:107C500004EB440102EB8101C88004EB44001146AF
:107C600001EB8000C088052839D1002004EB4401D5
:107C700002EB81018880C4EBC40000EB4000BB4AEA
:107C800002EB8000416C2046884704EB4401B84A6F
:107C900002EB8101887004EB4400114601EB800087
:107CA000807830B9002004EB440102EB8101C880E8
:107CB00015E004EB4400AE4901EB80008078012818
:107CC0000DD104EB4401AA4A02EB8101C88006E011
:107CD000002004EB4401A64A02EB8101888004EBFA
:107CE0004400A34901EB80008088C4EBC40101EB90
:107CF0004101A14A02EB8101C989884210DD1720A8
:107D000000E00DE004EBC4019A4A02EBC10181F8E6
:107D10003E00002004EBC40102EBC10181F82D00FC
:107D2000C4EBC40000EB4000934901EB8000808B62
:107D300000F00800B8B304EBC4008E4901EBC000AA
:107D400090F8440001282ED1C4EBC40000EB4000A1
:107D5000864A02EB8000816C2046884718BB04EB02
:107D60004400834901EB80004089401C04EB44013E
:107D70007F4A02EB8101488104EB4400114601EB8C
:107D80008000408905280ED10D2004EBC401794AFA
:107D900002EBC10181F83E00002004EBC40102EBBC
:107DA000C10181F82D00C4EBC40000EB40006F4A14
:107DB00002EB800081692046884704EBC4006D49CE
:107DC00001EBC000806804EBC4016A4A02EBC10108
:107DD0004968884206D1002004EBC40102EBC101CE
:107DE00081F82D0004EBC400624901EBC00090F85B
:107DF0002D0010B92046FFF735FD002010BD10B54D
:107E00000446C4EBC40000EB4000584A02EB80007B
:107E1000416A20468847C4EBC40000EB4000534A47
:107E200002EB8000816A2046884704EBC400514978
:107E300001EBC00090F84500022806D003280AD0C4
:107E400004280ED0052818D111E02046FFF7B4FB16
:107E500000B122E000BF2046FFF7FCFB00B11CE0B0
:107E600000BF2046FFF776FC00B116E000BF2046B9
:107E7000FFF7F8FC00B110E000BF112004EBC401D3
:107E80003C4A02EBC10181F83E00002004EBC40132
:107E900002EBC10181F82D0000BF00BF2046FFF7B3
:107EA00029FDC4EBC40000EB4000304A02EB800027
:107EB000016A2046884710BD70B504460D4605BBD3
:107EC0002046FFF7FBF908B1122070BD2046FFF7EE
:107ED00070FA08B11320F8E7C4EBC40000EB4000CF
:107EE000224A02EB8000816820468847C4EBC40028
:107EF00000EB40001D4A02EB8000C16A2046884723
:107F000013E0C4EBC40000EB4000184A02EB800011
:107F1000416820468847C4EBC40000EB4000134A88
:107F200002EB8000016B204688470020CDE73EB57C
:107F30000446002002900190C4EBC40000EB400016
:107F40000D4901EB80004088C4EBC40101EB410105
:107F5000094A32F82110884236DC0020C4EBC40103
:107F600001EB410102EB8101886209E0740F0020FE
:107F70004811002070100020780E00209100002091
:107F8000C4EBC40101EB410102EB8101C862C4EB07
:107F9000C40101EB410102EB81010863C4EBC401A0
:107FA00001EB410102EB81014863C4EBC40101EB29
:107FB000410102EB81018863C4EBC40101EB410183
:107FC00002EB8101C8636DE1C4EBC40000EB40002B
:107FD000FE4901EB80004088C4EBC40101EB410184
:107FE000FA4A32F82110401A0290C4EBC40000EBA8
:107FF0004000114601EB8000008A30BBC4EBC40096
:1080000000EB400001EB8000408AF0B9C4EBC400F3
:1080100000EB400001EB8000808AB0B90020C4EB87
:10802000C40101EB410102EB81018862C4EBC40190
:1080300001EB410102EB8101C862C4EBC40101EB19
:10804000410102EB810108637DE0C4EBC40000EB59
:108050004000DE4901EB8000008AC4EBC40101EB63
:108060004101DA4A02EB8101498A022202FB010046
:10807000C4EBC40101EB4101D44A02EB8101898ABE
:1080800008440299C902B1FBF0F00190C4EBC401AD
:1080900001EB410102EB810101988862C4EBC4004D
:1080A00000EB4000114601EB8000008AB8B1C4EB40
:1080B000C40000EB400001EB8000806AC4EBC40107
:1080C00001EB410102EB8101098AB0FBF1F0C4EB45
:1080D000C40101EB410102EB8101C86208E000200C
:1080E000C4EBC40101EB4101B84A02EB8101C86253
:1080F000C4EBC40000EB4000B44901EB8000808A6F
:10810000C0B1C4EBC40000EB400001EB8000806A0A
:10811000C4EBC40101EB4101AC4A02EB8101898A45
:10812000B0FBF1F0C4EBC40101EB410102EB8101B2
:10813000086308E00020C4EBC40101EB4101A34A3D
:1081400002EB81010863C4EBC40000EB40009F49CF
:1081500001EB8000C08A38BBC4EBC40000EB4000D8
:1081600001EB8000008BF8B9C4EBC40000EB4000C9
:1081700001EB8000408BB8B90020C4EBC40101EBD7
:108180004101924A02EB81014863C4EBC40101EB57
:10819000410102EB81018863C4EBC40101EB4101A1
:1081A00002EB8101C8637DE0C4EBC40000EB40003A
:1081B000864901EB8000C08AC4EBC40101EB410198
:1081C000824A02EB8101098B022202FB0100C4EB0F
:1081D000C40101EB41017D4A02EB8101498B084456
:1081E0000299C902B1FBF0F00190C4EBC40101EBAC
:1081F000410102EB810101984863C4EBC40000EB2C
:108200004000114601EB8000C08AB8B1C4EBC40045
:1082100000EB400001EB8000406BC4EBC40101EBBC
:10822000410102EB8101C98AB0FBF1F0C4EBC4014A
:1082300001EB410102EB8101886308E00020C4EBFF
:10824000C40101EB4101614A02EB81018863C4EB87
:10825000C40000EB40005D4901EB8000408BC0B1E1
:10826000C4EBC40000EB400001EB8000406BC4EBAA
:10827000C40101EB4101554A02EB8101498BB0FB7E
:10828000F1F0C4EBC40101EB410102EB8101C863D1
:1082900008E00020C4EBC40101EB41014B4A02EBB2
:1082A0008101C8634A480078002835D0C4EBC40077
:1082B00000EB4000454901EB8000006B0090C4EBEF
:1082C000C40000EB400001EB8000C36AC4EBC400B3
:1082D00000EB400001EB8000826A21463DA003F0E4
:1082E00005FDC4EBC40000EB4000384901EB800001
:1082F000C06B0090C4EBC40000EB400001EB8000B9
:10830000836BC4EBC40000EB400001EB8000426BC8
:1083100021463CA003F0EAFC00203EBD2DE9F74FCA
:1083200088B00446012500274FF00009C4EBC400C3
:1083300000EB4000254931F82080002600200790FE
:1083400004EBC4003B4901EBC000C08D069004EB78
:10835000C40001EBC000C08D04EBC401354A02EB40
:10836000C101098E084480B2059004EBC400114697
:1083700001EBC000C08D04EBC40102EBC101098E0A
:10838000084404EBC40102EBC101498E08441FFA02
:1083900080FAC4EBC40000EB40000C4901EB800004
:1083A000C06A06994843049004EBC400114601EBEF
:1083B000C000808E039004EBC40001EBC000808EEF
:1083C00004EBC40102EBC101C98E35E0780E002038
:1083D000890000204D742564206E4163634D6178EF
:1083E000203D20256420206E416363416363203D6E
:1083F00020256420206E416363446563203D202571
:10840000640D0A004D742564206E4465634D6178E7
:10841000203D20256420206E446563416363203D38
:1084200020256420206E446563446563203D20253B
:10843000640D0A0070100020084480B2029004EB22
:10844000C400114601EBC000808E04EBC40102EBB6
:10845000C101C98E084404EBC40102EBC101098FBC
:1084600008441FFA80FBC4EBC40000EB40009E49A7
:1084700001EB8000806B03994843019004EBC4003A
:10848000114601EBC000A0F83AA004EBC40001EBD8
:10849000C000A0F83CB095480078002826D094A0F1
:1084A000069903F023FC95A0059903F01FFC5146A3
:1084B00095A003F01BFC97A0039903F017FC98A06C
:1084C000029903F013FC594698A003F00FFC9AA000
:1084D000049903F00BFC9CA0019903F007FC9E4853
:1084E00000EB0410C1689DA003F000FC7DE006983D
:1084F000854216D2C4EBC40000EB40007A4901EB80
:108500008000C06A00FB05F905FB09F0C60AC4EB50
:10851000C40000EB400031F8200030441FFA80F81E
:108520003FE00598854210D20698C0EB45000499BB
:108530004843C60AC4EBC40000EB40006A4931F866
:10854000200030441FFA80F82BE0554528D2C4EBB8
:10855000C40000EB4000644901EB8000006BAAEB13
:10856000050100FB01F9C4EBC40000EB40005E49CB
:1085700001EB8000408A504404994843C10AAAEBA9
:10858000050000FB09F0A1EBD026C4EBC40000EB12
:108590004000554931F8200030441FFA80F800E0CF
:1085A00024E06D4800EB0410C068B0FBF8F0C4EBA9
:1085B000C40101EB41014C4A02EB8101096C21F835
:1085C00017004A48007870B1C4EBC40000EB4000CB
:1085D000114601EB8000006C30F8173042463946F6
:1085E00064A003F083FB6D1C7F1C80E700BF09982B
:1085F000078000270125CDF81C806CE00398854298
:1086000011D2C4EBC40000EB4000374901EB8000FD
:10861000806B00FB05F905FB09F0C60A0798801B73
:108620001FFA80F833E0029885420AD20398C0EB23
:10863000450001994843C60A0798801B1FFA80F835
:1086400025E05D4522D2C4EBC40000EB4000264982
:1086500001EB8000C06BABEB050100FB01F9C4EB43
:10866000C40000EB4000204901EB8000008B58441F
:1086700001994843C10AABEB050000FB09F0A1EBEF
:10868000D0260798801B1FFA80F800E024E03248CB
:1086900000EB0410C068B0FBF8F0C4EBC40101EBC0
:1086A0004101114A02EB8101896C21F817000F4842
:1086B000007870B1C4EBC40000EB4000114601EB40
:1086C0008000806C30F817304246394629A003F00C
:1086D0000DFB6D1C7F1C91E700BF0A980780B8B2A4
:1086E0000BB0BDE8F08F0000780E0020890000205C
:1086F0005431203D2025640D0A0000005432203DF5
:108700002025640D0A0000005433203D2025640D0F
:108710000A0000005435203D2025640D0A000000A9
:108720005436203D2025640D0A0000005437203DBA
:108730002025640D0A000000486163634D617820C4
:108740003D2025640D0A0000486465634D61782072
:108750003D2025640D0A0000480E00204D74785F0E
:1087600054696D65725F46726571203D2025640D08
:108770000A000000256420667265712025642020AF
:108780006172722025640D0A000000002DE9F0419D
:1087900004460D4604EBC400F64901EBC0008560B9
:1087A000C4EBC40000EB4000F34901EB8000008AF9
:1087B000C4EBC40101EB4101EF4A02EB8101498A9C
:1087C0000844C4EBC40101EB410102EB8101898A39
:1087D0000844C4EBC40101EB410102EB8101C98AE9
:1087E0000844C4EBC40101EB410102EB8101098B98
:1087F0000844C4EBC40101EB410102EB8101498B48
:1088000008441FFA80F845454FD3C4EBC40000EB81
:108810004000114601EB8000008A04EBC401D54AF8
:1088200002EBC101C885C4EBC40000EB4000D24993
:1088300001EB8000408A04EBC40102EBC101088611
:10884000C4EBC40000EB4000CB4901EB8000808A00
:1088500004EBC40102EBC1014886C4EBC40000EB89
:108860004000C54901EB8000C08A04EBC40102EB63
:10887000C1018886C4EBC40000EB4000BE4901EB97
:108880008000008B04EBC40102EBC101C886C4EB7D
:10889000C40000EB4000B84901EB8000408B04EBC2
:1088A000C40102EBC101088709E1C4EBC40000EB7D
:1088B0004000B14901EB8000008AC4EBC40101EB28
:1088C0004101AD4A02EB8101898A0844C4EBC4012D
:1088D00001EB410102EB8101C98A0844C4EBC401E8
:1088E00001EB410102EB8101498B084487B2BD4293
:1088F00041D3C4EBC40000EB4000114601EB800003
:10890000008A04EBC4019B4A02EBC101C885002028
:1089100004EBC40102EBC1010886C4EBC40000EB08
:108920004000954901EB8000808A04EBC40102EB12
:10893000C1014886C4EBC40000EB40008E4901EB46
:108940008000C08A04EBC40102EBC10188860020CC
:1089500004EBC40102EBC101C886C4EBC40000EB08
:108960004000854901EB8000408B04EBC40102EB21
:10897000C1010887A3E0C4EBC40000EB40007E49BE
:1089800001EB8000008AC4EBC40101EB41017A4A8B
:1089900002EB8101898A08446843B0FBF7F086B294
:1089A000C4EBC40000EB4000114601EB8000008ADC
:1089B000C4EBC40101EB410102EB8101898A01444E
:1089C000C4EBC40000EB400002EB8000008A70435F
:1089D00090FBF1F004EBC401664A02EBC101C885CB
:1089E000002004EBC40102EBC1010886C4EBC40003
:1089F00000EB4000604901EB8000008AC4EBC40139
:108A000001EB41015C4A02EB8101898A0144C4EB1C
:108A1000C40000EB400002EB8000808A704390FBB2
:108A2000F1F004EBC401534A02EBC1014886C4EBE8
:108A3000C40000EB4000504901EB8000C08AC4EB49
:108A4000C40101EB41014C4A02EB8101498B014415
:108A5000C4EBC40000EB400002EB8000C08A70430E
:108A600090FBF1F004EBC401424A02EBC10188869D
:108A7000002004EBC40102EBC101C886C4EBC400B2
:108A800000EB40003C4901EB8000C08AC4EBC4010C
:108A900001EB4101384A02EB8101498B0144C4EBEF
:108AA000C40000EB400002EB8000408B704390FB61
:108AB000F1F004EBC4012F4A02EBC10108872F48F3
:108AC0000078002835D004EBC4002A4A02EBC0002D
:108AD000C18D2BA003F00AF904EBC400254A02EB78
:108AE000C000018E2AA003F001F904EBC400214A62
:108AF00002EBC000418E2AA003F0F8F804EBC4009A
:108B00001C4A02EBC000818E29A003F0EFF804EBB1
:108B1000C400184A02EBC000C18E29A003F0E6F899
:108B200004EBC400134A02EBC000018F28A003F03D
:108B3000DDF804EBC4000F4B03EBC00000F12A0288
:108B400004EBC40003EBC00000F128012046FFF74E
:108B5000E5FB0A48007858B104EBC400054B03EB71
:108B6000C000428D04EBC40003EBC000018D37E070
:108B700042E0000070100020780E002089000020E4
:108B80006D537465707331203D2025640D0A00001B
:108B90006D537465707332203D2025640D0A00000A
:108BA0006D537465707333203D2025640D0A0000F9
:108BB0006D537465707335203D2025640D0A0000E7
:108BC0006D537465707336203D2025640D0A0000D6
:108BD0006D537465707337203D2025640D0A0000C5
:108BE000F3A003F083F804EBC400F94A02EBC000E1
:108BF0008168F8A003F07AF8BDE8F0812DE9FC4126
:108C000004460D46FCF795FB074600BF00BF611CFC
:108C1000F5A0F7F761FC00BF00BF01A8009001209C
:108C2000A04081B22B468322F3480068FBF712F87C
:108C300004EBC400E64901EBC00090F82D00E0B160
:108C4000FCF777FBC61B002004EBC401E04A02EBF3
:108C5000C10181F82D00E948007810B1E8A003F0C7
:108C600045F800BF00BF3246611CE8A0F7F734FCAE
:108C700000BF00BF0B20BDE8FC8104EBC400D44959
:108C800001EBC00090F83E00F5E72DE9F0470446FF
:108C9000884615461E460027B9460EB942F21076A0
:108CA000B8F1000F02D13846BDE8F08741462046B2
:108CB000FFF76CFD002004EBC401C54A02EBC101C3
:108CC00081F82C0004EBC400114601EBC00080F8D1
:108CD0004450012D0AD1C4EBC40000EB4000D24A3D
:108CE00002EB800001692046884709E0C4EBC4001C
:108CF00000EB4000CC4A02EB8000C1682046884768
:108D0000012004EBC401B24A02EBC10181F82D003D
:108D1000C4EBC40000EB4000C34901EB800000211C
:108D2000C26C2046904707460FB13846BCE7FCF7B7
:108D30000BFC8146B048006800890121A1408843AE
:108D4000AD49096808814846FCF702FC31462046D7
:108D5000FFF754FF0746A948007838B104EBC40078
:108D60009B4A52F83010B1A002F0C0FF38469BE792
:108D70002DE9FE4F04460D469246002002908346A0
:108D800004EBC400924951F83000A84202D10020FF
:108D9000BDE8FE8F04EBC4008D4951F83000A842B5
:108DA00008D904EBC40051F83000401B86B24FF0E4
:108DB000000908E004EBC400854951F83000281A86
:108DC00086B24FF0010934BBB6F5167F23DC9B4811
:108DD000B0F802B0584604F0C8FC07464FF06632BF
:108DE000974B04F0D5FCCDE9000104F091FC9349C8
:108DF00048800020FFF79BF853464A4631462046FC
:108E0000FFF743FF02908D48A0F802B00020FFF763
:108E10008EF80298BCE753464A4631462046FFF793
:108E200034FFB5E72DE9F0470446884615461E464F
:108E300000BF4FF000090EB942F21076C4EBC40037
:108E400000EB40007D4A02EB800041682046FFF7BE
:108E50009DFC04EBC4005E4901EBC000C0F810802B
:108E600004EBC40001EBC00080F84450012D0AD18E
:108E7000C4EBC40000EB40006B4A02EB80000169C8
:108E80002046884709E0C4EBC40000EB4000664A76
:108E900002EB8000C16820468847012004EBC40132
:108EA0004B4A02EBC10181F82D00C4EBC40000EB7A
:108EB00040005D4901EB80000021C26C20469047D4
:108EC000074617B13846BDE8F087FCF73DFB814601
:108ED0004948006800890121A14088434649096842
:108EE00008814846FCF734FB31462046FFF786FEF2
:108EF00007464248007888B104EBC400344A02EBCC
:108F0000C000C1684FA002F0F1FE04EBC400304A7B
:108F100002EBC00041684FA002F0E8FE3846D2E7FD
:108F20002DE9F041044688460025002004EBC401E9
:108F3000274A02EBC10181F83E00012004EBC40185
:108F400002EBC10181F82C00C4EBC40000EB40002F
:108F50003A4901EB8000C08B40B30127C4EBC40049
:108F600000EB400001EB8000068943463A4631465B
:108F70002046FFF757FF054615B12846BDE8F081AA
:108F80000A20F7F712FAC4EBC40000EB40002B49AB
:108F900001EB8000068943463A4631462046FFF7FA
:108FA00041FF0546002D7DD02846E7E75AE0000046
:108FB0006D5374657073416363202564202C206DAC
:108FC00053746570734465632025640D0A000000C6
:108FD000701000206D5374657073546F74616C2051
:108FE00025640D0A000000004D7425645F57616917
:108FF00074696E67200D0A0084000020890000203B
:1090000074696D6572206F760D0A00004D742564D9
:109010002074696D6572206F76205B74696D6520C0
:109020003D2025645D0D0A00740F00206D537465AA
:1090300070734375722025640D0A0000780E0020BD
:109040006666E63F747269676765722025640D0A7B
:109050000000000072756E20706F732025640D0A89
:1090600000000000C4EBC40000EB4000F54A02EB36
:109070008000C16B20468847C4EBC40101EB41016D
:10908000F14A02EB810191F84F10884217D1012774
:10909000C4EBC40000EB4000114601EB80004689A0
:1090A000434600E08FE03A4631462046FFF7BAFEDD
:1090B00005460DB1284661E70A20F7F776F9C4EBBB
:1090C000C40000EB4000DF4A02EB8000C16B204689
:1090D0008847C4EBC40101EB4101DB4A02EB81018B
:1090E00091F84F10884201D1142047E70027C4EBC4
:1090F000C40000EB4000D44901EB800006894346E0
:109100003A4631462046FFF78DFE05460DB128460A
:1091100034E70A20F7F749F9C4EBC40000EB40003C
:10912000C84A02EB8000C16B20468847C4EBC401EB
:1091300001EB4101C44A02EB810191F84F108842D2
:1091400001D014201AE70127C4EBC40000EB400053
:10915000BD4901EB8000468943463A4631462046E8
:10916000FFF760FE05460DB1284607E70A20F7F72E
:109170001CF9C4EBC40000EB4000B24A02EB8000D3
:10918000C16B20468847C4EBC40101EB4101AE4AE4
:1091900002EB810191F84F10884201D11420EDE6D5
:1091A0000027C4EBC40000EB4000A74901EB80009E
:1091B000068943463A4631462046FFF733FE0546C8
:1091C0000DB12846DAE62846D8E62DE9F0410446F6
:1091D0000F460025002004EBC4019C4A02EBC101AC
:1091E00081F83E00012004EBC40102EBC10181F8CB
:1091F0002C00C4EBC40000EB4000934901EB80005D
:10920000C08B98B10126C4EBC40000EB400001EB19
:109210008000B0F808803B46324641462046FFF7C2
:1092200001FE0546ADB32846BDE8F081C4EBC4009D
:1092300000EB4000834A02EB8000C16B2046884768
:10924000C4EBC40101EB41017F4A02EB810191F8BB
:109250004F10884209D101263A4600212046FFF7E7
:1092600087FD0546ADB12846DEE70026C4EBC40005
:1092700000EB4000744901EB8000B0F808803B46E9
:10928000324641462046FFF7CDFD05460DB1284642
:10929000CAE7FFE72846C7E72DE9F04104460D4637
:1092A000904604EBC400694951F83000A84202D14D
:1092B0000020BDE8F08104EBC400644951F830009F
:1092C000A8421CD904EBC40051F83000401B86B200
:1092D0000027C4EBC40101EB41015B4A02EB8101B1
:1092E000088C00EBD071B6EB610F25DD04EBC400F8
:1092F000564951F83000401B86B201271CE004EBB0
:10930000C400524951F83000281A86B20127C4EB34
:10931000C40101EB41014C4A02EB8101088C00EBD6
:10932000D071B6EB610F07DD04EBC400474951F87B
:109330003000401B86B2002743463A46314620465D
:10934000FFF7A3FCB5E72DE9F84F0446894692469E
:10935000DDF828B000200090002700260025B9F194
:10936000000F75DDC4EBC40000EB4000364901EB93
:109370008000408C48456BDBC4EBC40000EB400030
:1093800001EB8000808C09FB00A0C4EBC40101EB61
:1093900041012D4A02EB8101098C90FBF1F201FBA6
:1093A000120087B204EBC400284951F83000C4EB26
:1093B000C40101EB4101244A02EB8101098CB0FB9D
:1093C000F1F201FB120086B204EBC4001F4941F820
:1093D0003060B74260D0B7423BDDB81B85B2C4EB0A
:1093E000C40000EB4000184901EB8000008CB5EB95
:1093F000600F24DD4FF00008C4EBC40000EB400018
:1094000001EB8000008C401B85B204EBC4000F49C7
:1094100051F83000A84237D204EBC40051F83000B4
:10942000C4EBC40101EB4101074A02EB8101098C45
:10943000084404EBC401054A42F8310024E04FF02F
:10944000010821E0740F0020780E00207010002029
:109450002AE0F01B85B2C4EBC40000EB40001449C5
:1094600001EB8000008CB5EB600F0BDD4FF00108C5
:10947000C4EBC40000EB400001EB8000008C401BFB
:1094800085B201E04FF000085B464246294620467F
:10949000FFF7FBFB009009E004EBC400054941F82D
:1094A00030600098BDE8F88F0620FBE70098F9E7E8
:1094B000780E00207010002070B5044600BF54B92B
:1094C0004FF4FA50C4EBC40101EB4101FB4A02EB3B
:1094D0008101488025E0012C0AD142F21070C4EBD2
:1094E000C40101EB4101F54A02EB8101488018E01B
:1094F000022C0AD141F65830C4EBC40101EB410102
:10950000EE4A02EB810148800BE0032C09D14FF4B5
:10951000FA50C4EBC40101EB4101E84A02EB8101BE
:10952000488000BF00BF4CB94FF47A70C4EBC4014F
:1095300001EB4101E14A22F8210022E0012C09D18E
:109540004FF4FA60C4EBC40101EB4101DB4A22F89D
:10955000210016E0022C09D14FF47A70C4EBC4014B
:1095600001EB4101D54A22F821000AE0032C08D181
:109570004FF47A70C4EBC40101EB4101CF4A22F8E9
:10958000210000BF00BF54B94FF4FA60C4EBC4011E
:1095900001EB4101C94A02EB8101486025E0012C41
:1095A0000AD141F27070C4EBC40101EB4101C34A1E
:1095B00002EB8101486018E0022C0AD14CF25030D5
:1095C000C4EBC40101EB4101BC4A02EB81014860DC
:1095D0000BE0032C09D14CF25030C4EBC40101EB79
:1095E0004101B64A02EB8101486000BF00BF4CB99F
:1095F0003220C4EBC40101EB4101B04A02EB81010E
:10960000088222E0012C09D13220C4EBC40101EB15
:109610004101AA4A02EB8101088216E0022C09D11D
:109620007820C4EBC40101EB4101A44A02EB8101A3
:1096300008820AE0032C08D13220C4EBC40101EBFC
:1096400041019E4A02EB8101088200BF00BF4CB974
:109650005020C4EBC40101EB4101984A02EB8101A7
:10966000488222E0012C09D16420C4EBC40101EB43
:109670004101924A02EB8101488216E0022C09D195
:109680007820C4EBC40101EB41018C4A02EB81015B
:1096900048820AE0032C08D13220C4EBC40101EB5C
:1096A0004101864A02EB8101488200BF00BF4CB9EC
:1096B0003220C4EBC40101EB4101804A02EB81017D
:1096C000888222E0012C09D16420C4EBC40101EBA3
:1096D00041017A4A02EB8101888216E0022C09D10D
:1096E0006420C4EBC40101EB4101744A02EB810127
:1096F00088820AE0032C08D13220C4EBC40101EBBC
:1097000041016E4A02EB8101888200BF00BF4CB963
:109710003220C4EBC40101EB4101684A02EB810134
:10972000C88222E0012C09D16420C4EBC40101EB02
:109730004101624A02EB8101C88216E0022C09D184
:109740007820C4EBC40101EB41015C4A02EB8101CA
:10975000C8820AE0032C08D13220C4EBC40101EB1B
:109760004101564A02EB8101C88200BF00BF4CB9DB
:109770005020C4EBC40101EB4101504A02EB8101CE
:10978000088322E0012C09D16420C4EBC40101EB61
:1097900041014A4A02EB8101088316E0022C09D1FB
:1097A0007820C4EBC40101EB4101444A02EB810182
:1097B00008830AE0032C08D13220C4EBC40101EB7A
:1097C00041013E4A02EB8101088300BF00BF4CB952
:1097D0003220C4EBC40101EB4101384A02EB8101A4
:1097E000488322E0012C09D16420C4EBC40101EBC1
:1097F0004101324A02EB8101488316E0022C09D173
:109800006420C4EBC40101EB41012C4A02EB81014D
:1098100048830AE0032C08D13220C4EBC40101EBD9
:109820004101264A02EB8101488300BF00BF4CB9C9
:109830000120C4EBC40101EB4101204A02EB81018C
:10984000888322E0012C09D10B20C4EBC40101EB79
:1098500041011A4A02EB8101888316E0022C09D1EA
:109860000120C4EBC40101EB4101144A02EB810168
:1098700088830AE0032C08D10120C4EBC40101EB6A
:1098800041010E4A02EB8101888300BF00BF4CB941
:10989000C820C4EBC40101EB4101084A02EB81017D
:1098A000088124E0012C0BD1C820C4EBC40101EBDA
:1098B0004101024A02EB8101088118E0780E002084
:1098C000022C09D1FA20C4EBC40101EB4101FE4A8C
:1098D00002EB810108810AE0032C08D1C820C4EB07
:1098E000C40101EB4101F84A02EB8101088100BF8C
:1098F00000BF4CB9C820C4EBC40101EB4101F24ADE
:1099000002EB8101488122E0012C09D1C820C4EB7F
:10991000C40101EB4101EC4A02EB8101488116E0F0
:10992000022C09D1C820C4EBC40101EB4101E64A75
:1099300002EB810148810AE0032C08D1C820C4EB66
:10994000C40101EB4101E04A02EB8101488100BF03
:10995000C4EBC40000EB4000DB4901EB8000808BCE
:1099600000F0040078B300BF4CB90020C4EBC40180
:1099700001EB4101D44A02EB8101C88122E0012CB4
:1099800009D10020C4EBC40101EB4101CE4A02EB36
:109990008101C88116E0022C09D10020C4EBC4016A
:1099A00001EB4101C84A02EB8101C8810AE0032CA6
:1099B00008D10020C4EBC40101EB4101C24A02EB13
:1099C0008101C88109E0FFE70020C4EBC40101EB7D
:1099D0004101BD4A02EB8101C881C4EBC40000EB28
:1099E0004000B94901EB8000808B00F0020078B3A1
:1099F00000BF4CB90520C4EBC40101EB4101B24AE0
:109A000002EB8101888122E0012C09D12020C4EBE6
:109A1000C40101EB4101AC4A02EB8101888116E0EF
:109A2000022C09D10020C4EBC40101EB4101A64A7C
:109A300002EB810188810AE0032C08D10520C4EBE8
:109A4000C40101EB4101A04A02EB8101888109E0D8
:109A5000FFE70020C4EBC40101EB41019A4A02EB8D
:109A60008101888100BF4CB90020C4EBC40101EB27
:109A70004101954A02EB8101C88322E0012C09D102
:109A80000020C4EBC40101EB41018F4A02EB8101CC
:109A9000C88316E0022C09D10020C4EBC40101EBFD
:109AA0004101894A02EB8101C8830AE0032C08D1F5
:109AB0000020C4EBC40101EB4101834A02EB8101A8
:109AC000C88300BFC4EBC40000EB40007E4901EB3B
:109AD0008000C08BD8B300BF4CB90020C4EBC401D8
:109AE00001EB4101784A02EB8101088422E0012C5C
:109AF00009D10020C4EBC40101EB4101724A02EB21
:109B00008101088416E0022C09D10020C4EBC401B5
:109B100001EB41016C4A02EB810108840AE0032C4D
:109B200008D10020C4EBC40101EB4101664A02EBFD
:109B30008101088400BF00BF54B90020C4EBC401F8
:109B400001EB4101604A02EB8101488423E03DE0E2
:109B5000012C09D10020C4EBC40101EB41015A4A98
:109B600002EB8101488416E0022C09D10020C4EBED
:109B7000C40101EB4101544A02EB810148840AE02F
:109B8000032C08D10020C4EBC40101EB41014E4A73
:109B900002EB8101488400BFC4EBC40000EB40002D
:109BA000494901EB8000008CC4EBC40101EB410189
:109BB000454A02EB8101498C90FBF1F0C4EBC401F2
:109BC00001EB410102EB810188840FE00020C4EB2E
:109BD000C40101EB41013C4A02EB81010884C4EB62
:109BE000C40101EB410102EB8101488400BF54B97B
:109BF0000120C4EBC40101EB4101334A02EB8101B6
:109C000081F84E0025E0012C0AD10120C4EBC401EB
:109C100001EB41012C4A02EB810181F84E0018E072
:109C2000022C0AD10020C4EBC40101EB4101264AF9
:109C300002EB810181F84E000BE0032C09D10020DA
:109C4000C4EBC40101EB41011F4A02EB810181F821
:109C50004E0000BF00BF54B90120C4EBC40101EBAA
:109C60004101194A02EB810181F84F0025E0012CE6
:109C70000AD10020C4EBC40101EB4101124A02EBFE
:109C8000810181F84F0018E0022C0AD10020C4EBBA
:109C9000C40101EB41010C4A02EB810181F84F0044
:109CA0000BE0032C09D10020C4EBC40101EB4101FE
:109CB000054A02EB810181F84F0000BF034800EB29
:109CC000C420C4EBC40103E0780E00206C11002016
:109CD00001EB4101834A02EB81010864824800EBF9
:109CE000C420C4EBC40101EB410102EB8101886493
:109CF0007E4800EB0410C068C4EBC40101EB4101D5
:109D000032F82110B0FBF1F085B2784901EB041173
:109D100008682946F9F728F9002070BD0146744803
:109D2000C1EBC10202EB4202724B03EB8202D06133
:109D30007148C1EBC10202EB420203EB82021062E6
:109D40006E48C1EBC10202EB420203EB8202506299
:109D50006B48C1EBC10202EB420203EB820290624C
:109D60006848C1EBC10202EB420203EB8202D062FF
:109D70006548C1EBC10202EB420203EB82021063B1
:109D80006248C1EBC10202EB420203EB8202506364
:109D90005F48C1EBC10202EB420203EB8202906317
:109DA0005C48C1EBC10202EB420203EB8202D063CA
:109DB0005948C1EBC10202EB420203EB820210647C
:109DC0005648C1EBC10202EB420203EB820250642F
:109DD0005348C1EBC10202EB420203EB82029064E2
:109DE0005048C1EBC10202EB420243F822004E4848
:109DF000C1EBC10202EB420203EB820250614B480D
:109E0000C1EBC10202EB420203EB820290614848BF
:109E1000C1EBC10202EB420203EB820250604548F3
:109E2000C1EBC10202EB420203EB820290604248A6
:109E3000C1EBC10202EB420203EB8202D0603F4859
:109E4000C1EBC10202EB420203EB820210613C480B
:109E5000C1EBC10202EB420203EB8202D06400209C
:109E6000704710B504462046FFF758FFC4EBC40006
:109E700000EB40001F4A02EB8000C1692046884782
:109E80002046FFF719FBC4EBC40000EB4000194A61
:109E900052F8201020468847C4EBC40000EB400075
:109EA000144A02EB8000816B20468847C4EBC40053
:109EB00000EB40000F4901EB80000121C26C2046FD
:109EC00090472046FEF733F8002010BD10B500245F
:109ED00000BF04E02046FFF7C4FF601CC4B2032C9F
:109EE000F8DB10BD780E00206C290020480E002001
:109EF0009D700008740F00208D710008A571000886
:109F0000BD710008D3710008E9710008FF710008F5
:109F10005F690008A16A0008C76A0008EF6A0008C4
:109F2000176B0008C36D00089F6E0008AB6D00083A
:109F3000B76E0008936D0008CF6E00081F6F000811
:109F4000B97E000810B5F6F7A8FAF6F7DBFAFBF7CA
:109F500055FBFCF7A5F8FCF7A7FAFBF7F6FF4FF463
:109F60008071394800F0A7F8FFF7B0FF01F0E2F880
:109F700000F080FE00F0F8FC10BD30B587B004465C
:109F8000002500BFFBF7E0FA0546FFF7DBFF0020E6
:109F9000FAF78BFB2D4908600020FAF786FB2C4965
:109FA000086006A90020F9F7EFFC2A490860F9F7D4
:109FB0008BFA032000214FF48062274BCDE9013258
:109FC000CDE9031004200346244A00902448FAF700
:109FD0000EFE032000214FF48062224BCDE90132B6
:109FE000CDE90310052003461F4A00901F48FAF7E9
:109FF000FEFD032000214FF480721D4BCDE901329C
:10A00000CDE90310062003461A4A00901A48FAF7D1
:10A01000EEFD0320FBF714F82846FBF799FA07B08A
:10A0200030BD10B5F6F728F9F6F76EF9F9F70DF926
:10A030000323124A0021AFF2BD00FAF781FDF9F7C0
:10A040002BFA002010BD0000A48600207C00002018
:10A0500080000020840000206C61002068710020D6
:10A06000B1AE00086C710020688100201DBC0008A2
:10A070006C81002068850020B9AF0008686100206D
:10A08000D5480078401CD4490870012080F310881E
:10A0900000BF7047D048007860B1CF480078401EBC
:10A0A000CD4908700846007820B9002080F3108858
:10A0B00000BF00BF704710B50A46014601F1180302
:10A0C0004B600B6000230B61A2F118034B6101F19F
:10A0D00018034C6923448B6000238B8110BD10B59D
:10A0E00003460C461A46D2E90401884214D2FFF70F
:10A0F000C7FF506804705068401C5060D2E90101ED
:10A10000884202D302F1180050601069401C1061AF
:10A11000FFF7C0FF002010BD0120FCE710B502468C
:10A120000B461146D1E90404A04210D248680370DE
:10A130004868401C4860D1E90104A04202D301F103
:10A14000180048600869401C0861002010BD01200B
:10A15000FCE72DE9F05F06468A4617463446D4E907
:10A160000401884202D30020BDE8F09F0FB900200F
:10A17000FAE7206938446169884203D9D4E90410B8
:10A18000451A00E03D4660682844A16888420FD225
:10A19000FFF776FF2A465146606801F0B3FE60681B
:10A1A00028446060206928442061FFF773FF1EE0A7
:10A1B000FFF766FFD4E90110A0EB010842465146C3
:10A1C000606801F09FFEA5EB08090AEB080B04F19B
:10A1D000180060604A465946606801F093FE606866
:10A1E00048446060206928442061FFF753FF2846F7
:10A1F000BAE72DE9F05F06468A4617463446D4E9A9
:10A200000401884202D30020BDE8F09F0FB900206E
:10A21000FAE7206938446169884203D9D4E9041017
:10A22000451A00E03D4660682844A16888420BD288
:10A230002A465146606801F065FE60682844606007
:10A240002069284420611AE0D4E90110A0EB01083C
:10A2500042465146606801F055FEA5EB08090AEB3D
:10A26000080B04F1180060604A465946606801F026
:10A2700049FE60684844606020692844206128469F
:10A28000C2E72DE9FF4F81B00746884699463C4614
:10A2900061690398814201D2666900E0039ECA4663
:10A2A0000FE02069B04200D30CE0B9F1000F08D0F4
:10A2B000BAF1000F00D105E00120F6F776F8AAF117
:10A2C000010AEEE700BF206900283BD0FFF7D8FE67
:10A2D0002069B04201D2256900E035462068284453
:10A2E000A16888420BD22A464046216801F00AFE46
:10A2F0002068284420602069401B20611CE0216800
:10A30000A068A0EB010BA5EB0B0000905A4640465D
:10A31000216801F0F7FD04F118002060D84421689D
:10A320004046009A01F0EEFD216800980844206044
:10A330002069401B206100BFFFF7ACFE284605B036
:10A34000BDE8F08F0020FAE72DE9F04706460F46FA
:10A35000154634464FF00109A84610E020694845EB
:10A3600000D30DE00120FAF733FF45B1B8F1000F3B
:10A3700000D105E00120FAF72BFFA8F10108EDE775
:10A3800000BF2069B0B1FFF77BFE2068007838700D
:10A390002068401C2060A1682068884202D304F134
:10A3A000180020602069401E2061FFF773FE012025
:10A3B000BDE8F0870020FBE710B503460A461946C2
:10A3C000012A03D1D1E90440001B10BD022A01D1AA
:10A3D0004869FAE70869F8E788000020FE48008825
:10A3E0000012FE4949680870FB480078FB4949683B
:10A3F0004870F94840880012F84949688870F64862
:10A400008078F6494968C870F34880880012F3499B
:10A4100049680871F0480079F04949684871EE4888
:10A42000C0880012ED4949688871EB488079EB4992
:10A430004968C871E84800890012E849496808720B
:10A44000E548007AE54949684872E34840890012C6
:10A45000E24949688872E048807AE0494968C872F0
:10A46000DD4880890012DD4949680873DA48007BBD
:10A47000DA4949684873D848C0890012D749496801
:10A480008873D548807BD5494968C873D248008A0B
:10A490000012D24949680874CF48007CCF49496806
:10A4A0004874CD48408A0012CC4949688874CA482B
:10A4B000807CCA494968C874C748808A0012C74965
:10A4C00049680875C448007DC44949684875C24850
:10A4D000C08A0012C14949688875BF48807DBF495C
:10A4E0004968C875BC48008B0012BC4949680876A9
:10A4F000B948007EB94949684876B748408B001290
:10A50000B64949688876B448807EB4494968C876B7
:10A51000B148808B0012B14949680877AE48007F86
:10A52000AE4949684877AC48C08B0012AB494968CE
:10A530008877A948807FA9494968C877A648008CD0
:10A540000012A649496881F82000A34890F820002D
:10A55000A249496881F821009F48408C00129F4918
:10A56000496881F822009C4890F822009B4949687C
:10A5700081F823009848808C00129849496881F836
:10A580002400954890F824009449496881F82500F2
:10A590009148C08C00129149496881F826008E4884
:10A5A00090F826008D49496881F827008A48008D77
:10A5B00000128A49496881F82800874890F82800E5
:10A5C0008649496881F829008348408D00128349F3
:10A5D000496881F82A00804890F82A007F49496834
:10A5E00081F82B007C48808D00127C49496881F8F5
:10A5F0002C00794890F82C007849496881F82D00A2
:10A600007548C08D00127549496881F82E0072485E
:10A6100090F82E007149496881F82F006E48008E2D
:10A6200000126E49496881F830006B4890F830009C
:10A630006A49496881F831006748408E00126749CD
:10A64000496881F83200644890F8320063494968EB
:10A6500081F83300704770B5002400255F4800780A
:10A6600031281AD15D48008928B105205B4948701E
:10A670000220088112E04FF4807435252A4656499D
:10A680002046FBF791FDFFF7A9FE0020524981F813
:10A69000340034205149088100E000BF00BF70BD84
:10A6A0004E48406840784D494968097800EB0120E0
:10A6B0004949088049484068C078484949688978CC
:10A6C00000EB0120444948804448406840794349B0
:10A6D0004968097900EB01203F4988803F4840687C
:10A6E000C0793E494968897900EB01203A49C88020
:10A6F0003A484068407A39494968097A00EB0120B4
:10A700003549088135484068C07A34494968897AB2
:10A7100000EB01203049488130484068407B2F4998
:10A720004968097B00EB01202B4988812B48406850
:10A73000C07B2A494968897B00EB01202649C881F2
:10A7400026484068407C25494968097C00EB012087
:10A750002149088221484068C07C20494968897C99
:10A7600000EB01201C4948821C484068407D1B4981
:10A770004968097D00EB012081B2174881821748A2
:10A780004068C07D15494968897D00EB012081B290
:10A790001148C18211484068407E10494968097ECD
:10A7A00000EB012081B20C4801830C484068C07E58
:10A7B0000A494968897E00EB012081B2064841833D
:10A7C00006484068407F05494968097F00EB012041
:10A7D00081B20148818303E06C850020C888002095
:10A7E00066484068C07F65494968897F00EB012061
:10A7F00081B26348C1836148406890F821005F4995
:10A80000496891F8201000EB01205D4908845B48FD
:10A81000406890F823005949496891F8221000EBEC
:10A82000012081B2564841845448406890F8250080
:10A830005249496891F8241000EB012081B2504838
:10A8400081844E48406890F827004C49496891F847
:10A85000261000EB012081B24948C1844748406876
:10A8600090F829004549496891F8281000EB01202B
:10A8700081B2434801854148406890F82B003F4928
:10A88000496891F82A1000EB012081B23C484185CB
:10A890003A48406890F82D003849496891F82C10E2
:10A8A00000EB012081B2364881853448406890F839
:10A8B0002F003249496891F82E1000EB01203049F1
:10A8C000C8852E48406890F831002C49496891F8B5
:10A8D000301000EB01202A4908862848406890F88B
:10A8E00033002649496891F8321000EB01202449D1
:10A8F0004886704770B5002400252048007830282D
:10A900001AD11E480089342805D005201B494870FB
:10A910000220088111E04FF480743525FFF7C0FE56
:10A920000020174981F834002A462046FBF785FCB1
:10A9300000201249088100E000BF00BF70BD10B5C3
:10A940000E480078302802D0312806D102E0FFF707
:10A95000D1FF03E0FFF77FFE00E000BF00BF074824
:10A9600000F037FA204610BD10B5002003490881D9
:10A9700031200870FFF76FFE10BD0000C88800206E
:10A980006C85002010B50024AE480078012802D064
:10A9900004283BD127E0AB48008928B10520A9490C
:10A9A00048700220088137E00122A648436820460B
:10A9B000611CCCB21A540022A24843682046611C94
:10A9C000CCB21A5403229F4843682046611CCCB283
:10A9D0001A5414229B4843682046611CCCB21A5476
:10A9E0009848048118E097480089012805D005207F
:10A9F00094494870022008810EE09248406800782F
:10AA00009149087000208F49088105E007208D4991
:10AA100048700220088100BF00BF8A4800F0D9F9C1
:10AA200010BD2DE9FC410020009001900025012679
:10AA3000002786480078102802D0112875D137E009
:10AA400082480089042805D00520804948700220EA
:10AA5000088170E07D4840680078401EC5B27B48A0
:10AA60004068467879484068817878484068C0787E
:10AA700061F31F200746072D05DB06207349487048
:10AA80000220088157E03EB1704949680978491EA3
:10AA9000C8B2FBF724FD0AE06C4949680978491EF1
:10AAA000C8B2FBF70DFD39462846FBF73AFD42E0F8
:10AAB00066480089012805D00520644948700120B6
:10AAC000088138E0614840680078401EC5B2072D13
:10AAD00005DB06205D494870022008812BE05B48B9
:10AAE000406800788DF800002846FBF707FD8DF8D8
:10AAF0000100062D07D19DF8010008B9012000E0F2
:10AB000000208DF80100022050490881002406E051
:10AB10001DF804004D4949680855601CC4B24B48F3
:10AB20000089A042F4DC06E0FFE7072047494870AF
:10AB30000220088100BF00BF444800F04AF9BDE888
:10AB4000FC812DE9F04704460E4600270025AA4661
:10AB5000A046A946072E02DA4FF0010914E098F842
:10AB60000000AB2802D04FF002090DE098F8010078
:10AB7000802802D04FF0030906E0701E18F800008C
:10AB8000CD2801D04FF00409E078A17840EA0127F0
:10AB900025794FEA251AB9F1000F3FD1BAF1000F1C
:10ABA00009D0BAF1010F13D0BAF1020F1DD0BAF1DA
:10ABB000030F31D123E023480570781E2149088115
:10ABC0000A894868611D01F09DF9FFF7DBFE24E06A
:10ABD0001E480570781E1D4908810A894868611D54
:10ABE00001F090F9FFF71DFF17E0324621461848A3
:10ABF000FFF7AFFA17480068F9F78CFE0DE016482A
:10AC00000570781E144908810A894868611D01F0A1
:10AC100079F9FFF794FE00E000BF11E009480570E4
:10AC200080F80190022007490881084600F0D1F819
:10AC300000BF00BF494609A0F5F74EFC00BF00BFAA
:10AC4000BDE8F087A488002089000020B08800209B
:10AC50005489002080000020C88800207061636B48
:10AC6000657420636865636B206572725B25645D43
:10AC7000200D0A00FF20A8498870A8484860FF20DE
:10AC8000A7498870A74848600220A7498870A7484C
:10AC90004860FF20A6498870A648486070472DE9A3
:10ACA000F84F81460C46002000900027002682467F
:10ACB0000025804683E000BF00BF9DF800109EA0E5
:10ACC000F5F70AFC00BF00BFB8F1070F75D2DFE847
:10ACD00008F0040A1A2A3D4B59004FF001080027DA
:10ACE0000026002500BF9DF80000AB2808D19DF884
:10ACF00000202846691C8DB222544FF0020801E062
:10AD00004FF000085AE09DF80000802808D19DF817
:10AD100000202846691C8DB222544FF0030801E040
:10AD20004FF000084AE09DF800202846691C8DB2CB
:10AD300022549DF8000000EB0720C7B2701CC6B279
:10AD4000022E02D14FF00408002637E09DF80020C3
:10AD50002846691C8DB22254701CC6B2BE4202D174
:10AD60004FF00508002629E09DF800202846691CC0
:10AD70008DB22254701CC6B2012E02D14FF00608CB
:10AD800000261BE09DF80000CD2813D19DF800207F
:10AD90002846691C8DB2225405F0FF0A00BF00BF8F
:10ADA000217967A0F5F798FB00BF00BF5046BDE8CA
:10ADB000F88F02E04FF0000800E000BF00BF0A2259
:10ADC00069464846FFF7C0FA00287FF474AF504642
:10ADD000EDE72DE9F0410446002600270025A846AE
:10ADE000AB205C490870202048706078D8B1C02042
:10ADF0004870A07861680870607861684870A078D1
:10AE0000FF280CD0A07800EBC000534901EBC00034
:10AE100090F83E00616888700320208101E00220E4
:10AE20002081002060702089401C87B23812494977
:10AE30008870CF7020780871002506E06068415D59
:10AE4000681D444A1154681C85B22089A842F5DC6B
:10AE50002089401D3F4901F80080CD212089801DB7
:10AE60003C4A11542089C01D86B231461046FBF77A
:10AE7000ADF800BF00BF39A0F5F72EFB00BF00BF43
:10AE800000250AE000BF00BF3248415D2AA0F5F767
:10AE900023FB00BF00BF681C85B2B542F2DB00BFD8
:10AEA00000BF31A0F5F718FB00BF00BFBDE8F0817F
:10AEB00008B500242FE000BF00BF2CA0F5F70CFB65
:10AEC00000BF00BF6A4600212D480068F9F773FCF7
:10AED00000BF00BF2BA0F5F7FFFA00BF00BF2E494F
:10AEE0002E48FFF7DCFE041E03D021462A48FFF758
:10AEF00028FE2A48006958B100BF00BF28A0F5F716
:10AF0000EBFA00BF00BF1E480068F9F703FD02E03E
:10AF1000002028490870CEE7A4880020D4880020AB
:10AF2000B0880020E4880020BC880020F48800203D
:10AF3000C88800201489002030582578200000009F
:10AF4000A1BE434D44203D2030582578A1BF200D9F
:10AF50000A000000A487002070100020A1BE5365E5
:10AF60006E643AA1BF0000000D0A00006D69642004
:10AF700073656D2070656E64696E67200D0A000050
:10AF80007C0000206D69642073656D2070656E64BF
:10AF9000206F6B200D0A0000A4850020A4860020ED
:10AFA0006D69642073656D20706F737420320D0AB3
:10AFB000000000008A000020002600250024AAE0EE
:10AFC0000120FAF705F9701C86B2B6F5FA7F08D1B0
:10AFD00000265148006808B9012000E000204E49D1
:10AFE0000860FBF7B2FA4D48D0F89010012088476E
:10AFF0004B4991F8A31088420AD14FF400414948C7
:10B00000F5F7F3FD4FF400514648F5F7EEFD11E07A
:10B0100045480078012804D1C1034248F5F7E7FD0F
:10B0200008E041480078032804D14FF400513D481E
:10B03000F5F7DDFD3D480078002867D1BDB9062051
:10B04000FBF75CFA002866D00A20FAF7C1F8062060
:10B05000FBF754FA00285ED00A20FAF7B9F8062068
:10B06000FBF74CFA002856D00125002453E0012DAF
:10B070002FD1641C2E4800884FF47A714843A042B7
:10B0800049D800240620FBF739FA002843D00A20CB
:10B09000FAF79EF80620FBF731FAA0B1022500BFAF
:10B0A0000420FBF70DFA0520FBF728FA28B9002544
:10B0B00000BF0420FBF713FA2DE002250024042032
:10B0C000FBF7FEF927E0002500240420FBF707FA30
:10B0D00021E0022D1FD1641C41F27070844204D320
:10B0E000002400250420FBF7FAF90520FBF706FAF7
:10B0F00088B90A20FAF76CF80520FBF7FFF950B978
:10B10000002400250420FBF7EAF904E000240025D0
:10B110000420FBF7E4F953E788012242740F002072
:10B12000780E002000140140920000208C000020C6
:10B130008E00002008B501212020F6F769F94FF4B0
:10B140000070ADF8000010208DF8030003208DF88A
:10B1500002006946FA48F5F79BFC4FF40071F84885
:10B16000F5F745FD4FF40040ADF8000010208DF8D4
:10B17000030003208DF802006946F148F5F788FCCA
:10B180004FF40041EE48F5F730FD4FF40050ADF8B4
:10B19000000010208DF8030003208DF8020069469E
:10B1A000E748F5F775FC4FF40051E548F5F71DFD4C
:10B1B00008BD2DE9F0470646002500270024A146DA
:10B1C000A04634787778F078B17800EB01201FFA48
:10B1D00080F841460120FDF7F8FF05462DB101201A
:10B1E000D84988702846BDE8F0876420F9F7F0FF59
:10B1F000D54800EB4400B0F8009042464946002094
:10B20000FDF7B6FD054635B10020D0490870CD499F
:10B2100088702846E7E7052C03DC0120CB4908703D
:10B2200008E0062C03DC0220C849087002E0032075
:10B23000C64908706420F9F7CBFFC548B0F8700024
:10B2400020F00201C248A0F87010012F14D1002C88
:10B2500050D0601EBC49123101EB4000B0F80090A4
:10B26000424649460120FDF783FD0546F5B301201E
:10B27000B44988702846B6E7022F13D1B4B3601ED4
:10B28000B149203101EB4000B0F8009042464946F8
:10B290000120FDF76DFD054645B30120A9498870E1
:10B2A0002846A0E7032F25D104B3601EA64920310C
:10B2B00001EB4000B0F80090A548B0F8700040F0F5
:10B2C0000201A348A0F87010424649460120FDF74C
:10B2D0004FFD05469E48B0F8700020F002019C48E2
:10B2E000A0F8701015B10120964900E002E08870C6
:10B2F000284678E7284676E72DE9F04F85B00446E2
:10B300000026B0460025A94600200490824600276A
:10B310008346257894F80190A07804902079E1780C
:10B3200000EB01201FFA80FB207BE17A00EB01207B
:10B330001FFA80F841460120FDF747FF064636B167
:10B34000012080498870304605B0BDE8F08F32207A
:10B35000F9F73EFF7C4800EB450007884246394636
:10B360000020FDF705FD064636B10020774908703C
:10B37000744988703046E7E7052D03DC01207349E6
:10B38000087008E0062D03DC02207049087002E016
:10B3900003206E4908705020F9F71AFF6C48B0F886
:10B3A000700020F002016A48A0F87010BBF1000F95
:10B3B0001FD0002D7ED0681E6349203101EB400074
:10B3C0000088584507DD681E01EB40000088A0EBAF
:10B3D0000B0087B200E00027424639460120FDF706
:10B3E000C7FC0646002E6ED00120564988703046B4
:10B3F000AAE7B9F1010F14D1002D64D0681E52499B
:10B40000123101EB40000788424639460120FDF722
:10B41000AFFC0646002E56D001204A4988703046BF
:10B4200092E7B9F1020F13D1002D4CD0681E4649A6
:10B43000203101EB40000788424639460120FDF7E4
:10B4400097FC0646B6B301203E49887030467BE73C
:10B45000B9F1030F37D12DB1681E3B49203101EB03
:10B460004000078800213B48C16501203A49087027
:10B4700042463946FDF77CFC06463548B0F8700078
:10B4800020F002013248A0F8701000203249087004
:10B49000681E2D49203101EB400001882D48C06D08
:10B4A000081A0A2809D241460120FDF78EFE2A26F5
:10B4B0001EB100E007E0304646E726B101202149F1
:10B4C0008870304640E70220FBF709F8A0796179DF
:10B4D00000EB012087B2A07A617A00EB01204001E5
:10B4E000202101FB070087B200BF00BFB7F5206F26
:10B4F00038DB1748B0F8AAA0504602F036F9174AD0
:10B50000174BCDE9000102F043F9CDE9020102F049
:10B51000FFF881B20E48A0F8AA100220FCF707FD40
:10B5200000BF00BF434639460220049AFDF7ADFB39
:10B5300006460748A0F8AAA00220FCF7F8FC38E06D
:10B5400000140140BC8800206C850020920000207F
:10B55000780E00207010002091000020CDCCCCCCC3
:10B56000CCCCFC3FFE48B0F8AAA0504602F0FDF853
:10B570004FF03332FB4BCDE9000101F071FFCDE913
:10B58000020102F0C5F881B2F548A0F8AA10022025
:10B59000FCF7CDFC00BF00BF434639460220049AA9
:10B5A000FDF773FB0646EE48A0F8AAA00220FCF7C0
:10B5B000BEFC26B10220EC4988703046C4E6414604
:10B5C0000120FDF702FE064626B10120E6498870FB
:10B5D0003046B9E6207AE17900EB012087B27805A0
:10B5E000070C4346012239460220FDF74EFB064672
:10B5F00026B10220DC4988703046A5E63046A3E635
:10B600002DE9F047054600240027A046C82D02DB9F
:10B61000A5F1C80087B229460120FDF7D6FD0446F2
:10B6200014B12046BDE8F087D048B0F80C802A4617
:10B6300041460020FDF79CFB044634B10020CC4974
:10B640000870C94988702046ECE70220C849087094
:10B65000C648B0F82A802A4641460120FDF788FBFB
:10B66000044624B10120C04988702046DAE7022050
:10B67000FAF726FF0320FAF723FF3220F9F7A8FD97
:10B68000F9F757FE81460020FAF71AFF3220F9F742
:10B690009FFD0120FAF714FF3220F9F799FD2946A2
:10B6A0000220FDF792FD044624B10220AE498870C5
:10B6B0002046B7E71420F9F78BFD4FF00008AB48A0
:10B6C000C08D00EB08012B4601220220FDF7DDFAB8
:10B6D000044624B10220A44988702046A2E7F9F765
:10B6E00028FEA0EB0906A7F1C800B04204D9B91B97
:10B6F000A1F1C800F9F76CFD0120FAF7F0FEC820AF
:10B70000F9F766FD0020FAF7EAFE6E20F9F760FD12
:10B710000220FAF7E4FE2820F9F75AFD2B46002212
:10B7200041460220FDF7B1FA044624B102208E49B9
:10B730008870204676E729460120FDF746FD04463D
:10B7400024B101208849887020466BE78748408EE5
:10B7500040054FEA10482B46012241460220FDF7E2
:10B7600094FA044624B102207F498870204659E7A4
:10B77000C820F9F72DFD0320FAF7B1FE204651E766
:10B780002DE9F04106460025002700247448B0F852
:10B790005640204604EBD0714910714AA2F8561069
:10B7A0000120FCF7C4FB31460120FDF7B9FB05463B
:10B7B0006B48A0F856400120FCF7B9FB2DB10120E1
:10B7C000694988702846BDE8F0816420F9F700FDDA
:10B7D00063484488204604EBD0714910604A518088
:10B7E0000020FCF7A4FB31460020FDF799FB05463D
:10B7F0005B4844800020FCF79AFB35B100205C498F
:10B800000870594988702846DDE7012058490870BA
:10B810006420F9F7DDFC5548878932463946002017
:10B82000FDF7A6FA054635B10020514908704E498A
:10B8300088702846C7E702204D4908706420F9F750
:10B84000C7FC2846BFE710B500244FF400714948F3
:10B85000F5F7CBF90A20F9F7BBFC19E0601C84B2BC
:10B860004548D0F894100120884728B14FF4007162
:10B870004048F5F7BCF90CE01E2C06D14FF40071DE
:10B880003C48F5F7B4F9282010BD0A20F9F7A0FCD0
:10B89000E4E700BF4FF400713648F5F7A8F900203F
:10B8A000F2E72DE9F0470025A84600240027A1462D
:10B8B00000262D4800782038082870D2DFE800F0F4
:10B8C000047CC5DFFAF8F7F627480089032804D07E
:10B8D00005250220244908819CE12348406800781E
:10B8E000032804DD062502201F49088192E101207A
:10B8F000224908701C48406841781B48406880789D
:10B9000061F31F200746184840680078C0B3164806
:10B9100040680078401EC4B2C4EBC40000EB400095
:10B920000F4901EB8000468806EBD6714910C4EB45
:10B93000C40202EB42020A4B03EB82025180204612
:10B94000FCF7F5FA39462046FDF7EAFA0546C4EB5E
:10B95000C40000EB4000024901EB8000468010E08B
:10B96000780E00203333F33FBC8800206C85002024
:10B970009200002000140140740F0020900000206D
:10B9800012E02046FCF7D3FA0020C149088108469E
:10B99000847084B925B90120BE4908700BE034E1F8
:10B9A0000020BC49087006E03846FFF7E9FE05466E
:10B9B0000020B74908812DE1B5480089062804D048
:10B9C00005250220B249088124E1B1484068007889
:10B9D000012809D0AE4840680078022804D0AC485D
:10B9E0004068007803282BD1A94840680078401EA1
:10B9F000C4B2A748406890F80180A54840688178A3
:10BA0000A3484068C07861F31F208146A048406881
:10BA100001799F484068407961F31F2007463B4603
:10BA2000424649462046FDF730F905460020984930
:10BA30000881084684703CB900209649087003E0EC
:10BA40000625022092490881E4E0914800890428F3
:10BA500004D0052502208E490881DBE08E4800785D
:10BA600040B18B494868FFF7A4FB05460020884990
:10BA7000088103E02925022085490881CAE084481D
:10BA800000890D2804D00525022081490881C1E0E4
:10BA90007F494868FFF730FC05461DB100210120B1
:10BAA000FDF793FB00207A490881B3E089E07CE050
:10BAB00040E0FFE776480089022804D005250220EF
:10BAC00073490881A6E07448007868B170484068FE
:10BAD00001786F484068407861F31F200746384678
:10BAE000FFF78EFD054614E00020FFF749FE0546EE
:10BAF000002067490881084640680178644840682A
:10BB0000407861F31F2007463846FFF779FD054668
:10BB100029255DB10020FAF7E2FC0120FAF7DFFCED
:10BB20000220FAF7DCFC0320FAF7D9FC0020584980
:10BB300008816FE056480089052804D005250220B9
:10BB40005349088166E05248406890F800805048A8
:10BB5000406841784E484068807861F31F208146F4
:10BB60004FEA49504FEA10493B46424649460220B7
:10BB7000FDF78BF8054600BF00BFB8F1000F10D0ED
:10BB80003220F9F725FB4548408E40054FEA104921
:10BB90003B46002249460220FDF777F8054600BFE4
:10BBA00000BF00203A49088134E03948008920B1BB
:10BBB00005250220364908812CE0FFF744FE0546A2
:10BBC00028E033480089032804D0052502203049A5
:10BBD00008811FE02E4840680078314908702C48E1
:10BBE000406841782A484068807861F31F202D49D9
:10BBF000088008460088B0F5167F02DD4FF4967085
:10BC0000088000202249088104E0072502202049FD
:10BC1000088100BF00BF2846BDE8F08792B000242D
:10BC2000402101A800F0B3F94FF480711E48FEF7DF
:10BC300042FA1E48B0F8700020F002011B48A0F83C
:10BC4000701023E011AA002119480068F8F7B3FD2D
:10BC500001A91548FFF723F8C0B19DF80700401E61
:10BC60009DF8061040EA0120094908819DF8080066
:10BC700008700A8948680DF1090100F043F9FFF7DF
:10BC800010FE044602484470FFF7A3F8DAE700000C
:10BC9000BC88002092000020900000206C850020CD
:10BCA0008C0000208E00002054890020780E002097
:10BCB00080000020704700007CB51D4616460C0031
:10BCC000009001D02044401E074B7B442A46694621
:10BCD0000190304600F05BFA05461CB10020694631
:10BCE00000F068FA28467CBDF10400000FB4044956
:10BCF00010B503AA029800F06BFA10BC5DF814FBB3
:10BD0000040000202DE9F041064600241068752942
:10BD1000314616A510D000F08CF9002802DA404216
:10BD200013A507E031688A0701D512A502E049078B
:10BD300004D511A5012401E000F084F900210A22B4
:10BD400006F1240709E0B0FBF2FCB0FBF2F302FBC2
:10BD50001C00303078541846491C0028F3D1234683
:10BD60002A463046BDE8F04100F09EB900000000D0
:10BD70002D0000002B000000200000002DE9F05FE6
:10BD8000894604464FF0000ADFF874B1FB44C0F85E
:10BD900020A02046E1688847002874D0252806D0D6
:10BDA000D4E901219047206A401C2062F1E7002677
:10BDB0005F462046E16888472028054607DB312D8D
:10BDC00005D2781910F8200C08B10643F1E7B00746
:10BDD00001D526F00406C4F81CA00027C4F818A05A
:10BDE0002A2D09D0284601F007FB38B304EB870859
:10BDF000303DC8F8185019E059F8041B204604EBF0
:10BE000087029161E1688847012F054618D1E069F2
:10BE1000002820DA26F020061DE0D8F8180000EBF4
:10BE2000800005EB40003038C8F818002046E16873
:10BE30008847054601F0E0FA0028EED1012F0AD02C
:10BE40002E2D08D12046E16888477F1C0546022F29
:10BE500046F02006C4DBA069002803DA404246F021
:10BE60000106A061F00701D026F010066C2D0BD062
:10BE7000682D09D04C2D39D06A2D35D0742D35D090
:10BE80007A2D33D016E038E0E1682F462046884707
:10BE9000B842054609D16C2F26D04FF48060E16886
:10BEA000064320468847054604E06C2F1AD04FF41D
:10BEB000807006430DB3A5F14100192802D8203542
:10BEC00046F400664A462946204626604E46F4F768
:10BED00069F980B101280BD0F61D26F0070000F1AA
:10BEE000080956E74020E4E78020D8E70020D6E79D
:10BEF00006F104094DE7284652E7206ABDE8F09FA5
:10BF0000741D0000032A40F2308010F0030C00F092
:10BF1000158011F8013BBCF1020F624498BF11F883
:10BF200001CB00F8013B38BF11F8013BA2F104023C
:10BF300098BF00F801CB38BF00F8013B11F00303B4
:10BF400000F07682083AC0F0088051F8043B083AC5
:10BF500051F804CBA0E80810F5E7121D5CBF51F8BA
:10BF6000043B40F8043BAFF30080D20724BF11F834
:10BF7000013B11F801CB48BF11F8012B24BF00F899
:10BF8000013B00F801CB48BF00F8012B70474FF090
:10BF9000000200B5134694469646203922BFA0E819
:10BFA0000C50A0E80C50B1F12001BFF4F7AF090725
:10BFB00028BFA0E80C5048BF0CC05DF804EB890016
:10BFC00028BF40F8042B08BF704748BF20F8022B59
:10BFD00011F0804F18BF00F8012B70477047704771
:10BFE0007047704770B5044685690068C10601D581
:10BFF000302600E02026C00707D070BDD4E901211B
:10C0000030469047206A401C20626D1EF6D570BDF8
:10C0100070B5044685690078C00707D170BDD4E9C2
:10C02000012120209047206A401C20626D1EF6D519
:10C0300070BD09684A0501D540B27047C905FCD5F5
:10C0400000B2704709684A0501D5C0B27047C905FA
:10C05000FCD580B2704770B50C460546012A05D064
:10C060002878800600D5EA69002302E0012305E074
:10C070005B1C934202D2E05C0028F9D1A869E61863
:10C08000C01AA861286A184428622846FFF7AAFF48
:10C0900004E0D5E9012114F8010B9047B442F8D32C
:10C0A0002846FFF7B5FF70BD2DE9F0470D469946CC
:10C0B0009246044600F124080168880604D5E06928
:10C0C00021F01001216000E00120A84201DD471BA2
:10C0D00000E00027A1697A1902EB0900081AA061A3
:10C0E0002078C00602D42046FFF77CFF002608E037
:10C0F000D4E901211AF806009047206A401C761CFA
:10C1000020624E45F4DB2078C0060AD52046FFF7B2
:10C1100069FF06E0D4E9012130209047206A401CE5
:10C120002062381EA7F10107F4DC07E0D4E9012101
:10C1300018F805009047206A401C2062281EA5F1CF
:10C140000105F3DC2046FFF763FF2078000602D5E7
:10C150000220BDE8F0870120FBE711680268006A51
:10C16000530501D508700AE0D30501D5088006E023
:10C17000130603D5C217C1E9000200E008600120E0
:10C180007047000001694A1C02610878704700B5D9
:10C190008FB0CDE901310021059105497944CDE900
:10C1A000031011466846FFF7E9FD0FB000BD00001F
:10C1B000E5FFFFFF0A6802F8010B0A607047D1E94A
:10C1C00000239A4202D2531C0B601070704700008B
:10C1D000074B70B50D467B44FFF7D9FF0446284650
:10C1E00000F0D8FB10B14FF0FF3070BD204670BD9D
:10C1F0002F42FFFF2DE9FF5F15468A460446DFF810
:10C20000AC80F8440027D8E900103E46CDE9001084
:10C2100010E03AF816106A4602A800F0BFFB411C75
:10C2200007D02178890603D5E269391891420DD8E3
:10C230000744761C2078800602D5E069B84205DD07
:10C24000AE42E6DB3AF816000028E2D1A069C01B36
:10C25000A0612046FFF7C6FED8E90010CDE9001026
:10C26000002017E03AF818106A4602A800F096FB82
:10C27000B0F1FF3F81460BD000250DF1080B05E022
:10C28000D4E901211BF8050090476D1C4D45F7D3FB
:10C2900008F10100B0428046E4DB206A38442062A5
:10C2A0002046FFF7B5FEBDE8FF9F00001219000011
:10C2B0002DE9F0418046D21D22F007020025D2E987
:10C2C0000002F52915A614D0011E72F1000106DA4C
:10C2D0000023D0EB030063EB020211A608E0D8F8BC
:10C2E00000108B0701D50FA602E0490701D50EA665
:10C2F00001251146002408F1240704E000F0CAF8E3
:10C3000030323A55641C50EA0102F7D12B463246CE
:10C3100021464046BDE8F041FFF7C6BE00000000E0
:10C320002D0000002B0000002000000030B4002190
:10C3300000F1240408E002F00705D208303542EA93
:10C340004372DB086554491C52EA0305F3D10468C3
:10C35000002310A2250707D5A40600D421B1C46983
:10C3600001230DA2641EC46130BCFFF79DBE10B551
:10C37000044621461068FFF765FE02462046BDE8E8
:10C3800010400023D2E7D21D22F00701D1E900239B
:10C39000CCE700000000000030000000F0B40D46C3
:10C3A0000188090502D5214C7C4402E01F4C7C44E5
:10C3B0000E34002100F1240608E002F00F071209F4
:10C3C000E75D42EA03721B097754491C52EA0307EE
:10C3D000F3D102780023120704D5702D06D009B1DD
:10C3E000022311342246F0BCFFF75EBE0123103455
:10C3F000F8E770B504460D4621461068FFF722FEA7
:10C40000024629462046BDE870400023C6E7D21DFB
:10C4100022F00703D3E90023C0E70368126843F062
:10C42000200303600823C3610023B7E774170000EB
:10C4300010B5203AC0F00B80B1E81850203AA0E8BF
:10C440001850B1E81850A0E81850BFF4F5AF5FEAF3
:10C45000027C24BFB1E81850A0E8185044BF18C9A6
:10C4600018C0BDE810405FEA827C24BF51F8043B4D
:10C4700040F8043B08BF7047D20728BF31F8023BA1
:10C4800048BF11F8012B28BF20F8023B48BF00F835
:10C49000012B704730B5B0F10A024FEA900E71F1EE
:10C4A00000034EEA817EB0EB0E0061EB91014FEA92
:10C4B000101E4EEA017E10EB0E0041EB11114FEA07
:10C4C000102E4EEA016E10EB0E0041EB11214FEAE7
:10C4D000104E4EEA014E10EB0E0041EB1141401898
:10C4E00041F100014FEAD00040EA41704FEAD1012A
:10C4F00010EB80054FEA810444EA907444EB010498
:10C500006D1944EB0404521BA3414FF0000348BFD4
:10C510000A3200D530BD401C41F1000130BD7047EA
:10C520002DE9FF4F0C461E464FF0FF378BB0D2E986
:10C530000001DDF860800A908A46C1F30A5505B90A
:10C540003D46002108464FF00000BAF1000F00F40C
:10C55000400005DA00EB80004FF4400101EA500092
:10C560004FEA9059B9F1010F00DDB9460A9850EA37
:10C570004A000ED044F61050A5F2FF3545432F1463
:10C58000B8F1000F1ED07542291E1EDDC9F1000250
:10C590001CE0B8F1010F4FF0000001D0302103E0A2
:10C5A000F24305E02154401CB042FBDB3046002240
:10C5B000002121540B99C1F80880C1E900200FB077
:10C5C000BDE8F08FBD1B6D1CDEE74A4600DA69420C
:10C5D00006A800F075FA06AB93E8070003AB83E802
:10C5E000070050460A9900F02BFB8DE80700A0F5E4
:10C5F00000501F3800900398002D0ADD42F21F0101
:10C600004A460844002303A90390684600F094FDBD
:10C6100009E0A0F500504A461F38002303A9039003
:10C62000684600F09EFD8DE807000004000C03D072
:10C630004FF0FF30410800E01046B8F1000F03D082
:10C640000022009215461EE0751E05D4FFF722FF5A
:10C65000303262556D1EF9D5B3460122084302D02F
:10C6600000227F1C04E02078302801D100227F1EA8
:10C67000002A099784D01DE0112D07DAFFF70AFF81
:10C68000303262556D1C50EA0102F5D1084302D0E8
:10C690000098C8B10EE00021681E05E0235C625CD2
:10C6A00063542254401E491C8142F7DBAB46A81B51
:10C6B000401E0990002004F80B000B98099AC0F85E
:10C6C0000880C0E9002B7AE711264FF0000857E7F1
:10C6D0002DE9F04F88460446D21D22F0070191B0A3
:10C6E000D1E90001CDE90A0100F072FE02460B9883
:10C6F000C00F01D02D2007E02068810701D52B2035
:10C7000002E0202101EAC000032A099001D0072A93
:10C7100005DB03464146204600F092F90BE1207804
:10C72000800601D5E06900E00620B8F1650F81467A
:10C7300006D0B8F1660F18D0B8F1670F70D131E0AC
:10C740000020B9F1110F009001DB112301E009F184
:10C7500001030AAA01A90CA8FFF7E2FEDDE90C70AB
:10C76000002609F10105834647E001204B46009071
:10C770004FF000470AAA01A90CA8FFF7D1FEDDE996
:10C780000DB00C995D46002610B909F101000D1895
:10C79000B9EB050003D4C0F1FF3609F10105A5EBA3
:10C7A00009002BE0B9F1010F01DA4FF00109002077
:10C7B000B9F1110F0090484601DD112300E0034656
:10C7C0000AAA01A90CA8FFF7ABFEDDE90C704D46E3
:10C7D00000268346207800070AD4AB4500DA5D4680
:10C7E00001A8012D04DD411911F8011C302907D0E1
:10C7F0004F4502DA17F1040F04DA012082460FE0F8
:10C800006D1EEEE7002F02DCED1B3E4403E0781CBA
:10C81000A84200DD7D1CB81B00F1010A4FF0004763
:10C820002078000703D4AA4501DB4FF0FF3A00212E
:10C83000B7F1004F0DF143088DF8431024D00220CA
:10C840002B23002F01DA7F422D230A21021EA0F1A3
:10C85000010000DC5FB197FBF1FC97FBF1F201FBFB
:10C860001C7C17460CF1300C08F801CDEEE7A8F15E
:10C87000010003702188090501D5452100E06521EB
:10C88000A0F1010800F8011C09980FA9A1EB080705
:10C89000FF1D00B10120411901EBEA70A169384484
:10C8A000081A401EA0612078C00602D42046FFF777
:10C8B00099FB099828B1D4E901219047206A401CCE
:10C8C00020622078C00622D52046FFF78BFB1EE0B1
:10C8D000002E04DBB34502DD01A8805D00E03020BE
:10C8E000D4E901219047206A401C2062761CAAF1FD
:10C8F00001005FEA000A0AD100F09EF8C0680168F2
:10C90000405CD4E901219047206A401C2062281E27
:10C91000A5F10105DCDC07E0D4E9012118F8010BE1
:10C920009047206A401C2062381EA7F10107F3DC03
:10C930002046FFF76DFB032011B041E610B54369B7
:10C9400013B1AFF3008001E0FFF785FB012010BDBC
:10C95000127800F124010A7000224A700122EDE7EA
:10C9600011684FF0FF32E9E710B5436913B1AFF337
:10C97000008001E0FFF73EFC012010BD128800F1AD
:10C98000240182840022C2840122EDE711684FF065
:10C99000FF32E9E7007B00F08000704770B5164673
:10C9A0000C46054600F040F8036893F801010128A1
:10C9B00006D0FF2C0FD8185D68B101202C7070BD17
:10C9C000D3F807013246214603F2071303442846F1
:10C9D000BDE8704018474FF0FF3070BD754600F05D
:10C9E000EBF8AE4605006946534620F00700854641
:10C9F00018B020B5F3F778FEBDE820404FF00006F0
:10CA00004FF000074FF000084FF0000B21F0070136
:10CA1000AC46ACE8C009ACE8C009ACE8C009ACE879
:10CA2000C0098D467047000010B500F005F8001DE4
:10CA300010BD00BF010A000000487047748A002042
:10CA40002DE9F0411F46044603260168072A01F438
:10CA5000006004DB08B116A505E016A503E008B1E7
:10CA600015A500E015A521F010002060A069C01EEA
:10CA7000A0610FB1401EA0612046FFF7B3FA4FB18D
:10CA8000D4E9012138469047206A401C2062C01C2E
:10CA9000206206E0206AFAE7D4E9012115F8010BCB
:10CAA0009047761EF8D22046FFF7B2FABDE8F08133
:10CAB0004E414E006E616E00494E4600696E660042
:10CAC0002DE9F047814616468AB0354878440DC8AE
:10CAD0008DE80D0032487844801C03AC0DC884E812
:10CAE0000D0041F69B300844372190FBF1F290FB9A
:10CAF000F1F5A5F1800501FB12041B3C02D564424F
:10CB0000012000E00020DFF898A080460027FA44CA
:10CB1000AAF1BE0A0EE0E0070AD03246684607EBEB
:10CB2000470101230AEB810100F01BFB8DE80700A0
:10CB300064107F1C002CEED1194F7F44AE3F19E0EA
:10CB4000E80715D007EB04100DF1180A90E80E0065
:10CB50008AE80E00C068F04201D198190890324668
:10CB6000012306A903A800F0FCFA03AB83E8070041
:10CB70006D10641C002DE3D14FF00103324669466D
:10CB8000B8F1000F03A802D000F0D6FA01E000F0DF
:10CB9000E8FAC9E90001C9F808200AB0BDE8F08741
:10CBA000F410000010B50446AFF300802046BDE845
:10CBB0001040F3F75ABB000000487047548A002029
:10CBC0004FF0013C50F8042B51F8043B9A4221D11C
:10CBD000A2EB0C03934313EACC1317D150F8042BA8
:10CBE00051F8043B9A4215D1A2EB0C03934313EA8C
:10CBF000CC130BD150F8042B51F8043B9A4209D1C5
:10CC0000A2EB0C03934313EACC13DBD04FF00000EC
:10CC1000704700BFD01A01BAB1FA81F101F01801D2
:10CC200022FA01F0CB40C1F12001DBB2C0B2C01A40
:10CC30002CFA01F3D11A914311EAC311E6D17047DE
:10CC40005FEA400C08BF91F0000F4FEA8C234FEAD7
:10CC5000C12243EA51514FEA1C5018BF00F5F04081
:10CC60004FEA300018BF41F000415FEA6C5C00F011
:10CC70002980BCF1FF3F08BF40F080407047130C93
:10CC800006BF12044FF0100C4FF0000C130E04BF3F
:10CC900012020CF1080C130F04BF12010CF1040C6A
:10CCA000930F04BF92000CF1020CD30F04BF52008B
:10CCB0000CF1010C11464FF00002A0F11F00A0EB97
:10CCC0000C00704711F0004F08BF704731F0004171
:10CCD0003FF4D5AF0B0C06BF09044FF0100C4FF01A
:10CCE000000C0B0E04BF09020CF1080C0B0F04BF63
:10CCF00009010CF1040C8B0F04BF89000CF1020C2C
:10CD0000CB0F04BF49000CF1010CCCF12003A0EBC8
:10CD10000C0022FA03F302FA0CF241EA030100F1DB
:10CD20000100704720F07F4C80EA030023F07F472A
:10CD3000ACEB070303F57C5300F0004003F1FF0365
:10CD40002DE980494FEA154B09B44FEA144325EA0F
:10CD50000B4E24EA03480FF2042606EB132749087A
:10CD60003E785FEA320203FB0667C7F5000707FB60
:10CD700006F64FEA54374FEAD64606F1020607FB9D
:10CD8000066CCCF1005C4FEA1C472CEA074C07FB11
:10CD900006F40CFB06F504EB15464FEA961634BF75
:10CDA00000204FF000404FEAD13706FB07FC4FEA66
:10CDB0001C4C0CFB0BF7D21B03FB0CF761EB0701C0
:10CDC0000CFB0EF7B0EB074072EB17420CFB08F7B9
:10CDD00034BFA2EB0742B2EB074261EB17414FEAC7
:10CDE0000C444FEA910706FB07FC4FEA1C4C0CFB76
:10CDF0000BF7B0EBC74072EB573203FB0CF734BFB5
:10CE0000A2EBC742B2EBC74261EB57310CFB0EF706
:10CE1000B0EBC70072EB57720CFB08F734BFA2EB04
:10CE2000C702B2EBC70261EB5771039F4FEA816102
:10CE300041EA921104EBCC044FEAD1374FEA826207
:10CE400006FB07FC42EA90124FEA80604FEA1C4C56
:10CE50000CFB0BF7D21B03FB0CF761EB07010CFB80
:10CE60000EF7B0EB074072EB17420CFB08F734BF2C
:10CE7000A2EB0742B2EB074261EB17414FEA8C5538
:10CE80004FEA910704EB9C2406FB07FC4FEA1C4C7D
:10CE90000CFB0BF7B0EBC74072EB573203FB0CF700
:10CEA00034BFA2EBC742B2EBC74261EB57310CFB78
:10CEB0000EF7B0EBC70072EB57720CFB08F734BFEC
:10CEC000A2EBC702B2EBC70261EB577115EB4C2521
:10CED0004FEA816141EA92114FEA82624FEAD1370B
:10CEE00042EA901206FB07FC44F100044FEA80601E
:10CEF0004FEA1C4C0CFB0BF7D21B03FB0CF761EB4E
:10CF000007010CFB0EF7B0EB074072EB17420CFB6E
:10CF100008F734BFA2EB0742B2EB074261EB1741BF
:10CF200015EB1C154FEA813141EA92414FEA8232FA
:10CF300042EA90424FEA80304FEA0C7644F1000416
:10CF400048EA03434EEA0B484FF0000EB2EB080CE0
:10CF500071EB030724BF624639464EEB0E0E4FF0CD
:10CF6000000B0018524149414BEB0B0BB2EB080C84
:10CF700071EB03077BF1000B24BF624639464EEB91
:10CF80000E0E4FF0000B0018524149414BEB0B0BBA
:10CF9000B2EB080C71EB03077BF1000B24BF624678
:10CFA00039464EEB0E0E51EA020718BF46F0010655
:10CFB00016EB0E7655F1000254F1000103D5BDE8E1
:10CFC0008901BDE80088BDE88901BDE80048B619BF
:10CFD000524141EB0101A3F10103704780807F7E44
:10CFE0007D7C7B7A797877767675747372717170DF
:10CFF0006F6E6E6D6C6C6B6A6A6968686766666591
:10D000006464636362616160605F5F5E5E5D5D5C1E
:10D010005C5B5B5A5A59595858575756565555558F
:10D020005454535352525251515050504F4F4F4EEF
:10D030004E4D4D4D4C4C4C4B4B4B4A4A4A4949493D
:10D04000484848474747474646464545454444447F
:10D05000444343434342424242414141002B9C46A8
:10D0600030D477002BD01CB54FEA370703B44FF00C
:10D0700010004FF01001BAF1000F06D0BCF1000F04
:10D08000DCBF40F0080040F008014FF000000FBC8A
:10D09000BDE810400BF1010BBBF1010F08BF5FEAC7
:10D0A000170722BF12F1010211F101014FF00041F7
:10D0B00043F1000300F0004043EA00007047F9D359
:10D0C0005708D0E746EA064613F1400F4FEA1646E6
:10D0D0001FDD13F1200FDFBF16430A460021203366
:10D0E0005B42BED0C3F1200746EA064602FA07F7C4
:10D0F0004FEA164646EA0706C3F1200722FA03F272
:10D1000001FA07F721FA03F14FF0000342EA0702A0
:10D11000A7E746EA020646EA06464FEA164646EA08
:10D120000106BCBF46EA0646360C4FF000034FF03E
:10D1300000024FF0000194E72DE9804C9A46934697
:10D1400070B491E8380007C831EA400C48BF34EAAF
:10D15000430C03D5FFF7E6FDFFF780FFF0BCBDE809
:10D16000008C2DE9804C9A46934670B491E83800C3
:10D1700007C810F0804F08BF13F0804F03D100F0B4
:10D1800005F8FFF76BFFF0BCBDE8008C20F07F478F
:10D1900080EA030023F07F4C07EB0C03A3F57C53DC
:10D1A00000F00040A3F1FE0392F0000F00F0B38006
:10D1B00095F0000F00F077802DE901494FEA11400A
:10D1C0004FEA144621EA004800FB06FC24EA064721
:10D1D00008FB06F607FB08F800FB07F718EB064804
:10D1E0004CEB164C4FEA124B18EB07484FEA15462A
:10D1F0004CEB174022EA0B4E0BFB06FC25EA0647D8
:10D200000EFB06F607FB0EFE0BFB07F71EEB064EAA
:10D210004CEB164C4FF000061EEB074E4CEB174B39
:10D2200018EB0B0840F1000018EB0E0B58EB000850
:10D2300040F100008F1A4FF000013CBFC943661B4C
:10D2400014BFB5EB040C00213CBFC943F61B4FEAE9
:10D2500017444EEA8E0E27EA04454FEA1C4704FBAA
:10D2600007622CEA074C05FB07F70CFB05F604FBED
:10D270000CFC16EB074642EB174216EB0C4642EB52
:10D280001C421BEB060658EB0202414146EA9E0691
:10D2900001D5BDE80189B619524141EB0101A3F165
:10D2A0000103BDE801894FEA14454FEA114724EA1A
:10D2B000054621EA074C05FB07F406FB07F70CFBC4
:10D2C00006F105FB0CFC11EB074144EB17444FEA58
:10D2D000124711EB0C4144EB1C4422EA074C05FBBE
:10D2E00007F206FB07F70CFB06F605FB0CFC16EB3A
:10D2F000074642EB174216EB0C4642EB1C456A18F8
:10D3000054F1000148BF7047B619524141EB010189
:10D31000A3F10103704795F0000F37D04FEA114297
:10D320004FEA144721EA024624EA074C02FB07F1C0
:10D3300006FB07F70CFB06F402FB0CFC14EB07449E
:10D3400041EB17414FEA154714EB0C4441EB1C41EC
:10D3500025EA074C02FB07F506FB07F70CFB06F670
:10D3600002FB0CFC16EB074645EB174516EB0C468B
:10D3700045EB1C42121951F1000148BF7047B61924
:10D38000524141EB0101A3F1010370474FEA1445FB
:10D390004FEA114724EA054621EA074C05FB07F14D
:10D3A00006FB07F70CFB06F24FF0000605FB0CFC32
:10D3B00012EB074241EB174112EB0C4251EB1C41BF
:10D3C00048BF7047921841EB0101A3F10103704778
:10D3D000490050EAC12018BF04204A0D18BF40F090
:10D3E000010040F2FF72B2EB515F08BF40F0020053
:10D3F000012808BF0520704730380A2801D20120D3
:10D40000704700207047000010B500290AD0087846
:10D41000002807D005487844FFF7D2FB002801D048
:10D42000002010BD0248784410BD0000E60700004F
:10D43000DE07000010B500290AD00878002807D0C0
:10D4400005487844FFF7BCFB002801D0002010BD40
:10D450000248784410BD0000D6070000CE07000047
:10D460002DE9C04130B4DFF8A0C23CEA111418BF66
:10D470003CEA131400F0EC8081EA03051CEA111465
:10D4800044EAD57418BF1CEA131500F0C780A4EB5A
:10D4900005044FF0004545EAC12145EAC32341EAAE
:10D4A000505143EA525304F17F74994204F5003419
:10D4B0004FEAC0204FEAC22208BF904200F09C8091
:10D4C0004FEA13650FF24016765D4FEA134506FBEF
:10D4D00005F7C7F1807706FB07F74FEAD737A7FBB9
:10D4E00003687642C8F58038A7FB06CE38BFA8F19E
:10D4F000010807FB08E64FF0000EA6FB028CE6FBD6
:10D5000003CEDCF1000CCEF1004E38BFAEF1010EBF
:10D51000A6FB0C584FF000074FF00005E6FB0E8706
:10D52000A1FB08C6A0FB07CE16EB0E0645F10005D1
:10D53000E1FB076515F1E04E7EBFA4F580345FEA9C
:10D5400046066D4116F1800745F100054FEA1727A1
:10D550004FEA066647EA0567A6F1DE46B6F1805F48
:10D560004FEA15251FD9384624F0010C05EBC4718C
:10D57000BCF1FE6F01EB0C1102D8F0BCBDE80081DC
:10D5800024425CBF01F5801E9EEAC47F02D4F0BC39
:10D59000BDE80081244238D4F0BCA1F1C041BDE80F
:10D5A000004100F0EDB94FEAD22242EA43524FEA7D
:10D5B000D323A7FB02864FEAD02040EA415007FB65
:10D5C00003661EEA0E0F4FEAD12105FB026658BF23
:10D5D000A6EB0056B6EB00564FEA520E4EEAC37E5B
:10D5E00018EB0E0E56EB530EBDD518EB02085E413C
:10D5F0007F1C55F10005B6E74FF480154FF000078A
:10D600004FF000064FF00008ADE7F0BC4FF000000F
:10D6100001F1C04101F00041BDE8008111EA0C1F99
:10D620000CEA131500D00CE013EA0C1F00F0258063
:10D630004FF00000F0BC81EA030101F00041BDE8B9
:10D640000081F0BCBDE8004181EA030100F098B917
:10D65000F0BCBDE8004170B500F044F9097EFC3E25
:10D6600000F007B881EA03014FF0000001F000412B
:10D67000704781EA030100F083B9F0BCBDE80041C6
:10D680004FF0000021497047FFFDFBF9F7F5F4F278
:10D69000F0EEEDEBE9E8E6E4E3E1E0DEDDDBDAD84D
:10D6A000D7D5D4D3D1D0CFCDCCCBCAC8C7C6C5C4AB
:10D6B000C2C1C0BFBEBDBCBBBAB9B8B7B6B5B4B3C2
:10D6C000B2B1B0AFAEADACABAAA9A8A8A7A6A5A4AD
:10D6D000A3A3A2A1A09F9F9E9D9C9C9B9A99999871
:10D6E0009797969595949393929191908F8F8E8E14
:10D6F0008D8C8C8B8B8A89898888878786858584A1
:10D7000084838382828181800000FF070000F87F8C
:10D710004FEA1153A3F58063D3F11E03A8BFD3F1E1
:10D72000200C08DB4FF0004242EAC12252EA50527C
:10D7300032FA03F0704709420BD4102BC4BF00200B
:10D74000704703F5787CBCF1FF3F05D04FF0FF3008
:10D7500070474FF00000704770B500F0C3F800BF8D
:10D760004992248000207047F0E7B0FA80F310FA65
:10D7700003F10AD0C3F11D0303F580634FEA415062
:10D780004FEA035202EBD12170474FF0000070477F
:10D79000DFF848C170B51CEA111E1EBF1CEA131544
:10D7A0009EEA0C0F95EA0C0F00F06F8081EA0304EB
:10D7B00023EA4C134EEAD47E21EA4C1141F4801145
:10D7C00043F48013AE44A1FB024CA0FB0365AEF111
:10D7D0007F7E361955EB0C05A1FB034C4CF1000381
:10D7E000A0FB021C16EB0C06654153F10003094235
:10D7F00018BF46F0010613F4007F0BD14FEA033146
:10D800004FEA0530340341EA155140EA16506FF0F3
:10D8100003020AE04FEAC3214FEAC520F40241EABD
:10D82000555140EA56506FF0020202EB2E4201EBD6
:10D83000025585EACE710AD05FEA440C18BF24F085
:10D84000004450F1000041F1000120EAD47040F2A0
:10D85000FE7C624500D270BDA84214BF4FF08044E8
:10D860004FF04044002E08BF0024BEF1806FA8BFD7
:10D87000A1F1C041BDE8704080F282804FF000000D
:10D8800001F1C04101F0004170479EEA0C0F0CEA23
:10D89000131518BF95EA0C0F06D04FF0000081EA6F
:10D8A000030E0EF0004170BD00F01CF88900013E2F
:10D8B00000F007B800F009B84FEA430C5FEA5C5C7F
:10D8C00008D081EA030100F05BB84FEA410C5FEA3F
:10D8D0005C5CF6D14FF00000014970470000FF0783
:10D8E0000000F87F0EF1020E2EF0030E5EF8046BBE
:10D8F000364205D4012A43EB030515F5001F12D863
:10D90000012841EB010C1CF5001F0CD80ED14FEA89
:10D91000D17C15F5001F0CEB4C0C0CF1020C08BF70
:10D920004CEBD37C04E04FF0080C01E04FEAD37CD1
:10D930000CEB4C0526FA05F606F00706B6F1040CCA
:10D9400006D20EEB860CBDE870404CF0010C60472F
:10D95000DFE80CF0090B02024FF000414FF000002D
:10D96000A1F5002170BD19461046012851EB0104B4
:10D9700018BFD4F5001484BF002001F0004170BD31
:10D980000808A0F500114FEA31017047FEF7A0BE6C
:10D99000000001000200010003000100020001007C
:10D9A0000400010002000100030001000200010068
:10D9B0000500010002000100030001000200010057
:10D9C0000400010002000100030001000200010048
:10D9D0000600010002000100030001000200010036
:10D9E0000400010002000100030001000200010028
:10D9F0000500010002000100030001000200010017
:10DA00000400010002000100030001000200010007
:10DA100007000100020001000300010002000100F4
:10DA200004000100020001000300010002000100E7
:10DA300005000100020001000300010002000100D6
:10DA400004000100020001000300010002000100C7
:10DA500006000100020001000300010002000100B5
:10DA600004000100020001000300010002000100A7
:10DA70000500010002000100030001000200010096
:10DA80000400010002000100030001000200010087
:10DA9000010000007856341201000A000000140052
:10DAA000C800000001001000140002000500010081
:10DAB0003F00010001000000010000000000010023
:10DAC0000400010005001800080001000400010026
:10DAD00001000100800001000C0001000100800035
:10DAE00001000100010040005400E803010023018F
:10DAF00000001000010008000A0000000000000003
:10DB00000000C20A0400000800000000000000023B
:10DB100000010000100000000000000000000000F4
:10DB20003031323334353637383941424344454653
:10DB3000403058003031323334353637383961624D
:10DB4000636465664030780002400000000000A079
:10DB50000000000005400000000000C800000000B8
:10DB60000C4000000000409C000000001940000034
:10DB70000020BCBE0000000034400000BFC91B8E66
:10DB800000000004B5400000504BCFD06607E2CF44
:10DB9000010000006C4100003E8251AADFEEA73474
:10DBA00001000000D9420000DCB5A0E23A301F9726
:10DBB000FFFFFFFFB4450000FD25A0C8E9A3C14F4A
:10DBC000FFFFFFFFFF3F000000000080000000009B
:10DBD000FF3F0000000000800000000028DD00087A
:10DBE00000000020940000006C010008BCDD00086B
:10DBF0009400002024940000880100081C0000000C
:10DC000043000000F8FFFFFF0C0000000E000000C2
:10DC10000F0000002E000000100100004300000073
:10DC2000F8FFFFFF0040404040404040404041413D
:10DC300041414140404040404040404040404040E1
:10DC4000404040404005020202020202020202027B
:10DC50000202020202202020202020202020200278
:10DC60000202020202029090909090901010101008
:10DC700010101010101010101010101010101010A4
:10DC80000202020202028888888888880808080838
:10DC90000808080808080808080808080808080804
:10DCA000020202024000000000000000000000002C
:10DCB0000000000000000000000000000000000064
:10DCC0000000000000000000000000000000000054
:10DCD0000000000000000000000000000000000044
:10DCE0000000000000000000000000000000000034
:10DCF0000000000000000000000000000000000024
:10DD00000000000000000000000000000000000013
:10DD10000000000000000000000000000000000003
:10DD200000000000000000000000000000000000F3
:10DD300000A24A04000000000000000001020304E9
:10DD400006070809000000000102030401020304A1
:10DD50000607080902040608000000000000000091
:10DD600000000000000000000000000000000000B3
:10DD700000000000000000000000000000000000A3
:10DD80000000000000000000000000000000000093
:10DD90000000000000000000000000000000000083
:10DDA0000000000000000000000000000000000073
:0CDDB0000000000000002C01000000003A
:0400000508000131BD
:00000001FF
