:020000040800F2
:10000000782E0020350200089F2200089722000861
:100010009B220008451A0008CD38000800000000A7
:10002000000000000000000000000000FD33000898
:10003000A520000800000000C30200089D3500084C
:100040004F0200084F0200084F0200084F0200084C
:100050004F0200084F0200084F0200084F0200083C
:100060004F0200084F0200084F0200084F0200082C
:100070004F0200084F0200084F0200084F0200081C
:100080004F0200084F0200084F0200084F0200080C
:10009000453800084F0200084F0200084F020008D0
:1000A0004F0200084F0200084F0200084F020008EC
:1000B0004F0200084F0200084F0200084F020008DC
:1000C0004F0200084F0200084F0200084F020008CC
:1000D0004F0200084F020008193600084F020008BE
:1000E0004F0200084F0200084F02000800F002F81B
:1000F00000F090F80AA090E8000C82448344AAF132
:100100000107DA4501D100F085F8AFF2090EBAE82F
:100110000F0013F0010F18BFFB1A43F0010318473B
:10012000544F0000744F0000103A24BF78C878C1C3
:10013000FAD8520724BF30C830C144BF04680C60ED
:10014000704700000023002400250026103A28BF35
:1001500078C1FBD8520728BF30C148BF0B60704739
:100160006E2900F04A83702900F09584662904F016
:100170005986652904F05686672904F0538661295B
:10018000AFF3008003681B0A28BF41F08001692992
:1001900000F0E680642900F0E380752900F0E0803B
:1001A0006F2900F02284782900F06184E92900F0A9
:1001B000BD83E42900F0BA83F52900F0B783EF2965
:1001C00000F01F84F82900F060840368DB0928BF71
:1001D00041F08001632900F0F986732900F0FE8662
:1001E000E32900F00987F32900F00E87002070470B
:1001F0001FB500F05BFF04000020002104F0A6FC06
:10020000401C60600020002104F08AFCE0601FBDFB
:1002100010B510BD00F01CFF1146FFF7E9FF04F018
:1002200073F900F0F9FF03B4FFF7F2FF03BC03F02A
:100230006AFB00000948804709480047FEE7FEE7DF
:10024000FEE7FEE7FEE7FEE7FEE7FEE7FEE7FEE786
:1002500004480549054A064B70470000B9350008B7
:10026000ED00000878280020782E0020782A002051
:10027000782A0020EFF3108072B6704780F3108860
:100280007047204C204D25604FF0000484F309880E
:100290001E4C4FF0010525701D4C4FF08055256018
:1002A00062B6FEE730B41A4C4FF08055256030BC82
:1002B000704730B4164C4FF08055256030BC704705
:1002C00000BF72B6EFF3098028B1203880E8F00F44
:1002D00010490968086000B50F4880475DF804EBD5
:1002E0000E480F490A7802700A480E490A680260EF
:1002F000106890E8F00F203080F309884EF0040E6B
:1003000062B6704720ED00E00000FFFF52000020C1
:1003100004ED00E058000020F92A00084700002002
:100320004800002060000020704700007CB51D469A
:1003300016460C00009001D02044401E074B7B4421
:100340002A4669460190304600F071FA05461CB114
:100350000020694600F07EFA28467CBD1D0500009D
:100360002DE9F0410646002410687529314616A58E
:1003700010D000F0AEF9002802DA404213A507E0E1
:1003800031688A0701D512A502E0490704D511A5F5
:10039000012401E000F0A6F900210A2206F1240759
:1003A00009E0B0FBF2FCB0FBF2F302FB1C003030C2
:1003B00078541846491C0028F3D123462A46304673
:1003C000BDE8F04100F0C0B9000000002D000000C1
:1003D0002B000000200000002DE9F05F8946044654
:1003E0004FF0000ADFF874B1FB44C0F820A02046AB
:1003F000E1688847002874D0252806D0D4E9012177
:100400009047206A401C2062F1E700265F462046A4
:10041000E16888472028054607DB312D05D2781989
:1004200010F8200C08B10643F1E7B00701D526F01B
:100430000406C4F81CA00027C4F818A02A2D09D06F
:10044000284603F059FA38B304EB8708303DC8F862
:10045000185019E059F8041B204604EB87029161FB
:10046000E1688847012F054618D1E069002820DAA5
:1004700026F020061DE0D8F8180000EB800005EB00
:1004800040003038C8F818002046E1688847054623
:1004900003F032FA0028EED1012F0AD02E2D08D118
:1004A0002046E16888477F1C0546022F46F020065B
:1004B000C4DBA069002803DA404246F00106A061CF
:1004C000F00701D026F010066C2D0BD0682D09D056
:1004D0004C2D39D06A2D35D0742D35D07A2D33D0AE
:1004E00016E038E0E1682F4620468847B8420546C6
:1004F00009D16C2F26D04FF48060E1680643204676
:100500008847054604E06C2F1AD04FF480700643EC
:100510000DB3A5F14100192802D8203546F4006634
:100520004A462946204626604E46FFF719FE80B10E
:1005300001280BD0F61D26F0070000F1080956E748
:100540004020E4E78020D8E70020D6E706F1040940
:100550004DE7284652E7206ABDE8F09FB04B000007
:10056000032A40F2308010F0030C00F0158011F8DF
:10057000013BBCF1020F624498BF11F801CB00F8B7
:10058000013B38BF11F8013BA2F1040298BF00F80B
:1005900001CB38BF00F8013B11F0030300F0868265
:1005A000083AC0F0088051F8043B083A51F804CBEF
:1005B000A0E80810F5E7121D5CBF51F8043B40F8B5
:1005C000043BAFF30080D20724BF11F8013B11F8C0
:1005D00001CB48BF11F8012B24BF00F8013B00F804
:1005E00001CB48BF00F8012B70474FF000020429EF
:1005F000C0F0128010F0030C00F01B80CCF1040C52
:10060000BCF1020F18BF00F8012BA8BF20F8022B85
:10061000A1EB0C0100F00DB85FEAC17C24BF00F82B
:10062000012B00F8012B48BF00F8012B70474FF059
:10063000000200B5134694469646203922BFA0E832
:100640000C50A0E80C50B1F12001BFF4F7AF09073E
:1006500028BFA0E80C5048BF0CC05DF804EB89002F
:1006600028BF40F8042B08BF704748BF20F8022B72
:1006700011F0804F18BF00F8012B7047704770478A
:100680007047704770B5044685690068C10601D59A
:10069000302600E02026C00707D070BDD4E9012134
:1006A00030469047206A401C20626D1EF6D570BD12
:1006B00070B5044685690078C00707D170BDD4E9DC
:1006C000012120209047206A401C20626D1EF6D533
:1006D00070BD09684A0501D540B27047C905FCD50F
:1006E00000B2704709684A0501D5C0B27047C90514
:1006F000FCD580B2704770B50C460546012A05D07E
:100700002878800600D5EA69002302E0012305E08D
:100710005B1C934202D2E05C0028F9D1A869E6187C
:10072000C01AA861286A184428622846FFF7AAFF61
:1007300004E0D5E9012114F8010B9047B442F8D345
:100740002846FFF7B5FF70BD2DE9F0470D469946E5
:100750009246044600F124080168880604D5E06941
:1007600021F01001216000E00120A84201DD471BBB
:1007700000E00027A1697A1902EB0900081AA061BC
:100780002078C00602D42046FFF77CFF002608E050
:10079000D4E901211AF806009047206A401C761C13
:1007A00020624E45F4DB2078C0060AD52046FFF7CC
:1007B00069FF06E0D4E9012130209047206A401CFF
:1007C0002062381EA7F10107F4DC07E0D4E901211B
:1007D00018F805009047206A401C2062281EA5F1E9
:1007E0000105F3DC2046FFF763FF2078000602D501
:1007F0000220BDE8F0870120FBE711680268006A6B
:10080000530501D508700AE0D30501D5088006E03C
:10081000130603D5C217C1E9000200E008600120F9
:100820007047000001694A1C02610878704700B5F2
:100830008FB0CDE901310021059105497944CDE919
:10084000031011466846FFF7C7FD0FB000BD00005A
:10085000E5FFFFFF0A6802F8010B0A607047D1E963
:1008600000239A4202D2531C0B60107070470000A4
:100870002DE9FF5F15468A460446DFF8AC80F84450
:100880000027D8E900103E46CDE9001010E03AF804
:1008900016106A4602A800F0BBFB411C07D0217865
:1008A000890603D5E269391891420DD80744761CB0
:1008B0002078800602D5E069B84205DDAE42E6DB6D
:1008C0003AF816000028E2D1A069C01BA0612046BA
:1008D000FFF7D8FED8E90010CDE90010002017E09E
:1008E0003AF818106A4602A800F092FBB0F1FF3FF8
:1008F00081460BD000250DF1080B05E0D4E901215C
:100900001BF8050090476D1C4D45F7D308F1010019
:10091000B0428046E4DB206A384420622046FFF77C
:10092000C7FEBDE8FF9F00002E4700002DE9F04103
:100930008046D21D22F007020025D2E90002F529E7
:1009400015A614D0011E72F1000106DA0023D0EBC7
:10095000030063EB020211A608E0D8F800108B0731
:1009600001D50FA602E0490701D50EA601251146C3
:10097000002408F1240704E000F0CAF830323A55A8
:10098000641C50EA0102F7D12B463246214640460C
:10099000BDE8F041FFF7D8BE000000002D000000C8
:1009A0002B0000002000000030B4002100F12404DE
:1009B00008E002F00705D208303542EA4372DB084E
:1009C0006554491C52EA0305F3D10468002310A2C0
:1009D000250707D5A40600D421B1C46901230DA2BF
:1009E000641EC46130BCFFF7AFBE10B5044621469B
:1009F0001068FFF777FE02462046BDE8104000234E
:100A0000D2E7D21D22F00701D1E90023CCE7000094
:100A10000000000030000000F0B40D460188090518
:100A200002D5214C7C4402E01F4C7C440E34002152
:100A300000F1240608E002F00F071209E75D42EA20
:100A400003721B097754491C52EA0307F3D1027859
:100A50000023120704D5702D06D009B102231134EA
:100A60002246F0BCFFF770BE01231034F8E770B5E2
:100A700004460D4621461068FFF734FE024629461B
:100A80002046BDE870400023C6E7D21D22F00703D0
:100A9000D3E90023C0E70368126843F02003036032
:100AA0000823C3610023B7E79045000010B5203A42
:100AB000C0F00B80B1E81850203AA0E81850B1E817
:100AC0001850A0E81850BFF4F5AF5FEA027C24BFCD
:100AD000B1E81850A0E8185044BF18C918C0BDE8C4
:100AE00010405FEA827C24BF51F8043B40F8043B8D
:100AF00008BF7047D20728BF31F8023B48BF11F842
:100B0000012B28BF20F8023B48BF00F8012B70479B
:100B100030B5B0F10A024FEA900E71F100034EEACF
:100B2000817EB0EB0E0061EB91014FEA101E4EEAA0
:100B3000017E10EB0E0041EB11114FEA102E4EEA30
:100B4000016E10EB0E0041EB11214FEA104E4EEA00
:100B5000014E10EB0E0041EB1141401841F1000134
:100B60004FEAD00040EA41704FEAD10110EB800516
:100B70004FEA810444EA907444EB01046D1944EB9C
:100B80000404521BA3414FF0000348BF0A3200D5B2
:100B900030BD401C41F1000130BD70472DE9FF4FD1
:100BA0000C461E464FF0FF378BB0D2E90001DDF84E
:100BB00060800A908A46C1F30A5505B93D46002176
:100BC00008464FF00000BAF1000F00F4400005DACB
:100BD00000EB80004FF4400101EA50004FEA9059C9
:100BE000B9F1010F00DDB9460A9850EA4A000ED06B
:100BF00044F61050A5F2FF3545432F14B8F1000F0D
:100C00001ED07542291E1EDDC9F100021CE0B8F19C
:100C1000010F4FF0000001D0302103E0F24305E066
:100C20002154401CB042FBDB3046002200212154FD
:100C30000B99C1F80880C1E900200FB0BDE8F08F22
:100C4000BD1B6D1CDEE74A4600DA694206A800F0CB
:100C500071FA06AB93E8070003AB83E80700504640
:100C60000A9900F027FB8DE80700A0F500501F3817
:100C700000900398002D0ADD42F21F014A46084405
:100C8000002303A90390684600F090FD09E0A0F559
:100C900000504A461F38002303A90390684600F01D
:100CA0009AFD8DE807000004000C03D04FF0FF30E0
:100CB000410800E01046B8F1000F03D00022009276
:100CC00015461EE0751E05D4FFF722FF303262552F
:100CD0006D1EF9D5B3460122084302D000227F1CC5
:100CE00004E02078302801D100227F1E002A0997D5
:100CF00084D01DE0112D07DAFFF70AFF303262556C
:100D00006D1C50EA0102F5D1084302D00098C8B129
:100D10000EE00021681E05E0235C625C63542254EF
:100D2000401E491C8142F7DBAB46A81B401E0990C0
:100D3000002004F80B000B98099AC0F80880C0E95D
:100D4000002B7AE711264FF0000857E72DE9F04F06
:100D500088460446D21D22F0070191B0D1E9000176
:100D6000CDE90A0102F0B4FD02460B98C00F01D094
:100D70002D2007E02068810701D52B2002E02021EB
:100D800001EAC000032A099001D0072A05DB0346C7
:100D90004146204600F08EF90BE12078800601D50F
:100DA000E06900E00620B8F1650F814606D0B8F191
:100DB000660F18D0B8F1670F70D131E00020B9F19B
:100DC000110F009001DB112301E009F101030AAAD0
:100DD00001A90CA8FFF7E2FEDDE90C70002609F17D
:100DE0000105834647E001204B4600904FF0004745
:100DF0000AAA01A90CA8FFF7D1FEDDE90DB00C99F4
:100E00005D46002610B909F101000D18B9EB050087
:100E100003D4C0F1FF3609F10105A5EB09002BE071
:100E2000B9F1010F01DA4FF001090020B9F1110FFA
:100E30000090484601DD112300E003460AAA01A9FB
:100E40000CA8FFF7ABFEDDE90C704D46002683468B
:100E5000207800070AD4AB4500DA5D4601A8012DD1
:100E600004DD411911F8011C302907D04F4502DA81
:100E700017F1040F04DA012082460FE06D1EEEE741
:100E8000002F02DCED1B3E4403E0781CA84200DD8D
:100E90007D1CB81B00F1010A4FF0004720780007C5
:100EA00003D4AA4501DB4FF0FF3A0021B7F1004F10
:100EB0000DF143088DF8431024D002202B23002F7E
:100EC00001DA7F422D230A21021EA0F1010000DC7D
:100ED0005FB197FBF1FC97FBF1F201FB1C7C17461D
:100EE0000CF1300C08F801CDEEE7A8F10100037019
:100EF0002188090501D5452100E06521A0F10108FF
:100F000000F8011C09980FA9A1EB0807FF1D00B10B
:100F10000120411901EBEA70A1693844081A401E0A
:100F2000A0612078C00602D42046FFF7ABFB0998E9
:100F300028B1D4E901219047206A401C2062207822
:100F4000C00622D52046FFF79DFB1EE0002E04DBE5
:100F5000B34502DD01A8805D00E03020D4E9012125
:100F60009047206A401C2062761CAAF101005FEACB
:100F7000000A0AD100F09AF8C0680168405CD4E920
:100F800001219047206A401C2062281EA5F101051E
:100F9000DCDC07E0D4E9012118F8010B9047206A56
:100FA000401C2062381EA7F10107F3DC2046FFF742
:100FB0007FFB032011B041E610B5436913B1AFF3D5
:100FC000008001E0FFF797FB012010BD127800F1CF
:100FD00024010A7000224A700122EDE711684FF0E7
:100FE000FF32E9E710B5436913B1AFF3008001E0C8
:100FF000FFF73EFC012010BD128800F1240182841D
:101000000022C2840122EDE711684FF0FF32E9E7C8
:1010100070B516460C46054600F040F8036893F894
:101020000101012806D0FF2C0FD8185D68B10120FE
:101030002C7070BDD3F807013246214603F2071326
:1010400003442846BDE8704018474FF0FF3070BD9C
:10105000754600F0EBF8AE4605006946534620F0B1
:101060000700854618B020B5FFF7F2F8BDE820402C
:101070004FF000064FF000074FF000084FF0000B54
:1010800021F00701AC46ACE8C009ACE8C009ACE807
:10109000C009ACE8C0098D467047000010B500F0EB
:1010A00005F8001D10BD00BFA53A000000487047BC
:1010B000342800202DE9F0411F460446032601682C
:1010C000072A01F4006004DB08B116A505E016A5A7
:1010D00003E008B115A500E015A521F0100020607F
:1010E000A069C01EA0610FB1401EA0612046FFF79D
:1010F000C9FA4FB1D4E9012138469047206A401C13
:101100002062C01C206206E0206AFAE7D4E90121CF
:1011100015F8010B9047761EF8D22046FFF7C8FA63
:10112000BDE8F0814E414E006E616E00494E4600B2
:10113000696E66002DE9F047814616468AB035484B
:1011400078440DC88DE80D0032487844801C03AC0B
:101150000DC884E80D0041F69B300844372190FB10
:10116000F1F290FBF1F5A5F1800501FB12041B3CA7
:1011700002D56442012000E00020DFF898A08046FC
:101180000027FA44AAF1BE0A0EE0E0070AD0324670
:10119000684607EB470101230AEB810100F01BFBC6
:1011A0008DE8070064107F1C002CEED1194F7F449E
:1011B000AE3F19E0E80715D007EB04100DF1180A4F
:1011C00090E80E008AE80E00C068F04201D198193C
:1011D00008903246012306A903A800F0FCFA03ABED
:1011E00083E807006D10641C002DE3D14FF001036C
:1011F00032466946B8F1000F03A802D000F0D6FAD3
:1012000001E000F0E8FAC9E90001C9F808200AB0D5
:10121000BDE8F087183F000010B50446AFF300802A
:101220002046BDE81040FEF7FEBF000000487047B2
:10123000142800204FF0013C50F8042B51F8043BD7
:101240009A4221D1A2EB0C03934313EACC1317D19A
:1012500050F8042B51F8043B9A4215D1A2EB0C0331
:10126000934313EACC130BD150F8042B51F8043BF1
:101270009A4209D1A2EB0C03934313EACC13DBD0BF
:101280004FF00000704700BFD01A01BAB1FA81F1E7
:1012900001F0180122FA01F0CB40C1F12001DBB2CC
:1012A000C0B2C01A2CFA01F3D11A914311EAC3114A
:1012B000E6D170475FEA400C08BF91F0000F4FEA9B
:1012C0008C234FEAC12243EA51514FEA1C5018BF08
:1012D00000F5F0404FEA300018BF41F000415FEAEE
:1012E0006C5C00F02980BCF1FF3F08BF40F08040FB
:1012F0007047130C06BF12044FF0100C4FF0000C97
:10130000130E04BF12020CF1080C130F04BF1201DC
:101310000CF1040C930F04BF92000CF1020CD30FDC
:1013200004BF52000CF1010C11464FF00002A0F175
:101330001F00A0EB0C00704711F0004F08BF704772
:1013400031F000413FF4D5AF0B0C06BF09044FF05C
:10135000100C4FF0000C0B0E04BF09020CF1080C2E
:101360000B0F04BF09010CF1040C8B0F04BF8900A3
:101370000CF1020CCB0F04BF49000CF1010CCCF1B5
:101380002003A0EB0C0022FA03F302FA0CF241EA6C
:10139000030100F10100704720F07F4C80EA030058
:1013A00023F07F47ACEB070303F57C5300F00040CC
:1013B00003F1FF032DE980494FEA154B09B44FEAC9
:1013C000144325EA0B4E24EA03480FF2042606EBE9
:1013D000132749083E785FEA320203FB0667C7F528
:1013E000000707FB06F64FEA54374FEAD64606F1E8
:1013F000020607FB066CCCF1005C4FEA1C472CEAA6
:10140000074C07FB06F40CFB06F504EB15464FEA08
:10141000961634BF00204FF000404FEAD13706FB4C
:1014200007FC4FEA1C4C0CFB0BF7D21B03FB0CF721
:1014300061EB07010CFB0EF7B0EB074072EB1742B4
:101440000CFB08F734BFA2EB0742B2EB074261EB9B
:1014500017414FEA0C444FEA910706FB07FC4FEA9D
:101460001C4C0CFB0BF7B0EBC74072EB573203FB85
:101470000CF734BFA2EBC742B2EBC74261EB573166
:101480000CFB0EF7B0EBC70072EB57720CFB08F7C2
:1014900034BFA2EBC702B2EBC70261EB5771039FE7
:1014A0004FEA816141EA921104EBCC044FEAD13753
:1014B0004FEA826206FB07FC42EA90124FEA806024
:1014C0004FEA1C4C0CFB0BF7D21B03FB0CF761EB38
:1014D00007010CFB0EF7B0EB074072EB17420CFB59
:1014E00008F734BFA2EB0742B2EB074261EB1741AA
:1014F0004FEA8C554FEA910704EB9C2406FB07FC4E
:101500004FEA1C4C0CFB0BF7B0EBC74072EB5732A9
:1015100003FB0CF734BFA2EBC742B2EBC74261EB4F
:1015200057310CFB0EF7B0EBC70072EB57720CFB98
:1015300008F734BFA2EBC702B2EBC70261EB5771E9
:1015400015EB4C254FEA816141EA92114FEA826224
:101550004FEAD13742EA901206FB07FC44F100043F
:101560004FEA80604FEA1C4C0CFB0BF7D21B03FBCD
:101570000CF761EB07010CFB0EF7B0EB074072EBC9
:1015800017420CFB08F734BFA2EB0742B2EB07424D
:1015900061EB174115EB1C154FEA813141EA92418D
:1015A0004FEA823242EA90424FEA80304FEA0C76AC
:1015B00044F1000448EA03434EEA0B484FF0000EA2
:1015C000B2EB080C71EB030724BF624639464EEBC1
:1015D0000E0E4FF0000B0018524149414BEB0B0B24
:1015E000B2EB080C71EB03077BF1000B24BF6246E2
:1015F00039464EEB0E0E4FF0000B00185241494198
:101600004BEB0B0BB2EB080C71EB03077BF1000B00
:1016100024BF624639464EEB0E0E51EA020718BF50
:1016200046F0010616EB0E7655F1000254F100016A
:1016300003D5BDE88901BDE80088BDE88901BDE8A2
:101640000048B619524141EB0101A3F10103704773
:1016500080807F7E7D7C7B7A7978777676757473EF
:10166000727171706F6E6E6D6C6C6B6A6A696868AE
:10167000676666656464636362616160605F5F5E44
:101680005E5D5D5C5C5B5B5A5A59595858575756BA
:10169000565555555454535352525251515050501F
:1016A0004F4F4F4E4E4D4D4D4C4C4C4B4B4B4A4A71
:1016B0004A494949484848474747474646464545B5
:1016C00045444444444343434342424242414141EE
:1016D000002B9C4630D477002BD01CB54FEA37073F
:1016E00003B44FF010004FF01001BAF1000F06D014
:1016F000BCF1000FDCBF40F0080040F008014FF0E3
:1017000000000FBCBDE810400BF1010BBBF1010F55
:1017100008BF5FEA170722BF12F1010211F10101B0
:101720004FF0004143F1000300F0004043EA0000A5
:101730007047F9D35708D0E746EA064613F1400F41
:101740004FEA16461FDD13F1200FDFBF16430A468E
:10175000002120335B42BED0C3F1200746EA064693
:1017600002FA07F74FEA164646EA0706C3F12007D2
:1017700022FA03F201FA07F721FA03F14FF000030E
:1017800042EA0702A7E746EA020646EA06464FEAA9
:10179000164646EA0106BCBF46EA0646360C4FF03E
:1017A00000034FF000024FF0000194E72DE9804C58
:1017B0009A46934670B491E8380007C831EA400C65
:1017C00048BF34EA430C03D5FFF7E6FDFFF780FF7F
:1017D000F0BCBDE8008C2DE9804C9A46934670B46D
:1017E00091E8380007C810F0804F08BF13F0804F11
:1017F00003D100F005F8FFF76BFFF0BCBDE8008CEB
:1018000020F07F4780EA030023F07F4C07EB0C03B6
:10181000A3F57C5300F00040A3F1FE0392F0000F0B
:1018200000F0B38095F0000F00F077802DE90149BA
:101830004FEA11404FEA144621EA004800FB06FC3B
:1018400024EA064708FB06F607FB08F800FB07F743
:1018500018EB06484CEB164C4FEA124B18EB0748B6
:101860004FEA15464CEB174022EA0B4E0BFB06FCE9
:1018700025EA06470EFB06F607FB0EFE0BFB07F7F5
:101880001EEB064E4CEB164C4FF000061EEB074EBF
:101890004CEB174B18EB0B0840F1000018EB0E0B4C
:1018A00058EB000840F100008F1A4FF000013CBFD8
:1018B000C943661B14BFB5EB040C00213CBFC943F0
:1018C000F61B4FEA17444EEA8E0E27EA04454FEA0C
:1018D0001C4704FB07622CEA074C05FB07F70CFBCF
:1018E00005F604FB0CFC16EB074642EB174216EB21
:1018F0000C4642EB1C421BEB060658EB0202414130
:1019000046EA9E0601D5BDE80189B619524141EB70
:101910000101A3F10103BDE801894FEA14454FEA33
:10192000114724EA054621EA074C05FB07F406FBAC
:1019300007F70CFB06F105FB0CFC11EB074144EB30
:1019400017444FEA124711EB0C4144EB1C4422EAC6
:10195000074C05FB07F206FB07F70CFB06F605FB39
:101960000CFC16EB074642EB174216EB0C4642EB1B
:101970001C456A1854F1000148BF7047B61952411E
:1019800041EB0101A3F10103704795F0000F37D03F
:101990004FEA11424FEA144721EA024624EA074C73
:1019A00002FB07F106FB07F70CFB06F402FB0CFC3D
:1019B00014EB074441EB17414FEA154714EB0C4475
:1019C00041EB1C4125EA074C02FB07F506FB07F734
:1019D0000CFB06F602FB0CFC16EB074645EB174525
:1019E00016EB0C4645EB1C42121951F1000148BFA1
:1019F0007047B619524141EB0101A3F10103704751
:101A00004FEA14454FEA114724EA054621EA074CFC
:101A100005FB07F106FB07F70CFB06F24FF000068B
:101A200005FB0CFC12EB074241EB174112EB0C4299
:101A300051EB1C4148BF7047921841EB0101A3F1E3
:101A40000103704700BFFEE710B504460B4884420F
:101A500009D10121480601F047FC00214FF0007038
:101A600001F042FC08E00121880601F03DFC002164
:101A70004FF0806001F038FC10BD000000640040B1
:101A800010B50021837A012202FA03F13D4A12685F
:101A900042F001023B4B1A603A4A1C3212688A43F8
:101AA000384B1C331A60027BCAB9364A0C321268B2
:101AB0008A43344B0C331A604288C38842EA03439A
:101AC000304A4032847A42F834300288838842EACD
:101AD00003432C4A4032847A02EBC4025360027BF7
:101AE000012A19D1274A0C3212680A43254B0C33BC
:101AF0001A604288038842EA0343224A4032847AC9
:101B000042F83430C288838842EA03431D4A403297
:101B1000847A02EBC4025360C27A3AB9194A121DA0
:101B200012688A43174B1B1D1A6006E0154A121DE6
:101B300012680A43134B1B1D1A60028932B9114AFD
:101B4000143212688A430F4B14331A600289012A37
:101B500006D10C4A143212680A430A4B14331A6035
:101B6000427B012A06D1074A1C3212680A43054B00
:101B70001C331A60034A126822F00102014B1A60FA
:101B800010BD0000006600401AB143690B43436179
:101B900002E043698B434361704730B50246002041
:101BA0000023146824F002041460146844F0010453
:101BB000146000E05B1C546804F001041CB94FF68B
:101BC000FF74A342F6D1546804F001040CB900205C
:101BD0006CE08C79012C04D1146844F0800414600A
:101BE00003E0146824F080041460CC79012C04D143
:101BF000146844F04004146003E0146824F04004C6
:101C000014600C7A012C04D1146844F02004146090
:101C100003E0146824F0200414604C7A012C04D1F1
:101C2000146844F01004146003E0146824F01004F5
:101C300014608C7A012C04D1146844F008041460F8
:101C400003E0146824F008041460CC7A012C04D159
:101C5000146844F00404146003E0146824F00404DD
:101C600014608C78A407CD7844EA05640D7944EAC1
:101C700005444D7944EA05540D886D1E2C43D4610A
:101C8000146824F001041460002300E05B1C546815
:101C900004F001041CB14FF6FF74A342F6D154685E
:101CA00004F001040CB1002000E0012030BD08B5B3
:101CB00014208DF8000000208DF801008DF802003E
:101CC00001208DF80300684600F0EAFA08BD10B55F
:101CD00000F5D87303EB01131B6803F004031372C0
:101CE000137A53B900F5D87303EB01131B6840F264
:101CF000FF7404EA5353136009E000F5D87303EB53
:101D000001131B686FF0604404EAD303536000F5CD
:101D1000D87303EB01131B6803F00203537200F541
:101D2000D87303EB01135B6803F00F03937200F5A4
:101D3000D87303EB01135B681B0AD37400F5D873E7
:101D400003EB01139B68D37200F5D87303EB011307
:101D50009B681C0A147300F5D87303EB01139B688E
:101D60001C0C547300F5D87303EB01139B681B0E16
:101D7000937300F5D87303EB0113DB68D37300F59D
:101D8000D87303EB0113DB681C0A147400F5D873D5
:101D900003EB0113DB681C0C547400F5D87303EBE0
:101DA0000113DB681B0E937421B9C36843F0200351
:101DB000C36003E0036943F02003036110BD002109
:101DC0008171C171017241728172C1728170C17081
:101DD000032101710221417101210180704710B579
:101DE00002460020936803F08063B3F1806F00D156
:101DF00010E0936803F00063B3F1006F01D101209C
:101E000008E0936803F08053B3F1805F01D10220B2
:101E100000E00420042874D002F5C07303EB001323
:101E20001B6803F0010402F5C07303EB00131C6090
:101E30000B7A7BB94B7A0C8843EA445302F5C074A1
:101E400004EB00142468234302F5C07404EB00146F
:101E5000236010E00B7A4C6843EAC4034C7A2343B6
:101E600002F5C07404EB00142468234302F5C07427
:101E700004EB001423608B7A03F00F038B7202F5DE
:101E8000C07303EB00135B6823F00F0402F5C0730B
:101E900003EB00135C6002F5C07303EB00135B6897
:101EA0008C7A234302F5C07404EB001463608B7BCF
:101EB0001C064B7B44EA03440B7B44EA0323CC7AA5
:101EC000234302F5C07404EB0014A3608B7C1C0652
:101ED0004B7C44EA03440B7C44EA0323CC7B23433E
:101EE00002F5C07404EB0014E36002F5C07303EB69
:101EF00000131B6843F0010402F5C07303EB0013E9
:101F00001C6010BD10B50246002321B1012907D085
:101F100002290FD109E090681D4C00EA04030BE090
:101F200090681C4C00EA040306E090681A4C00EA32
:101F3000040301E0002300BF00BF184C181BA3429C
:101F400016D007DC83B16FF08060184470B10228AE
:101F500018D111E0B0F5007F10D0114C204448B1E9
:101F6000B0F5003F0ED10BE002230DE000230BE0A3
:101F7000002309E0002307E0012305E0012303E03B
:101F8000012301E0002300BF00BFD8B210BD000054
:101F90000300000400030008000003100001000813
:101FA0000001FFF730B587B0002400252648FFF771
:101FB0004BFD04A8FFF703FF00208DF81600012059
:101FC0008DF8170000208DF818008DF819008DF895
:101FD0001A0001208DF81B0000208DF8120002204D
:101FE0008DF8130008208DF8140007208DF81500D7
:101FF0000420ADF8100004A91348FFF7CEFD00201F
:102000008DF80A008DF80B0001208DF80C000020DF
:10201000ADF800000420ADF8020047F6C070ADF83E
:1020200004000020ADF80600ADF8080001208DF88E
:102030000D006846FFF724FD012202210248FFF748
:10204000A3FD07B030BD00000064004008B50121C9
:10205000042001F059F90121084601F055F9012148
:10206000480601F031F94FF40060ADF8000004209B
:102070008DF8030003208DF802006946084800F03F
:1020800067F84FF48050ADF8000003208DF802008F
:1020900018208DF803006946014800F059F808BD82
:1020A00000080140704770B504460D46B4F858006A
:1020B000401C052190FBF1F201FB1200B4F8561010
:1020C000884201D1002070BDB4F8581001EB011115
:1020D000081911222946FEF743FAB4F85800401CAB
:1020E000052190FBF1F201FB1200A4F85800012039
:1020F000E9E70146B1F85800B1F85620904201D006
:10210000012070470020FCE770B504460D46112100
:102110002846FEF76AFAB4F85600B4F85810884218
:1021200001D1002070BDB4F8560000EB0010011979
:1021300011222846FEF714FAB4F85600401C052177
:1021400090FBF1F201FB1200A4F856000120E9E730
:102150002DE9F0410246002500260020002300243E
:10216000002791F803C00CF00F0591F803C00CF0A4
:10217000100CBCF1000F03D091F802C04CEA050529
:1021800091F800C0BCF1000F31D0146800202BE0A2
:102190004FF0010C0CFA00F3B1F800C00CEA030692
:1021A0009E4220D183004FF00F0C0CFA03F7BC4382
:1021B00005FA03FC4CEA040491F803C0BCF1280FB3
:1021C00006D14FF0010C0CFA00FCC2F814C00AE072
:1021D00091F803C0BCF1480F05D14FF0010C0CFA87
:1021E00000FCC2F810C0401C0828D1D31460B1F81C
:1021F00000C0BCF1FF0F34DD546800202EE000F178
:10220000080C4FF0010808FA0CF3B1F800C00CEA12
:1022100003069E4221D183004FF00F0C0CFA03F706
:10222000BC4305FA03FC4CEA040491F803C0BCF17A
:10223000280F05D100F1080C08FA0CF8C2F8148038
:1022400091F803C0BCF1480F07D100F1080C4FF022
:10225000010808FA0CF8C2F81080401C0828CED3F8
:102260005460BDE8F08141617047016170470AB177
:10227000016100E04161704710B502460B46002144
:10228000002000BF04E0545C0444E0B24C1CA1B246
:102290009942F8DB10BD00BFFEE700BFFEE77047C4
:1022A00070B5002100230F22C47804B3154C2468B4
:1022B00004F4E064C4F5E064210AC1F10403CA40F7
:1022C000447804FA03F184781440214309010E4C48
:1022D0000678A155047804F01F050124AC40057868
:1022E0006D11AD0005F1E025C5F8004109E0047865
:1022F00004F01F050124AC40044D0678761145F822
:10230000264070BD0CED00E000E400E080E100E05C
:1023100002490143024A1160704700000000FA05BB
:102320000CED00E0174818481848194819481A4891
:102330001A481B481B481C481C481D481D481E487D
:102340001E481F481F48204820482148214822484D
:10235000224823482348244824482548254826481D
:1023600026482748274828482848294829482A48ED
:102370002A482B482B482C482C482D482D482E48BD
:1023800000BF7047284F00082C4F0008324F00084C
:10239000344F0008304F0008364F0008384F00080F
:1023A0003A4F00083C4F00083E4F0008404F0008DD
:1023B000424F0008444F0008464F0008484F0008AD
:1023C0004A4F00084C4F00084E4F0008504F00087D
:1023D000524F0008544F0008564F0008584F00084D
:1023E0005A4F00085C4F00085E4F0008604F00081D
:1023F000624F0008644F0008664F0008684F0008ED
:102400006A4F00086C4F00086E4F0008704F0008BC
:10241000724F0008744F0008764F0008784F00088C
:102420007A4F00087E4F0008804F0008824F000856
:10243000844F0008864F00089A4F00082DE9F041AC
:1024400006460D4600271348007820B1102028705A
:102450000020BDE8F081FDF70DFF07460E48046837
:1024600084B1006840680C4908600520207026810E
:102470000020606009A0E0603846FDF7FFFE002004
:10248000287004E03846FDF7F9FE722028702046D7
:10249000DFE7000045000020340000203F0000007E
:1024A00010B500F015F800F093FC00F0BBFC00F054
:1024B000DBFC00F063FC00F035FC00F06FFD00F089
:1024C00013FD00F039FD00F004F8FFF72BFF10BDFD
:1024D0007047704706480078012808D10548007801
:1024E000FF2804D203480078401C02490870704756
:1024F000520000204500002010B500241A48007842
:10250000012830D1FDF7B6FE04461848007820B106
:1025100016480078401E1549087014480078F8B92C
:1025200013480078E0B900F09BFD12481249097881
:1025300050F82100114908600F48007810490978C7
:1025400088420DD00D480068806B401C0B4909681B
:1025500088630C480068401C0A490860FDF7A9FE22
:102560002046FDF78BFE10BD5200002045000020E4
:1025700046000020440600204800002060000020A3
:10258000470000202C00002070B5054600260F48AB
:10259000007808B1002070BDFDF76CFE06460C48BF
:1025A0000468006820B10A4800684068084908606B
:1025B0003046FDF763FE3CB10320207025810020EA
:1025C0006060204600F0A0FB2046E4E745000020C4
:1025D000300000202DE9F04105460E461446002744
:1025E0002878032803D001202070BDE8F08131480D
:1025F000007810B102202070F7E72F48007810B162
:102600000D202070F1E7FDF735FE0746288940B11F
:102610002889401E28813846FDF730FE00202070B2
:10262000E3E72648006890F8300040F001002349B5
:10263000096881F8300000202049096881F83100DC
:102640001E480068C662284600F020FB3846FDF7A9
:1026500015FE00F0CBFCFDF70DFE0746174800689D
:1026600090F8310020B1012809D0022806D102E0FB
:10267000002020700BE00E20207008E000BF2946EB
:102680000E48006800F0EDFA0A20207000BF00BF7D
:1026900000200A49096881F830000849096881F872
:1026A000310006490968C8613846FDF7E7FD00BFFB
:1026B0009BE7000045000020460000205800002055
:1026C00010B50B48007890B900F0CAFC09480078B2
:1026D0000949087009480749097850F82100084954
:1026E00008600846006807490860FDF7CAFD10BD8C
:1026F000520000204800002047000020440600202F
:10270000600000205800002010B50024022000F0D6
:10271000F5F9FDF7AFFD044600200B49086020469F
:10272000FDF7ACFD642000F0E9F9FDF7A3FD0446D8
:1027300005480068054908600120054908702046E1
:10274000FDF79CFD10BD0000540000203C0000205F
:1027500044000020704700002DE9FE4F06460F465A
:1027600090461C464FF00009FDF784FD81461F4846
:10277000007828B14846FDF781FD3C20BDE8FE8F7A
:102780001B4850F8240060BB0120194941F824007F
:102790004846FDF773FD002342463946304600F0B7
:1027A00009F98246002000900190034602465146F6
:1027B0000290204600F06AFC054635B90D480078C5
:1027C00001280CD100F012FC09E0FDF753FD814611
:1027D0000020074941F824004846FDF74FFD2846F0
:1027E000CCE74846FDF74AFD2820C7E74500002012
:1027F00044060020520000202DE9F04F85B08146AC
:102800008A4693461C46DDE90F78129D002003900E
:10281000FDF730FD03902348007830B10398FDF7B1
:102820002DFD3C2005B0BDE8F08F1F4850F8240076
:1028300088BB01201C4941F824000398FDF71EFDC8
:102840002A464146384600F031FD2B465A4651464D
:10285000484600F0AFF804901198CDE90080029549
:102860003A4620460E9B049900F010FC064636B905
:102870000E48007801280CD100F0B8FB09E0FDF704
:10288000F9FC03900020084941F824000398FDF763
:10289000F5FC3046C6E7FFE70398FDF7EFFC28207C
:1028A000C0E7000045000020440600205200002040
:1028B000704770472DE9F04106460F4614464FF029
:1028C00000081548007818B112202070BDE8F0818A
:1028D000FDF7D0FC8046FF2E03D11048006890F829
:1028E00032600F4850F826502DB94046FDF7C6FC1F
:1028F00043202070EAE7012D05D14046FDF7BEFCDC
:1029000043202070E2E7EF644046FDF7B7FC00206B
:10291000207000BFDAE700004500002058000020CA
:1029200044060020704700002DE9F04707460D4699
:102930004FF0000A002028606860FDF79BFC82468B
:10294000FF2F03D11948006890F83270184850F8EA
:1029500027402CB95046FDF791FC4320BDE8F08795
:10296000012C04D15046FDF789FC4320F6E7207C7A
:1029700000F0010020B95046FDF780FC4520EDE74E
:102980000026D4F80C90D4F808805046FDF776FC69
:1029900000E0761C58F8041B0029FAD0B00028602B
:1029A000A9EB0600800068600020D7E758000020EF
:1029B0004406002070B5044610464FF0807505604F
:1029C000051F28462C606FF00106051F28462E6063
:1029D0004FF01236051F28462E604FF00336051FB4
:1029E00028462E604FF00236051F28462E607610CE
:1029F000051F28462E60051F284629604FF0113616
:102A0000051F28462E604FF01036051F28462E6001
:102A10004FF00936051F28462E604FF00836051F77
:102A200028462E604FF00736051F28462E604FF0CF
:102A30000636051F28462E604FF00536051F28462E
:102A40002E604FF00436051F28462E6070BD000032
:102A50002DE9F04105464FF00008FDF70BFC8046DC
:102A6000FF2D05D12048006890F83250012608E07B
:102A70001D48006890F83200A84201D1012600E00C
:102A800000261A4850F825402CB94046FDF7F6FBC1
:102A90004820BDE8F081012C04D14046FDF7EEFB53
:102AA0004320F6E794F834701148C05D94F835106F
:102AB00088430F49C8550846C05D30B994F83610B0
:102AC0000C48007888430B49087094F8300040F0B7
:102AD000080084F830004046FDF7D0FB012E01D1FC
:102AE00000F084FA0020D4E75800002044060020BB
:102AF0004A000020490000207047000070B50546DC
:102B000000261748007800B170BD1648007800B163
:102B1000FAE71DB3FDF7AEFB06461348006890F8D0
:102B200034401248005D1049096891F83510884317
:102B30000E4908550846005D40B90B48006890F8FA
:102B400036100B4800788843094908700648006829
:102B5000C5623046FDF792FB00F048FA00BFD3E7AC
:102B60004500002046000020580000204A000020B8
:102B70004900002070B5002600F072F8FDF77AFBDE
:102B8000064631480068401C2F4908603046FDF772
:102B900075FB2E480078012853D12D48007820B1CC
:102BA000012804D0022809D103E001250BE000250B
:102BB00009E0012501202649087004E001250020D4
:102BC0002349087000BF00BF05B970BD21480468E3
:102BD00033E0FDF74FFB0646E06A50B3E06A401E63
:102BE000E062E06A28BB94F8300000F0370040B1A2
:102BF00014F8300F00F0C800207001206070303CE5
:102C000002E0002084F8310094F8300000F0080061
:102C100078B93434A0781049097808430E4908700F
:102C200020780E49085C6178084314F834190B4A7F
:102C3000505464693046FDF721FB94F832003F2878
:102C4000C7D100BFC1E70000700000205200002083
:102C50006800002064000020490000204A00002095
:102C6000704710B590F8342001F10B039B5C90F88D
:102C70003540A34301F10B04A35423469B5C23B9C5
:102C80008B7A90F83640A3438B7210BD10B51B4A67
:102C90001268D061194A126892F8343000F10B02C0
:102CA000D25C164B1B6893F835301A43134B1B68E4
:102CB00093F8344000F10B031A55827A0F4B1B68CE
:102CC00093F836301A4382720C4A126892F8341024
:102CD0000B4A525C094B1B6893F835309A43084BFA
:102CE0005A541A46525C42B9044A126892F8363075
:102CF000044A12789A43034B1A7010BD5800002002
:102D00004A00002049000020014600228A7200206B
:102D100005E0002301F10B021354421CD0B2082835
:102D2000F7D370472DE9F0415021114800F02CF9FC
:102D300000250DE0681C86B20D4800EB051400EB81
:102D400006170020207067600AA0E060681C85B24A
:102D5000042DEFD3064800EB0514002020706060BE
:102D600004A0E060024804490860BDE8F08100006A
:102D7000F40100203F0000003400002070B5C8219D
:102D8000114800F001F900230FE0581C85B203EB55
:102D900083000D4901EB800405EB850001EB800603
:102DA000002020706660581C83B2092BEDD303EB22
:102DB0008300054901EB8004002020706060084614
:102DC0000249086070BD00002C0100203000002086
:102DD00000200A4908600A4908700A4908700A492F
:102DE00008700A4908700A4908600A4908600A49D7
:102DF00008600A4908600A4908707047700000209E
:102E00004500002046000020530000205200002012
:102E10002C00002054000020400000203C00002036
:102E20004400002000210A4A1170002004E0002123
:102E3000084A1154411CC8B20828F8D30021064A98
:102E40001170064A1170064A1160064A11607047F7
:102E5000490000204A0000204700002048000020D0
:102E6000600000205800002070B54FF47C711948B4
:102E700000F08AF84FF48071174800F085F80024BC
:102E800013E0601CC5B2C4EBC40000EB4000114964
:102E900001EB8003C5EBC50000EB400001EB8006B1
:102EA0005E610EA0D864601CC4B20B2CE9D3C4EBE5
:102EB000C40000EB4000074901EB8003002058618B
:102EC00006A0D86400200649086002480549086049
:102ED00070BD000044070020440600203F000000B1
:102EE000640000205C00002000B587B003200021B2
:102EF00080220A4BCDE90132CDE903104FF6FF7075
:102F00003F23074A00900748FFF776FC06AA06A170
:102F10003F20FFF7CFFC07B000BD000044040020B5
:102F200040060020C131000875432F4F532D4949F9
:102F30002049646C6500000000B587B003200021C3
:102F400080220A4BCDE90132CDE903104FF6FE7025
:102F50003E23074A00900748FFF74EFC06AA06A149
:102F60003E20FFF7A7FC07B000BD00004402002090
:102F700040040020E931000875432F4F532D494983
:102F8000205374617400000004E0002200F8012B5B
:102F90004A1E91B20029F8D1704700002DE9F04196
:102FA00078211048FFF7F0FF00240DE0601C86B286
:102FB00004EB44000B4901EBC00506EB460001EBB6
:102FC000C0072F60601C84B2042CEFD304EB4400D4
:102FD000044901EBC005002028600846024908604A
:102FE000BDE8F081340B00206C00002010B50024F7
:102FF000FDF740F9044613480078F8B91248007804
:10300000E0B900F02DF811481149097850F8210075
:10301000104908600E4800780F49097888420DD0A1
:103020000C480068806B401C0A49096888630B489B
:103030000068401C09490860FDF734F92046FDF797
:103040001DF910BD45000020460000204406002068
:103050004800002060000020470000202C000020D5
:103060000649074A1278885C0649095C034A515CA4
:1030700001EBC001044A117070470000284E00089F
:10308000490000204A000020480000202DE9F84FA8
:1030900005460F4690469946DDE90AAB00200090B0
:1030A000FDF7E8F800903F480468002C74D018340D
:1030B00054F8040C3B4908600098FDF7DFF844F829
:1030C000187CA576002020766076606144F814BCF8
:1030D00044F80CAC44F8108C0C9824F8080C24F834
:1030E000069C0020E077E810207705F00700E076E6
:1030F000217F01208840A077E17E01208840607711
:1031000000206060E060A0602062A0626062E06217
:10311000206325A06063183C002606E0002104F12E
:10312000500040F82610701CC6B2002EF6D0204683
:10313000FFF710FB2046FFF7BBFBFDF79BF8009065
:103140001A4840F825401A48006860610020A061D4
:103150001748006810B1164800688461144804607C
:103160003434A0781349097808431249087020784C
:103170001149085C6178084314F834190E4A505418
:103180000E480078401C0D4908700098FDF776F84D
:103190000020BDE8F88FFFE70098FDF76FF84220A8
:1031A000F7E700005C0000203F000000440600201C
:1031B00064000020490000204A0000205300002045
:1031C000002400BF00BFFDF755F80446054800681D
:1031D000401C044908602046FDF750F8FFF769FBE2
:1031E000F1E7000054000020002400BF02E0C820E6
:1031F000FFF784FC194800780028F8D018480068C8
:103200006421B0FBF1F0164908600846006828B94F
:10321000002014490870FF20FFF71AFC00BFFDF7DB
:1032200029F80446104800681049086000200E493B
:1032300008602046FDF722F80C4800680849096834
:10324000B0FBF1F0C0F1640006490870FFF76AFBBB
:1032500000F00EF86420FFF751FCE0E74400002086
:103260003C000020380000205400002040000020D6
:103270007CB5002514E069462846FFF755FB064655
:1032800066B9094850F8254044B1012C06D0D4E96C
:10329000020100EB810060640198A064681CC5B263
:1032A0003F2DE8D97CBD00004406002002F0010358
:1032B00043B102F002032BB102E0491E002308C013
:1032C0000029FAD17047000029B1064AD2690243A9
:1032D000044BDA6104E0034AD2698243014BDA61AC
:1032E000704700000010024029B1064A12690243EB
:1032F000044B1A6104E0034A12698243014B1A61CC
:10330000704700000010024029B1064A926902434A
:10331000044B9A6104E0034A92698243014B9A612B
:10332000704700000010024030B500210022002448
:1033300000232D4D6D6805F00C0121B1042905D045
:10334000082923D105E0294D056022E0274D0560BD
:103350001FE0254D6D6805F47012234D6D6805F46E
:103360008034022505EB92421CB9214D554305607E
:103370000BE01D4D6D6805F400351DB11C4D554326
:10338000056002E0194D5543056002E0174D0560E8
:1033900000BF00BF144D6D6805F0F0010909154D1F
:1033A0006B5C0568DD4045600F4D6D6805F4E061BC
:1033B000090A104D6B5C4568DD4085600A4D6D68FB
:1033C00005F46051C90A0B4D6B5C4568DD40C56072
:1033D000054D6D6805F44041890B074D6B5CC56870
:1033E000B5FBF3F5056130BD0010024000127A0014
:1033F00000093D0018000020280000207047000050
:1034000070B50025002400261D480088801E1D4937
:103410000D5C0846067840781B4908741948807886
:10342000A1F801001748C078C87016480079888054
:1034300014484079887113488079C87100BF07E04B
:10344000E01D1049095C104808300155601CC4B2E9
:103450000D48007CC01FA042F2DC09480088801E95
:1034600008490E5C06480088401E0E5C0648007C39
:10347000C01F05490874084600F064FA70BD0000DA
:103480009A000020842400204C25002010B500F074
:1034900001F810BD0CB50020019000903348006881
:1034A00040F480303149086000BF3048006800F4C3
:1034B000003000900198401C0190009818B90198C4
:1034C000B0F5A06FF1D12948006800F4003010B1C8
:1034D0000120009001E0002000900098012843D1D5
:1034E0002348006840F01000214908600846006841
:1034F00020F0030008600846006840F00200086001
:103500001A484068194948600846406848600846BB
:10351000406840F4806048600846406820F47C10B1
:1035200048600846406840F4E81048600846006873
:1035300040F08070086000BF0C48006800F0007028
:103540000028F9D00948406820F003000749486086
:103550000846406840F00200486000BF03484068E9
:1035600000F00C000828F9D10CBD0000001002404A
:1035700000200240042808D14FF0E021096941F001
:1035800004014FF0E022116107E04FF0E0210969EA
:1035900021F004014FF0E0221161704710B5054899
:1035A0000078012805D1FEF795FFFFF7E3FAFEF753
:1035B000A3FF10BD5200002010B51348006840F072
:1035C00001001149086008464068104908400E494A
:1035D0004860084600680E4908400B4908600846E4
:1035E000006820F4802008600846406820F4FE004F
:1035F00048604FF41F008860FFF748FF4FF00060FD
:103600000449086010BD0000001002400000FFF8EF
:10361000FFFFF6FE08ED00E010B5002440F2255152
:103620000B4800F04AF860B1094800F001F9C4B253
:103630002146084801F056F940F22551044800F0AF
:1036400014F80348001D00880148008810BD0000E0
:1036500000440040A000002001F40072B2F5007F99
:1036600000D100BFCA430280704710B5002200237A
:1036700040F66A14A14200D100BF0A12012494400E
:10368000A3B2DC43048010BD21B1828942F4005210
:10369000828104E082894DF6FF731A40828170476F
:1036A00002460020B1F5007F00D100BF13880B4017
:1036B0000BB1012000E00020704770B502460024E5
:1036C00000230025002040F66A16B14200D100BF59
:1036D000C1F3421501F01F03012606FA03F3012D81
:1036E00002D19689334006E0022D02D1168A33407A
:1036F00001E0968A33400C12012606FA04F416887B
:10370000344013B10CB1012000E0002070BDF0B5D1
:103710000346002400260025002040F66A17B9421F
:1037200000D100BF1846C1F3421401F01F06012763
:1037300007FA06F5012C01D10C3004E0022C01D16E
:10374000103000E014301AB107682F43076002E020
:103750000768AF430760F0BD2DE9F04786B0054626
:103760000E460024A24600BFA1460027B08900B142
:1037700000BF2F462C8A4CF6FF700440F0880443AB
:103780002C82AC894EF6F3100440B088318908438E
:10379000718908430443AC81AC8A4FF6FF40044072
:1037A000B0890443AC8201A8FFF7BEFD1F488742E1
:1037B00002D1DDF810A001E0DDF80CA0A88900F42A
:1037C000004040B10AEBCA0000EB0A103168490022
:1037D000B0FBF1F807E00AEBCA0000EB0A10316811
:1037E0008900B0FBF1F86420B8FBF0F00401200977
:1037F000642101FB1089A88900F4004040B1322007
:1038000000EBC900B0FBF1F000F00700044308E052
:10381000322000EB09106421B0FBF1F000F00F0042
:1038200004432C8106B0BDE8F08700000038014059
:1038300001468888C0F308007047C1F308028280FF
:103840007047000070B586B00025002600241421C2
:1038500001A8FCF7ECFE11211948FCF7C6FE01AAED
:1038600000211848FEF733FA029CC4F30070144993
:103870000870C4F3C840A1F80100C4F38040C870C8
:10388000C4F348208880C4F3C110887104F07F001D
:10389000C8719DF80E00087400BF07E00DF10F001D
:1038A000415D074808304155681CC5B29DF80E00BF
:1038B000A842F3DC02490448FEF7F5FB06B070BDF0
:1038C000C40B002000640040EC1F002000BFFEE796
:1038D000490050EAC12018BF04204A0D18BF40F02B
:1038E000010040F2FF72B2EB515F08BF40F00200EE
:1038F000012808BF0520704730380A2801D201206E
:1039000070470020704700BF704710B501210020AC
:1039100001F05CF80121084601F058F8012102206D
:1039200001F054F810BD10B50021084601F04EF822
:103930000021012001F04AF80021022001F046F8A0
:1039400010BD00002DE9F04385B004460027B846BD
:10395000B9460025002626784FF0805000EA067010
:103960000544B4F80160284800EAC6400544E678FA
:103970004FF4802000EA86400544A688234800EAE8
:1039800046200544A6794FF4C07000EAC6100544ED
:10399000E67906F07F0005440020009001950420A0
:1039A0008DF8080000208DF80900207C8DF80A00B1
:1039B00000BF07E004F10800C15D0DF10B00C15527
:1039C000781CC7B2207CB842F4DC69461048FEF788
:1039D00006FA81464FF0000801E008F10108494667
:1039E0000B48FEF78FFA012803D04FF6FF70804591
:1039F000F3D100BF00BF414606A000F0F7FC00BFB6
:103A000000BF05B0BDE8F0830000F80F00FE030022
:103A10000064004063616E2073656E642074696D9C
:103A200065202564200D0A002DE9F04F87B0074678
:103A3000884691469A460026B34600200690002408
:103A4000002500BF4FF0805000EA057004443D4659
:103A5000274800EAC540044400254FF4802000EACE
:103A6000854004444546234800EA452004444D4629
:103A70004FF4C07000EAC5100444554605F07F00BD
:103A8000044400200190029404208DF80C000020D2
:103A90008DF80D0011988DF80E0000BF06E010980B
:103AA000815D0DF10F008155701CC6B211988642E0
:103AB000F5DB01A91048FEF792F906904FF0000BD4
:103AC00001E00BF1010B0C480699FEF71BFA0128E7
:103AD00003D04FF6FF708345F3D100BF00BF5946B6
:103AE00006A000F083FC00BF00BF07B0BDE8F08F68
:103AF0000000F80F00FE03000064004063616E20C8
:103B000073656E642074696D65202564200D0A005C
:103B100008B501210520FFF7F7FB3020ADF80000C4
:103B200010208DF8030002208DF802006946064837
:103B3000FEF70EFB10210448FEF797FB20210248F8
:103B4000FEF793FB08BD0000000801400348006831
:103B500080F0100001490860704700000C08014027
:103B60002DE9FF470446002500260027A84600202F
:103B70000290039081462546102603274FF0010846
:103B800000BF8DF8080002A843463A463146CDE909
:103B900000092846FFF748FFBDE8FF872DE9FF47EA
:103BA00006460C460027B846B946BA4600200290A1
:103BB0000390002537464FF010084FF003094FF0EF
:103BC0000B0A220E29466D1C02A84254C4F3074278
:103BD00029466D1C4254C4F3072229466D1C4254E9
:103BE00029466D1C445453464A464146CDE90005DA
:103BF0003846FFF719FFBDE8FF872DE9FF47044668
:103C00000D4600260027B046B146002002900390E2
:103C10008246264610274FF003084FF005094FF063
:103C2000040A029502A84B4642463946CDE9000AED
:103C30003046FFF7F9FEBDE8FF872DE9FF47044650
:103C4000002500260027A846002002900390814608
:103C50002546102603274FF0020800BF8DF8080004
:103C600002A843463A463146CDE900092846FFF707
:103C7000DBFEBDE8FF872DE9FF470446002500264F
:103C80000027A84600200290039081462546102672
:103C900003274FF004084FF001098DF8080002A82F
:103CA00043463A463146CDE900092846FFF7BCFEB7
:103CB000BDE8FF8710B5044604EB4402054B03EB57
:103CC0008202118904EB440253F82200FEF7CBFA7A
:103CD00010BD0000AC0B002010B5044604EB4402FC
:103CE000054B03EB8202118904EB440253F82200D6
:103CF000FEF7BBFA10BD0000AC0B002070B5044607
:103D00000D46022C00DB70BD002D0BDD2046FFF7B9
:103D1000E3FF0120064901F82400084600EB840077
:103D2000458003E00020024901F8240000BFEAE7D3
:103D30007400002010B50446064800880548001DA0
:103D4000048000BF40210348FFF7AAFC0028F9D0F7
:103D500010BD0000004C004010B504460648008825
:103D60000548001D048000BF40210348FFF798FC70
:103D70000028F9D010BD00000038014010B50446FD
:103D8000064800880548001D048000BF4021034804
:103D9000FFF786FC0028F9D010BD00000044004069
:103DA00010B50446064800880548001D048000BF81
:103DB00040210348FFF774FC0028F9D010BD000033
:103DC0000048004030B587B004460D469C48844208
:103DD00051D101218803FFF797FA01210420FFF751
:103DE00093FA2015ADF8180018208DF81B00032059
:103DF0008DF81A0006A99348FEF7AAF96015ADF8E8
:103E0000180003208DF81A0018208DF81B0006A951
:103E10008C48FEF79DF925208DF8040000208DF8D0
:103E200005008DF8060001208DF8070001A8FEF7B7
:103E300037FA4FF4E13002900020ADF80C00ADF8F5
:103E40000E00ADF81000ADF814000C20ADF8120013
:103E500002A92046FFF780FC012240F225512046AE
:103E6000FFF755FC01212046FFF70EFC40212046BC
:103E7000FFF7F2FBE2E0744884424FD101210520B4
:103E8000FFF742FA01214804FFF71EFA0820ADF8B7
:103E9000180004208DF81B0003208DF81A0006A9D5
:103EA0006848FEF755F90420ADF8180003208DF896
:103EB0001A0018208DF81B0006A96248FEF748F981
:103EC00026208DF8040000208DF8050001208DF8D3
:103ED00006008DF8070001A8FEF7E2F90295002020
:103EE000ADF80C00ADF80E00ADF81000ADF8140000
:103EF0000C20ADF8120002A92046FFF72DFC01228C
:103F000040F225512046FFF702FC01212046FFF731
:103F1000BBFB40212046FFF79FFB8FE04B488442CC
:103F20004CD101210820FFF7EFF901218804FFF7A8
:103F3000CBF9E014ADF8180018208DF81B0006A985
:103F40004348FEF705F92015ADF8180003208DF859
:103F50001A0018208DF81B0006A93D48FEF7F8F856
:103F600027208DF8040000208DF8050001208DF831
:103F700006008DF8070001A8FEF792F902950020CF
:103F8000ADF80C00ADF80E00ADF81000ADF814005F
:103F90000C20ADF8120002A92046FFF7DDFB01223C
:103FA00040F225512046FFF7B2FB01212046FFF7E2
:103FB0006BFB40212046FFF74FFB3FE02548844242
:103FC0003CD101211020FFF79FF90121C804FFF720
:103FD0007BF92015ADF8180018208DF81B00032080
:103FE0008DF81A0006A91C48FEF7B2F8E014ADF8E7
:103FF000180003208DF81A0004208DF81B0006A974
:104000001548FEF7A5F84FF4E13002900020ADF816
:104010000C00ADF80E00ADF81000ADF814000C2047
:10402000ADF8120002A92046FFF796FB01212046B9
:10403000FFF72AFB40212046FFF70EFB07B030BDFB
:1040400000380140000801400044004000480040A2
:10405000000C0140004C00400010014070B50446C7
:104060000D460D48844202D12846FFF775FE0B48E5
:10407000844203D12846FFF781FE0CE008488442C1
:1040800003D12846FFF78CFE05E00648844202D1A2
:104090002846FFF74FFE70BD003801400044004045
:1040A00000480040004C004070B506460C461546DE
:1040B00005E014F8011B3046FFF7D0FF6D1E002D00
:1040C000F7D170BD10B5FDF7C1FFFDF7F0FDFDF7AD
:1040D00069FF10BD002282747047000010B51521E1
:1040E0000348FCF782FA034800210160818010BD7B
:1040F0003F2400209000002010B500241048807953
:1041000030B1012809D002280CD0032814D10EE0C8
:104110000B4800F063F904460FE0094800F058F935
:1041200004460AE0064800F056F9044605E0044853
:1041300000F019F9044600E000BF00BF204610BDA2
:104140003F24002070B5044600250026267A16B1CB
:10415000012E13D111E00020FFF7ACFD0120FFF785
:10416000A9FD607A20B164210020FFF7C7FD03E0BC
:1041700064210120FFF7C2FD01E000E000BF00BFA5
:10418000284670BD70B506460024002535B1012DC6
:1041900005D0022D07D0032D0DD108E00CE0202022
:1041A000FFF7DEFC08E02020FFF765FD04E020209B
:1041B000FFF743FD00E000BF00BF204670BD2DE9C2
:1041C000F0410446002500BF00BF00BF677A4FF4EE
:1041D000964107FB01F000F00DFE8046267A16B1ED
:1041E000012E06D104E041462020FFF706FD01E044
:1041F00000E000BF00BF2846BDE8F08108B50024FC
:10420000FFF76CFF15E06A4600210A480068FEF7D8
:10421000E1F90948807C01280BD10748B0F801007A
:10422000102806D1FFF768FF044621460248FFF731
:1042300051FFE8E7840000203F24002070B50446C9
:1042400000250026267A16B1012E10D107E04FF482
:104250007A731A460221072000F0D6FB08E04FF4DB
:104260007A731A460221072000F0CEFB00E000BF5F
:1042700000BF284670BD70B506460024002535B144
:10428000012D05D0022D07D0032D0DD108E00CE043
:104290002120FFF765FC08E02120FFF7ECFC04E09B
:1042A0002120FFF7CAFC00E000BF00BF204670BD20
:1042B0002DE9FC5F04464FF0000A00BF002001908A
:1042C00000BF00BF607A01904FF49642019901FB54
:1042D00002F000F08FFD0090E17AA07A01EB002956
:1042E000484600F076FC07460D4A0E4B00F084FC71
:1042F000054600F041FC814694F808B0BBF1000F80
:1043000003D0BBF1010F06D104E049462120FFF79D
:1043100045FC01E000E000BF00BF5046BDE8FC9F47
:104320009A999999999909402DE9F04104460025F7
:1043300000BF00BF00BF677A4FF4964107FB01F052
:1043400000F058FD8046267A16B1012E06D104E011
:1043500041462120FFF751FC01E000E000BF00BF13
:104360002846BDE8F08170B5044600250026E679B0
:10437000F01E072828D2DFE800F004090E13181DEC
:1043800022002046FFF7FEFE05461EE02046FFF70E
:1043900016FF054619E02046FFF76DFF054614E0BD
:1043A0002046FFF785FF05460FE02046FFF7BCFFDC
:1043B00005460AE02046FFF741FF054605E0204696
:1043C000FFF7C0FE054600E000BF00BF284670BDF5
:1043D00001460020704701460020704770B5044632
:1043E0000025204600F096FA284670BD0FB438B577
:1043F000002405A8009080210748009B049AFBF741
:1044000095FF04461CB12146034800F007F8002040
:10441000009038BC5DF814FBAC00002070B5044679
:104420000D460CE014F8011B0648FFF706FA6D1E56
:1044300000BF40210348FFF733F90028F9D0002DD1
:10444000F0D170BD0038014070B5054600242C46FF
:10445000FA2C11D11948007870B901201749087059
:10446000002017490880084601880088401C144A2B
:104470001080144844541FE01048007801281BD1D4
:104480000F480088012801D10F4804800C4801889A
:104490000088401C0A4A10800A484454104601888B
:1044A00009480088801C814206D1FEF7A9FF002040
:1044B000034908800149087070BD00009800002081
:1044C0009A000020842400209C00002008B50020D1
:1044D000009007E06946064800F0ECF99DF80000FE
:1044E000FFF7B2FF024800F005F80028F2D108BD3E
:1044F000A0000020014608884A88904201D100208F
:1045000070470120FCE7000010B500F0ABF900F0A7
:10451000A9F8FDF7C5FF0323044A00210448FEF76C
:104520001BF9FEF7CDF8002010BD0000E81F0020A9
:10453000754A000870B500F03FF81B48FEF7F4FE1E
:10454000194840684FF47A72B0FBF2F1B1F1807F04
:1045500000D31DE021F07F40401E4FF0E02250616B
:1045600050170F22002807DA13071D0E0F4B00F01B
:104570000F04241F1D5503E013071C0E0C4B1C5485
:1045800000BF00204FF0E02290610720106100BFC3
:1045900000F096F8FFF7BCFA4FF4E1310548FFF759
:1045A00011FCFFF78FFD70BDD80B002018ED00E067
:1045B00000E400E00044004010B500F001F810BD38
:1045C00000B585B001210520FEF79EFE012188037C
:1045D000FEF79AFE4FF48060ADF8100004208DF8CD
:1045E000130003208DF8120004A91C48FDF7B0FD4C
:1045F0004FF40070ADF8100003208DF81200182061
:104600008DF8130004A91548FDF7A2FD4FF4E13021
:1046100000900020ADF80400ADF80600ADF80800E9
:10462000ADF80C000C20ADF80A0069460C48FFF705
:1046300093F8012240F225510948FFF768F801215B
:104640000748FFF721F840210548FFF705F820212A
:104650000348FFF701F805B000BD00000008014065
:104660000038014010B56FF00400FEF783FF1048DA
:1046700000681049B0FBF1F00F4908700C48006861
:104680000C49B0FBF1F44FF47A70444301200B491C
:1046900008804FF0E020006940F002004FF0E02178
:1046A000086108464461006940F00100086110BDDE
:1046B0000400002000127A00000000200200002008
:1046C0001CB500BF00BF1DA0FFF790FE00BF00BFDC
:1046D00000BF00BF24A0FFF789FE00BF00BF00BFDE
:1046E00000BF24A0FFF782FE00BF00BF00BF00BFD5
:1046F0002CA0152100231A46CDE9001001212CA081
:10470000FFF774FE00BF00BF00BF00BF00230522FB
:10471000032131A0FFF76AFE00BF00BF00BF00BF4A
:1047200039A0FFF763FE00BF00BF00BF00BF41A07C
:10473000FFF75CFE00BF00BF1CBD00002D2D2D2D1E
:104740002D2D2D2D2D2D2D2D2D2D2D2D2D2D2D2D99
:104750002D2D2D2D2D2D2D2D2D2D2D2D2D2D2D2D89
:104760002D2D2D2D2D0000000D0A205C207C202FEA
:10477000200D0A002D2056443032202D20202020EC
:10478000553120447269766520426F6172642062FF
:10479000792053544D333246313033564554362008
:1047A0000D0A00004A756E20313520323032330058
:1047B000202F207C205C2020202020205625642EC5
:1047C00025642E25642E256420206275696C642082
:1047D0002573200D0A00000020202020202020200A
:1047E00020202020537464506572697068205665DB
:1047F0007273696F6E203A205625642E25642E252B
:1048000064200D0A000000002032303139202D20B4
:104810003230323820436F70797269676874206271
:10482000792067656E727569207465616D200D0A67
:10483000000000002D2D2D2D2D2D2D2D2D2D2D2D5C
:104840002D2D2D2D2D2D2D2D2D2D2D2D2D2D2D2D98
:104850002D2D2D2D2D2D2D2D2D2D2D2D2D200D0AD8
:104860000000000010B54FF4A060FDF751FD10BD31
:1048700000240CE00120FEF741F900F04BF9601C28
:1048800084B2B4F5FA7F02D10024FFF75FF9F1E7B3
:1048900010B50648FDF72DFC30B105490348FDF77A
:1048A00033FC034800F054F810BD0000EC1F00205A
:1048B0004620002010B5024610885388984201D146
:1048C000002010BD53889068C05C08705088401C60
:1048D00050805088938890FBF3F403FB14005080C1
:1048E0000120EEE710B502461088401C538898421C
:1048F00001D1002010BD13889068C1541088401C5D
:1049000010801088938890FBF3F403FB1400108050
:104910000120EFE72DE9FC4704460025002600278B
:10492000A846A946A688B4F8017094F8068094F8C1
:104930000790207C04F108014B464246CDE9001067
:1049400039463046FFF770F82846BDE8FC8700007E
:104950002DE9F0410446002600250027A846FA204C
:1049600018490870207CC01D487060788870E07815
:10497000C87020790871A0794871E079887100BF0A
:1049800007E004F10800415DE81D0E4A1154681C5F
:10499000C5B2207CA842F4DC207CC11D0948FDF78B
:1049A0006BFC217CC91D074A5054FB21207C083038
:1049B0001154207C00F1090202490348FFF774FBFF
:1049C000BDE8F081E82400200044004070B50446B2
:1049D0000D4634B92A464FF480610A48FDF747FC7A
:1049E0000EE0012C05D12A46E1020648FDF73FFC06
:1049F00006E0022C04D12A46E1020248FDF737FC0A
:104A000070BD0000000C01402DE9F04104460F4646
:104A100015461E4630211648FBF709FE27B9FEF75A
:104A200074FF0020BDE8F081012F03D1FEF77BFF6A
:104A30000020F7E704F0010028B101200C490870BC
:104A40000846C681858104F0020028B1012008498A
:104A500008740846C683858304F0040030B1012041
:104A6000034981F820000846C68585850020D9E7DE
:104A70005424002030B587B00446002500BFFBF762
:104A8000F9FB0546FFF756FD0020FDF77DFD1949AE
:104A9000086006A90020FDF7D1FC17490860FDF762
:104AA00033FE032000214FF40072144BCDE9013294
:104AB000CDE9031005200823114A00901148FDF7A5
:104AC0009BFE032000214FF480720F4BCDE9013291
:104AD000CDE90310062009230C4A00900C48FDF78D
:104AE0008BFE0320FDF7B4FF2846FBF7C7FB07B09A
:104AF00030BD0000840000208C000020EC0B002062
:104B0000E8130020FD410008EC130020E817002006
:104B10007148000810B5FFF7D9FCFFF7B9FE10BDCA
:104B200010B500290AD00878002807D00548784435
:104B3000FCF780FB002801D0002010BD024878441B
:104B400010BD0000660500005E05000010B50029DC
:104B50000AD00878002807D005487844FCF76AFB9B
:104B6000002801D0002010BD0248784410BD00008C
:104B7000560500004E0500004FEA1153A3F580636F
:104B8000D3F11E03A8BFD3F1200C08DB4FF0004285
:104B900042EAC12252EA505232FA03F07047094207
:104BA0000BD4102BC4BF0020704703F5787CBCF1F8
:104BB000FF3F05D04FF0FF3070474FF000007047C7
:104BC00070B500F0C3F800BF499224800020704700
:104BD000F0E7B0FA80F310FA03F10AD0C3F11D0335
:104BE00003F580634FEA41504FEA035202EBD121B3
:104BF00070474FF000007047DFF848C170B51CEAFD
:104C0000111E1EBF1CEA13159EEA0C0F95EA0C0F2D
:104C100000F06F8081EA030423EA4C134EEAD47E4D
:104C200021EA4C1141F4801143F48013AE44A1FBFE
:104C3000024CA0FB0365AEF17F7E361955EB0C05E7
:104C4000A1FB034C4CF10003A0FB021C16EB0C066D
:104C5000654153F10003094218BF46F0010613F401
:104C6000007F0BD14FEA03314FEA0530340341EAAC
:104C7000155140EA16506FF003020AE04FEAC321D3
:104C80004FEAC520F40241EA555140EA56506FF010
:104C9000020202EB2E4201EB025585EACE710AD0E8
:104CA0005FEA440C18BF24F0004450F1000041F1C9
:104CB000000120EAD47040F2FE7C624500D270BD53
:104CC000A84214BF4FF080444FF04044002E08BF6C
:104CD0000024BEF1806FA8BFA1F1C041BDE87040C3
:104CE00080F282804FF0000001F1C04101F00041EC
:104CF00070479EEA0C0F0CEA131518BF95EA0C0FCB
:104D000006D04FF0000081EA030E0EF0004170BDA6
:104D100000F01CF88900013E00F007B800F009B867
:104D20004FEA430C5FEA5C5C08D081EA030100F0C3
:104D30005BB84FEA410C5FEA5C5CF6D14FF00000D3
:104D4000014970470000FF070000F87F0EF1020ED6
:104D50002EF0030E5EF8046B364205D4012A43EBB5
:104D6000030515F5001F12D8012841EB010C1CF5B5
:104D7000001F0CD80ED14FEAD17C15F5001F0CEBAB
:104D80004C0C0CF1020C08BF4CEBD37C04E04FF050
:104D9000080C01E04FEAD37C0CEB4C0526FA05F633
:104DA00006F00706B6F1040C06D20EEB860CBDE841
:104DB00070404CF0010C6047DFE80CF0090B020278
:104DC0004FF000414FF00000A1F5002170BD1946E1
:104DD0001046012851EB010418BFD4F5001484BF1C
:104DE000002001F0004170BD0808A0F500114FEA55
:104DF0003101704710F0004148BF4042B0FA80F3E3
:104E000010FA03F2C3F19D030BD051EAC35101EB39
:104E10001220530638BF704700F1010008BF20F090
:104E200001007047FBF792BF000001000200010083
:104E30000300010002000100040001000200010063
:104E40000300010002000100050001000200010052
:104E50000300010002000100040001000200010043
:104E60000300010002000100060001000200010031
:104E70000300010002000100040001000200010023
:104E80000300010002000100050001000200010012
:104E90000300010002000100040001000200010003
:104EA00003000100020001000700010002000100F0
:104EB00003000100020001000400010002000100E3
:104EC00003000100020001000500010002000100D2
:104ED00003000100020001000400010002000100C3
:104EE00003000100020001000600010002000100B1
:104EF00003000100020001000400010002000100A3
:104F00000300010002000100050001000200010091
:104F10000300010002000100040001000200010082
:104F20000300010002000100010000007856341265
:104F300001000A0000001400C80000000100100079
:104F400014000200050001003F0001000100000004
:104F5000010000000000010004000100050018002D
:104F600008000100040001000100010080000100B0
:104F70000C00010001008000010001000100400060
:104F80005400E803010023010000100001000800A4
:104F90000A000000000000000000C20A040000082F
:104FA00000000000000000020001000010000000EE
:104FB0000000000000000000303132333435363755
:104FC000383941424344454640305800303132334D
:104FD000343536373839616263646566403078004D
:104FE00002400000000000A000000000054000009A
:104FF000000000C8000000000C4000000000409CC1
:1050000000000000194000000020BCBE00000000AD
:1050100034400000BFC91B8E00000004B5400000F2
:10502000504BCFD06607E2CF010000006C4100007A
:105030003E8251AADFEEA73401000000D9420000F1
:10504000DCB5A0E23A301F97FFFFFFFFB445000038
:10505000FD25A0C8E9A3C14FFFFFFFFFFF3F0000F0
:105060000000008000000000FF3F00000000008002
:1050700000000000C051000800000020AC0000004B
:10508000280100086C520008AC000020CC2D000064
:10509000440100081C00000043000000F8FFFFFF6F
:1050A0000C0000000E0000000F0000002E000000A9
:1050B0001001000043000000F8FFFFFF00404040E7
:1050C00040404040404041414141414040404040DB
:1050D0004040404040404040404040404005020287
:1050E0000202020202020202020202020220202046
:1050F00020202020202020020202020202029090A2
:10510000909090901010101010101010101010109F
:1051100010101010101010100202020202028888F3
:1051200088888888080808080808080808080808FF
:1051300008080808080808080202020240000000E7
:10514000000000000000000000000000000000005F
:10515000000000000000000000000000000000004F
:10516000000000000000000000000000000000003F
:10517000000000000000000000000000000000002F
:10518000000000000000000000000000000000001F
:10519000000000000000000000000000000000000F
:1051A00000000000000000000000000000000000FF
:1051B00000000000000000000000000000000000EF
:1051C0000000000000A24A040000000000000000EF
:1051D000010203040607080900000000010203049D
:1051E0000102030406070809020406080000000083
:1051F00000000000000000000000000000000000AF
:10520000000000000000000000000000000000009E
:10521000000000000000000000000000000000008E
:10522000000000000000000000000000000000007E
:10523000000000000000000000000000000000006E
:10524000000000000000000000000000000000005E
:10525000000000000000000000000000000000004E
:0C526000000000000002000012260020E8
:04000005080000ED02
:00000001FF
